:02000002B0004C
:1040000000400B0050590B00000006000C00050298
:084010000401E50C00000000B2
:04401800DC550B0068
:10401C0009480A49884208B505D0094A824202D0AB
:10402C00121A01F0C6F90748074A0021121A01F0CA
:10403C00CEF9014808BD00BF58E60320B8580B0064
:10404C00C8E60320C8E60320EDE7032070B5074E51
:10405C00074C00F043FCA41BA4080025AC4200D183
:10406C0070BD56F8043B98470135F7E768580B00CC
:10407C008C580B0000F018B808B500F073F8BDE8C8
:10408C00084000F0E3BB00F023BA00F021BA00F0C6
:10409C0027BA0078B0FA80F040097047012303700A
:1040AC00704710687047000030B585B000F0BAFF5B
:1040BC004FF4165100F0A6FF002000F0BDF847F2B7
:1040CC0030550446002000F0B7F8001B61F10001E8
:1040DC00A84271F1000307D200F0A4FF00F096FF94
:1040EC0010B900F0D5F9EDE700F09CFF00F08EFF61
:1040FC0000F098FF134900F045FB134913480023C7
:10410C00022200F0BDF920B900F08CFF104900F03C
:10411C0039FB0023019303930C23ADF804300D4BB2
:10412C0002930D490D4801AB042200F0A9F938B9EE
:10413C0000F078FF0A4905B0BDE8304000F022BB22
:10414C0005B030BDF0550B0058E60320FB550B00B5
:10415C0000560B00AF400B00CCE6032014560B00AE
:10416C001C560B001FB541F2883000F043FB01F0E8
:10417C0065F9154C154B186000F054FF216800F0E0
:10418C0001FB1349204600F083FA124B12491B78AD
:10419C008DF8003022683C2302A800F0FDFC039C43
:1041AC007CB16368013B63605BB9236820469B6804
:1041BC009847A368013BA3601BB923682046DB68C2
:1041CC00984704B010BD00BFCCE6032058E603208E
:1041DC0033560B00C8E603203B560B00034B044937
:1041EC00044800221A7000F03FBA00BFC8E6032052
:1041FC0066560B00CCE6032008B5024B1B689B6887
:10420C00019308BD6802030008B5024B1B68DB680C
:10421C00019308BD6802030008B5024B1B685B687C
:10422C00019308BD1802030008B5024B1B685B69BB
:10423C00019308BD1802030008B5024B1B68DB6D27
:10424C00019308BD1802030008B5024B1B685B6C98
:10425C00019308BD4802030008B5024B1B685B695B
:10426C00019308BD6402030008B5024B1B68DB68B0
:10427C00019308BD3C02030008B5024B1B681B6987
:10428C00019308BD3C02030008B5024B1B685B6937
:10429C00019308BD3C02030008B5024B1B689B69E7
:1042AC00019308BD3C02030008B5024B1B68DB6997
:1042BC00019308BD3C02030008B5024B1B689B6AC6
:1042CC00019308BD3C02030008B5024B1B681B6C34
:1042DC00019308BD3C02030008B5024B1B681B6828
:1042EC00019308BD4C02030008B5024B1B685B68C8
:1042FC00019308BD4C02030008B5024B1B681B69F7
:10430C00019308BD4C02030008B5024B1B685B69A6
:10431C00019308BD4C02030008B5024B1B689B6956
:10432C00019308BD4C02030008B5024B1B68DB6906
:10433C00019308BD4C02030008B5024B1B681B6AB5
:10434C00019308BD4C02030008B5024B1B689B6A25
:10435C00019308BD4C02030008B5024B1B685B6857
:10436C00019308BD2002030008B5024B1B685B6972
:10437C00019308BD2002030008B5024B1B68DB6CDF
:10438C00019308BD2002030008B5024B1B685B6D4E
:10439C00019308BD2002030008B5034B1B68D3F83A
:1043AC008830019308BD00002002030008B5034BC0
:1043BC001B68D3F89430019308BD00002002030061
:1043CC0008B5024B1B685B68019308BD40020300F3
:1043DC0008B5024B1B689B68019308BD40020300A3
:1043EC0008B5024B1B68DB68019308BD4002030053
:1043FC0008B5024B1B681B69019308BD4002030002
:10440C0008B5024B1B685B69019308BD40020300B1
:10441C0008B5024B1B689B69019308BD4002030061
:10442C0008B5024B1B68DB69019308BD4002030011
:10443C0008B5024B1B681B6A019308BD40020300C0
:10444C0008B5024B1B681B6B019308BD40020300AF
:10445C0008B5024B1B685B6B019308BD400203005F
:10446C0008B5024B1B681B6C019308BD400203008E
:10447C0008B5024B1B685B6C019308BD400203003E
:10448C0008B5024B1B681B68019308BD440203006E
:10449C0008B5024B1B689B68019308BD44020300DE
:1044AC0008B5024B1B685B69019308BD440203000D
:1044BC0008B5024B1B681B6A019308BD440203003C
:1044CC0008B5024B1B68DB6B019308BD440203006B
:1044DC0008B5024B1B681B68019308BD1C02030046
:1044EC0008B5024B1B685B68019308BD1C020300F6
:1044FC0008B5024B1B689B68019308BD1C020300A6
:10450C0008B5024B1B68DB6A019308BD1C02030053
:10451C0008B5024B1B681B6B019308BD1C02030002
:10452C0008B5024B1B681B6C019308BD1C020300F1
:10453C0008B5024B1B685B6C019308BD1C020300A1
:10454C00002240681146FFF773BF002240681146F5
:10455C00FFF77EBF40680022FFF772BF4068002261
:10456C0081F00101FFF75CBF002340681A46194631
:10457C00FFF74EBF002340681A461946FFF740BFAD
:10458C00002240681146FFF733BF002240681146F5
:10459C00FFF71EBF406800220221FFF721BF002356
:1045AC0040681A46FFF70CBF024B03225A60024ABE
:1045BC001A607047DCE6032074560B00054B022290
:1045CC001A60054B054A9A600020C3E90000FFF70A
:1045DC00C3BE00BFF0E60320E4E603200000FFFFAB
:1045EC0010B50446006808B1FFF77AFF0023C4E950
:1045FC000133236010BD38B504460D460068013107
:10460C00FFF776FF10B1C4E90005012038BD10B5E5
:10461C000368044623B143688B4201D3012010BDCB
:10462C002046FFF7E8FF0028F9D0A368002BF5D14E
:10463C0022681370F2E737B50D4611460192044615
:10464C00FFF7E5FF019A28B92046FFF7C9FF20467E
:10465C0003B030BDA2602946206800F0AAFE226893
:10466C00A3680021D154F2E7002313B5C0E900334D
:10467C0004468360037341B10846019100F039FF91
:10468C00019902462046FFF7D6FF204602B010BD26
:10469C0013B5044659B10846019100F02AFF01995F
:1046AC0002462046FFF7C7FF204602B010BDFFF7B9
:1046BC0097FFF9E710B58368044613B1032201464E
:1046CC009847204610BD10B54368013B0446436033
:1046DC0063B903689B689847A368013BA3602BB937
:1046EC0023682046DB68BDE81040184710BD10B5A4
:1046FC000446006808B1FFF7E6FF204610BD13B56D
:10470C000B460246D0E900016C4684E8030093E8AE
:10471C00030082E8030094E8030083E8030002B07E
:10472C0010BD0000024800230360FFF78DBD00BFE1
:10473C00F4E60320F8B506460D468F180024BD425A
:10474C000CD0336815F8011B9B6830469847031E44
:10475C0001DB1C44F3E7002C08BF1C462046F8BDC7
:10476C0013B50446084659B1019100F0C2FE236806
:10477C000199DB680246204602B0BDE8104018479C
:10478C0002B010BD08B5FFF7EBFF08BD03689B68CE
:10479C00184730B58BB00023012A8DF8243098BF10
:1047AC000A2209AC0D46B1FBF2F101FB125303F0E6
:1047BC00FF03092B94BF30333733DBB2AA4204F822
:1047CC00013DEFD92146FFF7CBFF0BB030BD000008
:1047DC00014B024A1A607047F8E60320A8560B00FA
:1047EC00024B1A68024B1A60704700BF5CE603204C
:1047FC00FCE603200021FFF7B7BD0000014B0022AF
:10480C009A60704700E70320014B1860704700BFA7
:10481C0060E6032008B50B4B43B100F003FC0368C2
:10482C001B699847002801DDAFF30080064B43B1AC
:10483C0000F090FD03681B699847002801DDAFF379
:10484C00008008BD000000000000000008B5FFF764
:10485C00E1FFFFF7E9FC014B186008BD58E70320A6
:10486C000548064A064908B5121A00F0A2FD054B88
:10487C00054A1A6008BD00BF00F4032004F40320AD
:10488C00B4580B0000F403201E1C279A07B5002314
:10489C0000931A466FF07701FFF788FD03B05DF8BF
:1048AC0004FB000007B543880A2B08D0502B0BD112
:1048BC00094B1B684BB103B05DF804EB1847FFF7CD
:1048CC00E5FF03B05DF804FB002300931A466FF07C
:1048DC007701FFF76BFDF4E714E7032010B51248DE
:1048EC000021FFF725FE114B1A68114B9A42114B10
:1048FC000CBF012200221A7001D0FFF7B1FFFFF7A5
:10490C008BFC044600F06CFD0B4B13B12046AFF34F
:10491C00008000210848FFF7D3FDBDE81040074890
:10492C000021FFF739BD00BF15480B0000F4032030
:10493C001E1C279A10E7032000000000B1480B0052
:10494C0070470020704710B510210446FFF79FFBFD
:10495C00204610BD08B5FFF7F6FF08BD30B50022A4
:10496C004FF69C74026084808D888C800C688580E6
:10497C0004600A6030BD10B504460068FFF7B0FD56
:10498C00204610BD38B5C468F4B12378022B03D18E
:10499C0004F10C00FFF7EFFF656835B12846FFF70F
:1049AC0089FE10212846FFF772FBA56835B1284611
:1049BC00FFF780FE10212846FFF769FB20461421E3
:1049CC00BDE83840FFF763BB38BD0B6803604B682C
:1049DC00436013B15A6801325A60704737B50446C8
:1049EC0068460D46FFF7F1FF009B019A2360626059
:1049FC00002301A801930093FFF779FE35B1281D20
:104A0C00FFF775FE08212846FFF741FB204603B04F
:104A1C0030BD826810B50AB900F0C2FCBDE8104088
:104A2C00C368184708B5006800F11001FFF7F1FFE3
:104A3C0008BD826810B50AB900F0B2FCBDE81040A0
:104A4C00C368184708B5006800F11001FFF7F1FFC3
:104A5C0008BD000038B500230446036010200D4645
:104A6C00FFF711FB28B10123C0E90133024B0360AE
:104A7C00C5602060204638BDD0560B0038B50023E9
:104A8C0083608B6804460D462BB102229847EB6875
:104A9C00E360AB68A360204638BD0000F0B589B078
:104AAC0004686846FFF75AFF4FF00203D4E84F2F13
:104ABC00002A03D1C4E8413F0029F7D125D104F1E4
:104ACC000C0569462846FFF749FFBFF35B8F0123AE
:104ADC006370002004F10803BFF35B8F53E8006F91
:104AEC0043E80002002AF9D1BFF35B8F6EB1FFF7E8
:104AFC0043FC78B129463046FFF78BFF3046FFF771
:104B0C00D9FD10213046FFF7C2FA6846FFF733FF94
:104B1C0009B0F0BD314602A8FFF7B0FFE068B4F968
:104B2C00105008B100F0C8FC06901020ADF81C50D5
:104B3C00FFF7A9FA0546E8B1002787601820FFF7B0
:104B4C00A2FA044688B10146876002A8FFF7D7FD98
:104B5C00049BA268A360059B049206A9E268E3602B
:104B6C0004F110000592FFF7F9FE084BEB60084BBF
:104B7C002C60AB6006A8FFF7FEFE02A8FFF79AFDBB
:104B8C00002229460348FFF7FFFBB7E7314A0B0029
:104B9C00B54C0B0021510B002DE9F04F8BB00546A5
:104BAC009DF850A00F4690469946FFF779FC07AE4A
:104BBC00834638BB4FF62E73059005A93046ADF8E9
:104BCC001830FFF7CBFE1420FFF75DFA044648B10E
:104BDC00022303700123C0E901BB437031460C3042
:104BEC00FFF7BCFE2846214640F8044BFFF732FF86
:104BFC003046FFF7C0FE05A8FFF7BDFE28460BB0F8
:104C0C00BDE8F08F0C2300241420CDE90844079351
:104C1C00FFF739FA014618B1C0E901440470447039
:104C2C0004A80391FFF716FF1E4B08930820FFF70B
:104C3C002AFA044610B103A9FFF7C7FE00965FFAE3
:104C4C008AF34A46414638460994FFF731FCB8B915
:104C5C00039B5B7803F0FF0293B94FF69C7305A995
:104C6C0003A80592ADF81830FFF718FF05A8FFF759
:104C7C0082FE05A80999FFF7B1FE06A8FFF737FDDC
:104C8C0003A905A8FFF7A1FE059B069A2B606A6095
:104C9C00002306A806930593FFF729FD04A8FFF748
:104CAC0026FDABE7314D0B00012AF8B5054603D1C3
:104CBC000B6803600020F8BD022A10D0032AF9D13A
:104CCC000468002CF6D004F11000FFF754FE2046C7
:104CDC00FFF7F0FC18212046FFF7D9F9EAE7182076
:104CEC000E68FFF7D0F9044650B13146FFF7C6FE07
:104CFC003069B6F9147008B100F0DEFB2061A782B0
:104D0C002C60D7E738B5002383608B6804460D46CA
:104D1C002BB102229847EB68E360AB68A360204696
:104D2C0038BD0000F0B589B004460D4601A8114607
:104D3C00FFF754FEA4B124B21DB1284600F0BCFB11
:104D4C00054601A803A90395ADF81040FFF7A6FE90
:104D5C0003A8FFF710FE02A8FFF7C9FC09B0F0BDCD
:104D6C00019D0123D5E84F2F002A03D1C5E8413F0F
:104D7C000029F7D1EFD12B73BFF35B8F6B702B1D19
:104D8C00BFF35B8F53E8006F43E80042002AF9D170
:104D9C00BFF35B8F002EDED02046FFF7EDFA0746FF
:104DAC0060B105F10C013046FFF743FE3046FFF7CA
:104DBC0081FC10213046FFF76AF9CCE7314603A895
:104DCC00FFF7A0FF2B7B8DF81C301020FFF75BF951
:104DDC000546D0B187601420FFF755F9044678B129
:104DEC008760014603A8FFF78AFC059BA268A360B5
:104DFC00069B0592E268E3609DF81C3006922374D2
:104E0C00064BEB60064B2C60AB6003A8FFF752FC23
:104E1C00002229460348FFF7B7FAC7E7514A0B00AF
:104E2C00354E0B0021510B00012A70B5044603D1FD
:104E3C000B680360002070BD022A0CD0032AF9D144
:104E4C000468002CF6D02046FFF734FC14212046D1
:104E5C00FFF71DF9EEE714200E68FFF714F905466D
:104E6C0020B13146FFF74EFF337C2B742560E1E710
:104E7C00704710B518210446FFF709F9204610BDFC
:104E8C00F0B5037D062B8DB00E4600F104074FF0F4
:104E9C00000412D000F1080515F8011D0A22304655
:104EAC00FFF777FCAF42044419D0002CF4D02E212C
:104EBC003046FFF76BFC0444EEE72F236A46394675
:104ECC000A208DF80040FFF7C7F9684600F011FB87
:104EDC0033680246DB6869463046984704462046EC
:104EEC000DB0F0BD10B5054B0446112240F8043B43
:104EFC00002100F06CFA204610BD00BFEC560B00F0
:104F0C000346074A10B543F8042B01F1100251F87F
:104F1C00044B43F8044B9142F9D10A781A7010BD36
:104F2C00EC560B0010B59DF8084044EA032343EA05
:104F3C00024242EA016104234160037510BD000086
:104F4C0007B5064B0360CB7800938B784A780978C9
:104F5C00FFF7E8FF03B05DF804FB00BFEC560B0055
:104F6C00417470477047704708B50021007CFFF70B
:104F7C00D3F940EAE07008BD08B50121007CFFF7C9
:104F8C00CBF940EAE07008BD08B5007CFFF7BCF92E
:104F9C0020EAE07008BD08B5007CFFF7ADF920EA07
:104FAC00E07008BD13B50446007C0191FFF7ACF925
:104FBC000028019901DC607C20B1207CFFF7B4F95A
:104FCC0020EAE07002B010BD007CFFF7B5B910B557
:104FDC0014210446FFF75BF8204610BD10B54FF4C2
:104FEC007A73044608460021C4E90113044B23607C
:104FFC000123207463741146FFF76EF9204610BD2F
:10500C0000570B00007C0022FFF76EB9007CFFF705
:10501C009BB910B514220446002100F0D8F92046A3
:10502C0010BD000010B50F4C88B003A8FFF7F1FFBE
:10503C002178BFF35B8F11F001010FD12046019154
:10504C00FFF727F8019948B103AA0748FFF7C6FFF5
:10505C002046FFF723F8054800F0A5F9024808B0F0
:10506C0010BD00BF18E703201CE70320714F0B0095
:10507C0070474174704708B5007CFFF71DF920EAB2
:10508C00E07008BD08B5007CFFF7F6F820EAE07088
:10509C0008BD08B5007CFFF7FFF840EAE07008BDDA
:1050AC0008B5007CFFF7F0F840EAE07008BD007C22
:1050BC00FFF7FAB837B5457C04462DB1207C03B018
:1050CC00BDE83040FFF7D0B8007C0191FFF7F4F851
:1050DC0000280199F2DC284603B030BD10B514212C
:1050EC000446FEF7D4FF204610BD000010B54FF467
:1050FC007A730446084611460022C4E90123044B86
:10510C002360012320746374FFF7DEF8204610BD82
:10511C0030570B0010B5836804460BB900F040F90A
:10512C00C3689847A3681BB10322214620469847C1
:10513C0020461021BDE81040FEF7A9BF00224068B0
:10514C001146FFF755B9002240681146FFF770B9B8
:10515C00002240681146FFF77BB940680022FFF738
:10516C006FB94068002281F00101FFF759B90023A3
:10517C0040681A461946FFF74BB9002340681A4697
:10518C001946FFF73DB9002240681146FFF720B9D8
:10519C00406800220221FFF723B9002340681A4619
:1051AC00FFF70EB9024B04225A60024A1A6070478C
:1051BC0030E7032060570B00002340681A46FFF7C6
:1051CC00FFB8406800220221FFF70AB900224068AC
:1051DC001146FFF7FDB8002240681146FFF708B9E9
:1051EC00002340681A461946FFF70AB900234068A5
:1051FC001A461946FFF70CB940680021FFF730B981
:10520C0040680021FFF734B94068002281F00101A9
:10521C00FFF706B940680022FFF712B90022406878
:10522C001146FFF715B9002240681146FFF700B987
:10523C002DE9F04395B014460D460746FFF752FE94
:10524C0000211C220DA8009100F0C1F840230C9302
:10525C0020466B460CAA0021FEF7D6FF0446002818
:10526C004BD1024601216868FFF7C2F80221804643
:10527C0022466868FFF7BCF8009E81462146002E46
:10528C003BD0002939D17368022B03D00A2B11D0E3
:10529C00F669F4E7B8F1000FFAD0716906A8043189
:1052AC0007ADFFF74DFE0FCD3C1D0FC42B682370CF
:1052BC004146EDE7B9F1000FEAD07469102201A85C
:1052CC0000F085F806238DF8143001AD04F10803C5
:1052DC001834186859682A4603C20833A342154685
:1052EC00F7D101A906A807ADFFF70AFE0FCD3C1DAB
:1052FC000FC42B6823704946CAE70098FEF77CFF61
:10530C00384615B0BDE8F083024B034A1A60002200
:10531C005A60704738E703209C570B007047000019
:10532C0038B5044614252A46002100F050F8258093
:10533C004025074925812846258200F02FF804498D
:10534C006060284600F02AF8E060204638BD00BFB7
:10535C00D0570B0030B50E4D2978BFF35B8F11F091
:10536C00010487B011D12846FEF793FE68B101A85D
:10537C00FFF7D6FF01AA21460648FFF7B7FE2846DD
:10538C00FEF78CFE044800F00EF8024807B030BD62
:10539C0040E7032044E7032029530B00FEF775BEBA
:1053AC0008B5FFF7ADF8002301461A46184600F081
:1053BC00A9B80A44914200F1FF3300D1704710B5EF
:1053CC0011F8014B03F8014F9142F9D110BD024481
:1053DC000346934200D1704703F8011BF9E7000024
:1053EC0038B5104B1D68AB6B0446B3B91820FFF7EA
:1053FC006FF80246A86320B90B4B0C484221FFF70B
:10540C008FF80B490B4BC0E900130B4B83600B233C
:10541C00838100210120C2E90401AB6B00221C61D5
:10542C005A6138BD60E60320D1570B00E8570B00DA
:10543C000E33CDAB34126DE6ECDE0500164B10B519
:10544C001C68A36BB3B91820FFF742F8A06328B906
:10545C000246124B12484E21FFF762F8114A124BCA
:10546C00C0E90023114B83600B23838101220023AD
:10547C00C0E90423A46B0E4A206963690D494243B9
:10548C0001FB0322A0FB0101431C42EB0100C4E918
:10549C00043020F0004010BD60E60320D1570B0013
:1054AC00E8570B000E33CDAB34126DE6ECDE050085
:1054BC002DF451582D7F954C024B0146186800F085
:1054CC0003B800BF60E6032037B5044608460D4616
:1054DC0000F00FF8421C114620460192FFF718F815
:1054EC00044618B1019A2946FFF763FF204603B022
:1054FC0030BD034613F8012B002AFBD1181A0138D2
:10550C00704700002DE9F843DFF8B8800646D8F85C
:10551C0000001F460D46914600F056F8254B1C68BE
:10552C0034B9254C1C60254B13B11B68C4F888306A
:10553C0063681F2B07DDD8F8000000F047F84FF028
:10554C00FF30BDE8F8834EB3D4F8880088B91C4B03
:10555C0023B9D8F8000000F038F8F0E74FF4847065
:10556C00FEF7B6FF0028F4D00023C0E94033C4F89E
:10557C008800636840F8239001229A4000EB830175
:10558C00D0F800311343C0F80031022EC1F88070FE
:10559C0002BFD0F804311343C0F804316368D8F863
:1055AC0000005A1C0233626044F8235000F00EF8DD
:1055BC000020C6E7E8E703205CE7032000000000BA
:1055CC00DD440B00C4E603207047704770470000B1
:1055DC001D400B0059400B0081400B0085400B0017
:1055EC00000000005365747570204F76657200746E
:1055FC00657374002074657374204E6F742070751D
:10560C00626C6973686564006D65737361676500CE
:10561C00206D657373616765204E6F7420707562C1
:10562C006C697368656400557064617465640055D9
:10563C00706461746564207465737420616E642099
:10564C006D657373616765207661726961626C6503
:10565C00207661726961626C650048656C6C6F00E4
:10566C000000000000000000AB450B00A1450B0042
:10567C0097450B008D450B0081450B0075450B00C4
:10568C0005520B000D520B0069450B0061450B00D8
:10569C0057450B004D450B003D520B0061707000DF
:1056AC0025592D256D2D25645425483A254D3A252F
:1056BC0053257A0061736374696D65000000000006
:1056CC00000000004D490B0053490B0091490B00A1
:1056DC0061490B004F490B00000000000000000066
:1056EC008D4E0B007D4E0B007F4E0B00000000001A
:1056FC0000000000734F0B00DB4F0B00B14F0B0091
:10570C0041470B00A34F0B00754F0B00854F0B004F
:10571C00D54F0B00954F0B006D4F0B000000000098
:10572C00000000007D500B00E9500B00C1500B0035
:10573C0041470B0091500B00AD500B009F500B00DC
:10574C00BB500B007F500B0083500B00000000007F
:10575C0000000000A7510B009D510B0093510B0052
:10576C0049510B0087510B007B510B0005520B006C
:10577C000D520B006F510B0067510B005D510B006C
:10578C0053510B003D520B000000000000000000C4
:10579C00C5510B00CF510B00D9510B00E3510B003D
:1057AC00ED510B00F9510B0005520B000D520B0083
:1057BC0015520B0021520B0029520B0033520B00D7
:1057CC003D520B00005245454E54206D616C6C6F80
:1057DC006320737563636565646564002F6D6E7417
:1057EC002F776F726B73706163652F776F726B734A
:1057FC00706163652F4743432D31302D706970659F
:10580C006C696E652F6A656E6B696E732D474343C9
:10581C002D31302D706970656C696E652D34385F73
:10582C0032303230313132345F313630363138301B
:10583C003634312F7372632F6E65776C69622F6EFD
:10584C0065776C69622F6C6962632F7374646C6921
:10585C00622F72616E642E6300000000E9410B0040
:10586C00B5450B00C9450B0031470B00DD470B005C
:10587C00ED470B0009480B00B1510B0015530B0001
:04588C000000000018
:10589000040000001400000003000000474E550003
:1058A0007EE3508F660CA7009B64EFE60E6177F9EC
:0458B00003069E78D5
:0458B40000000000F0
:1058B80001000000C0560B0064E603200000000051
:1058C80000000000000000000000000000000000D0
:1058D80000000000000000000000000000000000C0
:1058E80000000000000000000000000000000000B0
:1058F80000000000000000000000000000000000A0
:10590800000000000000000000000000000000008F
:10591800000000000000000000000000ECE7032089
:10592800FFFFFFFF00000102030405060708090A3C
:105938000B0C0D0E0F101112131415161718191A37
:085948001B1C1D1E1F2028007E
:04595000785634123F
:04000003B000401CED
:00000001FF
