:02000002B0004C
:1040000000400B0094C80B00000006000C000502E5
:084010000401E50C00000000B2
:0440180068BC0B0075
:10401C0009480A49884208B505D0094A824202D0AB
:10402C00121A07F013FD0748074A0021121A07F06D
:10403C0035FD014808BD00BFD4E5032000C80B00C6
:10404C0040E6032040E60320EDE7032070B5074E61
:10405C00074C06F097F9A41BA4080025AC4200D12C
:10406C0070BD56F8043B98470135F7E794C70B0031
:10407C00C8C70B0000F0B0B808B500F0FFF8BDE8F9
:10408C00084006F037B903F0C1BA03F0BFBA03F029
:10409C00C5BA0078B0FA80F040097047012303706C
:1040AC00704791F92030028A1344827C0132D2B2DB
:1040BC001BB2052A038282BF93FBF2F30382012316
:1040CC00827488BF837470471FB50C460022C11DD3
:1040DC00684603F0BDFE029A0099204606F022FEC7
:1040EC0006F066FD684603F085FB204604B0BDE88B
:1040FC00104006F047BD38B5044600F110052030DD
:10410C0003F078FB284603F075FB20463021BDE810
:10411C003840FFF7BCBF38B5044644B1E068FFF740
:10412C00FAFFA5682046FFF7E6FF2C46F5E738BDF9
:10413C000EB403B503AB002153F8042B019305F027
:10414C00F6FF02B05DF804EB03B0704738B5104DC4
:10415C002C68D4B95820FFF796FFA8B1C0E90744E2
:10416C00C0E90944C0E90B44C0E90D44C0E90F445F
:10417C00C0E91144C0E9134440F601234471C480E2
:10418C0083810461047544652860286838BD00BFCC
:10419C00B4E6032010B504F021FA04F069FAFFF735
:1041AC00D5FF05234373FFF7D1FF01240473FFF7F9
:1041BC00CDFF044B0365FFF7C9FF2146BDE8104056
:1041CC0002F06AB8E5430B0008B5FFF7BFFFBDE886
:1041DC00084002F059BA000070B506F013FB4FF41A
:1041EC00165106F0FFFA002002F0A8FF47F23055F6
:1041FC000446002002F0A2FF001B61F10001A8425E
:10420C0071F1000307D206F0FDFA06F0EFFA10B9CF
:10421C0003F0C4F9EDE706F0F5FA06F0E7FAFFF75C
:10422C00B9FF002002F08AFF124D044647F23056C7
:10423C00002002F083FF001B61F10001B04271F11C
:10424C00000308D200226868114603F05FF910B928
:10425C0003F0A4F9ECE700221146686803F056F964
:10426C0003F0A4F906F0CEFABDE87040024905F05F
:10427C0036BF00BF30E703207CBC0B00FFF7A4BFA8
:10428C002DE9F843D1F80880074691460C1DB8F18A
:10429C00000F38D008F110054946284603F0DFFB23
:1042AC0028B1D8F80C50A0464446A846EFE729465A
:1042BC00484603F0D4FBD8F808500028F4D1D8F8BD
:1042CC000C6065B105F11000494603F0C8FBD5E957
:1042DC00023200280ABFA84615461D46F1E766B112
:1042EC0006F11001484603F0BAFBD6E90232002869
:1042FC0016BF344616461E46F1E7C7F800807C60B0
:10430C003846BDE8F8833C60F9E72DE9F0418D684B
:10431C0004460F4690460E1D012375B105F11001A0
:10432C00404603F09CFBD5E9021200282E4615BF2F
:10433C00012300230D461546EFE7A3B1FB68B342FA
:10434C0004D1256066602046BDE8F081304606F059
:10435C00A5FD0546414605F1100003F080FB20B198
:10436C0000232360EEE73546F4E7C4E90050EAE7A2
:10437C002DE9F0418D6804460F4690460E1D012331
:10438C0075B105F11001404603F069FBD5E9021245
:10439C0000282E4615BF012300230D461546EFE7D6
:1043AC00A3B1FB68B34204D1256066602046BDE82A
:1043BC00F081304606F072FD0546414605F11000CD
:1043CC0003F04DFB20B100232360EEE73546F4E704
:1043DC00C4E90050EAE700002DE9F04FABB0044609
:1043EC000F4606F00FFAAB49DFF8BC82DFF8BC923F
:1043FC0005F075FEE11D1AA803F098FC00221AA91D
:10440C0006A803F025FDA4490AA803F03EFAFFF71D
:10441C009DFEA24BD3E9004604EB8616A64200F0A3
:10442C00B281CDF8688094F904308DF86C306379E2
:10443C008DF86D30A3798DF86E30E11D0DF16F00A4
:10444C0003F074FCB4F91030ADF87830A37C8DF81F
:10445C007A300DF17B03CDF8689004F1130204F16E
:10446C0037019A4652F8040B43F8040B8A42F9D1EF
:10447C0012781A70238FADF8A030638FADF8A2308C
:10448C0094F93C308DF8A4300DF16F0112A803F0B3
:10449C004DFC002212A916A803F0DAFC06A916A8F6
:1044AC0003F0D0FA054616A803F0A4F94034002D09
:1044BC00B4D051460EA803F0E8F9012F784E40F025
:1044CC00BF80341DB568A04665B105F1100006A982
:1044DC0003F0C5FAD5E9023200280ABF2C4615466E
:1044EC001D46F1E7444522D13020FFF7CCFD00F109
:1044FC00100806A9DFF8ACA18146404603F010FA7B
:10450C00654908F1100003F0C0F954453AD17369BC
:10451C0083B330694146103003F0A1FA50B33469CB
:10452C00002C4AD14846FFF7E6FDA14658E004F1BD
:10453C00100106A803F093FA0028D5D10EA904F1B6
:10454C00200003F0DEF9DFF8688108F10404D8F8E4
:10455C0008502646002D00F0AD8005F110000EA984
:10456C0003F07DFAD5E9023200280ABF2C46154625
:10457C001D46EFE74A49424602A8FFF7C6FEDDE9B1
:10458C00025416E004F1100B5946404603F067FA4A
:10459C0070B3F568AC420CD0204606F07FFC414667
:1045AC008346103003F05BFAE0B1DBF80C50EDB948
:1045BC005C46002C42D0002D3ED13A4B9C423BD065
:1045CC0004F11001404603F04AFA003818BF0120EC
:1045DC00344B2246494606F063FC73690133736120
:1045EC004C46ABE74246AAF10401C5E72546E0E795
:1045FC004146584603F033FA002893D033699C4265
:10460C000DD0204606F046FC054600F11001404650
:10461C0003F025FA28B1E26862B9234615461C4618
:10462C00C7E74246AAF1040102A8FFF76EFEDDE9D6
:10463C000253F4E72B46F2E70120C9E72C4671E759
:10464C0006AA314616A8FFF71BFEDDE91645F368EE
:10465C009C420BD1331D9D4208D1B068FFF75BFD26
:10466C000023C6E90235C6E904536CE7DFF8349041
:10467C00A5423FF468AF204606F00EFC4946804642
:10468C00204606F068FCFFF736FD7369013B736149
:10469C004446EDE79ABC0B00C4C50B00A8E603200A
:1046AC004CE6032050E60320F8BC0B009CBF0B002B
:1046BC0064E60320B4422DD12420FFF7E4FCDFF89C
:1046CC00A0A200F1100681460EA9304603F028F98D
:1046DC000023544589F8203040F0C280D8F81430BB
:1046EC00002B00F0B580D8F810003146103003F0E4
:1046FC00B6F9002800F0AC80D8F81040002C40F03F
:10470C00CB80304603F076F848462421FFF7BFFCF7
:10471C00A146D6E004F110010EA803F0A0F9002880
:10472C00CAD17B1E5F425F41834984F8207012A876
:10473C0003F0ABF80EA912A803F044F97F4903F07B
:10474C004DF9394603F05FF97D4903F047F904460A
:10475C0005F08DFD0246C31716A805F02FFD16991E
:10476C00204603F03BF9774903F038F901460AA8D3
:10477C0003F0C7F816A803F03DF812A803F03AF8B6
:10478C000EA803F037F81AA802F020FF6E4B0A9A15
:10479C001B788DF800301A993C2316A805F04EFEB4
:1047AC00179C7CB16368013B63605BB9236820464E
:1047BC009B689847A368013BA3601BB923682046FC
:1047CC00DB689847614E624CDFF89881614F1AA8FC
:1047DC0003F010F806F016F85F4905F080FCF2685B
:1047EC00226004362168B14200F09D80103112A87D
:1047FC0003F096F8236893F8201016A8002914BF2C
:10480C004146394603F041F805F0FCFFDDF84890CD
:10481C00DDF858A0054605F02AFD0246C3171AA874
:10482C0005F0CCFC1A9B4D4900934A46534628464A
:10483C00FFF77EFC1AA802F0DDFF16A802F0DAFFE3
:10484C0012A802F0D7FF206806F024FB2060C9E70D
:10485C003E49324604A8FFF78BFDDDE9045417E00E
:10486C0004F1100B5946304603F0F9F888B3D8F828
:10487C000C50AC420CD0204606F010FB314683465F
:10488C00103003F0ECF8F0B1DBF80C50FDB95C46DD
:10489C00002C46D0002D42D1314B9C423FD004F12C
:1048AC001001304603F0DBF8003818BF01202C4B08
:1048BC002246494606F0F4FAD8F814300133C8F809
:1048CC0014304C462DE73246AAF10401C2E72546C6
:1048DC00DEE73146584603F0C2F800283FF411AF2A
:1048EC00D8F810309C420DD0204606F0D3FA05467D
:1048FC0000F11001304603F0B2F828B1E26862B959
:10490C00234615461C46C3E73246AAF1040104A807
:10491C00FFF72EFDDDE90453F4E72B46F2E7012007
:10492C00C5E72C46EDE60AA802F064FF06A802F0E3
:10493C0061FF2BB0BDE8F08FAEBC0B00B8BC0B0018
:10494C00C5BC0B00D0BC0B0040E6032064E6032082
:10495C0048E6032093BC0B00D3BC0B00DDBC0B0062
:10496C0068E603208BBC0B000D4B10B500241C70AB
:10497C002146012002F07EFD0A4B1A1DC3E90322D9
:10498C001C719C605C61084B1A1DC3E903221C71ED
:10499C009C605C61054B1C60054B1C6010BD00BF2E
:1049AC0040E603204CE6032064E6032044E60320A3
:1049BC0048E6032013B504460846019107F0D3F8E6
:1049CC0001990246204602B0BDE8104006F0AAB993
:1049DC0030B585B004460D460022C11D684603F073
:1049EC0037FA029A0099284606F09CF906F0E0F88E
:1049FC00684602F0FFFEE37CFF2B06D023492846D5
:104A0C00FFF7D8FFE17C06F0F7F821492846FFF7BD
:104A1C00D1FF94F91F1006F0EFF8E28A4FF6FF73FE
:104A2C009A4206D01B492846FFF7C4FFE18A06F0DC
:104A3C00E3F894F82030BBB117492846FFF7BAFFCA
:104A4C0094F91C1006F0D8F814492846FFF7B2FF69
:104A5C0094F91D1006F0D0F811492846FFF7AAFF6B
:104A6C0094F91E1006F0C8F80E492846FFF7A2FF6D
:104A7C00B4F91010A37C91FBF3F149B206F0BCF829
:104A8C00284605B0BDE8304006F07CB898C00B0055
:104A9C0000BD0B0005BD0B000CBD0B0013BD0B00C6
:104AAC001ABD0B0021BD0B000EB400B58CB00DAAC5
:104ABC004FF0200C52F8041B0392CDE90012002396
:104ACC00016804AA1E20CDE904C302F0BBFC0CB0A3
:104ADC005DF804EB03B070472DE9F04F0C46A3B022
:104AEC000546FFF7DEFA2146E81D03F024F91F23E3
:104AFC0001AA162104F1080003F02FFBC6B2032E05
:104B0C004FD99DF804306A2B4BD19DF80530FE2B04
:104B1C0047D19DF80640032C43D1621C22A95FFAB1
:104B2C0082F951FA82F2A31C12F8842C052ADBB20A
:104B3C006DD01DD8012A29D0022A35D022AB1C44B5
:104B4C0009AF01AB14F8844C03EB090A4FF00008D1
:104B5C00BB465FFA88F39C4263D938461AF8013B8E
:104B6C00364A642102F072FD08F101080237F0E7C1
:104B7C000D2AE3D122AA1344043413F8832C13F81E
:104B8C00843C03EB0223EB82E4B208E0A31D22AACF
:104B9C0052FA83F3073413F8843CEB74E4B2B44256
:104BAC00BBD323B0BDE8F08F22AA134413F8843C86
:104BBC002B75E31C52FA83F313F8843C2B77231DDB
:104BCC0052FA83F313F8843C6B77631D52FA83F328
:104BDC0013F8843CAB77A31D52FA83F313F8832CA0
:104BEC0013F8843C03EB02232B8322AA04F1080361
:104BFC0052FA83F30A3413F8832C13F8843C03EB36
:104C0C0002236B830123E4B285F82030C7E7E31C51
:104C1C0022AA52FA83F3043413F8843CEB77E4B2FF
:104C2C00BDE722AB03EB4403002203F8642C0449D8
:104C3C0004485A46FFF738FF4C44A5E7D0BF0B0099
:104C4C0072BE0B00E8E6032030B500F1080589B010
:104C5C001621284603F0E3FA044688B11F236A465E
:104C6C001621284603F079FAC0B2032807D99DF81B
:104C7C0000306A2B03D19DF80130FE2B00D00024AC
:104C8C00204609B030BD000038B5114B8A8803604E
:104C9C000D468B798280044683710731073003F00F
:104CAC0045F82B8A2382AB7CA3740A4BEA8A2360D7
:104CBC00EB7CE374E2822B7DAA692375A26195F8E3
:104CCC002030EA69E26184F82030204638BD00BF0C
:104CDC00F8BC0B0030BD0B008842F8B504460D46FD
:104CEC00164611D9904210D2A2F12406751AA1F1E0
:104CFC0024072C44B74212D01CB131462046FFF792
:104D0C00C3FF243E243CF5E709D0B54207D01CB1C3
:104D1C0029462046FFF7B8FF24352434F5E7F8BDC3
:104D2C002DE9F041424C9CB0064600274FF0240878
:104D3C006368FDB29D420DDA216808FB051107314D
:104D4C0013A802F0F3FF314613A803F006F801375D
:104D5C000028EDD063689D425DD1364B0193012351
:104D6C008DF809300DF10B0002238DF80A3003F099
:104D7C0008F8314B0193FF238DF823304FF07F431C
:104D8C0005934FF6FF733146ADF81A3000254FF0FE
:104D9C00FF3301A807938DF82450FFF79DFE01A95E
:104DAC000AA88DF80850FFF76FFF0AA913A86668C8
:104DBC00FFF76AFFD4E901739F4215DB0137AF425D
:104DCC000DDD4FF0240808FB07F002F01FFC054630
:104DDC00F0B1D4E9001208FB0212FFF77DFF206846
:104DEC0002F01CFC2560A76023686168242202FB8A
:104DFC00063606F1240002FB01323146FFF76CFF48
:104E0C001EB113A93046FFF73FFF6368013363609F
:104E1C001CB0BDE8F08124235D4323685C19002796
:104E2C0067715B5931465B68204698472771EFE7FD
:104E3C007CE60320F8BC0B0030BD0B00024B0022BB
:104E4C00C3E900229A6070477CE60320704700207B
:104E5C00704710B510210446FFF719F9204610BD14
:104E6C0008B5FFF7F6FF08BD13B5044608460191D7
:104E7C0006F079FE01990246204602B0BDE81040CA
:104E8C0005F060BF10B58368044613B103220146D8
:104E9C009847204610BD10B54368013B044643605B
:104EAC0063B903689B689847A368013BA3602BB95F
:104EBC0023682046DB68BDE81040184710BD08B5D4
:104ECC00002002F03BF94FF47A72002306F0F8FB55
:104EDC0008BD10B50446006802F0A0FB204610BDCA
:104EEC0038B5C468F4B12378022B03D104F10C005B
:104EFC00FFF7EFFF656835B12846FFF7C3FF1021B8
:104F0C002846FFF7C4F8A56835B12846FFF7BAFF65
:104F1C0010212846FFF7BBF820461421BDE8384085
:104F2C00FFF7B5B838BD000030B585B00C46054666
:104F3C00C11D0022684602F08BFF029A00992046A0
:104F4C0005F0F0FE05F034FE684602F053FC1849FB
:104F5C002046FFF72FFDE97F81F0010105F034FEBB
:104F6C0014492046FFF726FDB5F9181005F044FE4C
:104F7C0011492046FFF71EFD698B05F03DFE0F49D8
:104F8C002046FFF717FDA98B05F036FE0C4920468D
:104F9C00FFF710FDB5F91010AB7C91FBF3F149B2A2
:104FAC0005F02AFE204605B0BDE8304005F0EABD0C
:104FBC0038BD0B0000BD0B0044BD0B0098C00B00AE
:104FCC0021BD0B000EB400B58CB00DAA4FF0200C17
:104FDC0052F8041B0392CDE900120023016804AAC5
:104FEC000120CDE904C302F02DFA0CB05DF804EBFE
:104FFC0003B070472DE9F041DFF8488000AF0C4654
:10500C0006460A4640460E491D46FFF7DBFF04F1F3
:10501C00080323F00703ADEB030D22463146684627
:10502C0006F014FD0023694640460DF80430FFF7E6
:10503C00C9FF042385F83030BD46BDE8F08100BFC0
:10504C004BBD0B00E8E603201FB5092201A908306F
:10505C0003F075F8082829D99DF80430022B25D1C6
:10506C009DF80530012B21D19DF80630062B1DD162
:10507C009DF807301B2B01D0262B17D19DF808303B
:10508C00FF2B13D19DF80930772B0FD19DF80B30E6
:10509C00013B012B0AD89DF80A209DF80C301343D4
:1050AC000CBF0120002005B05DF804FB0020FAE7DE
:1050BC000022C0E90022C0E90222C0E904224FF01C
:1050CC00FF32C0E90622026280F824204FF40072FD
:1050DC00C284044A034610689288D8621A8618461D
:1050EC00704700BF20BF0B0010B50446006808B124
:1050FC00FFF7D1FE204610BD0B68036013B15A6850
:10510C0001325A60704710B50446006802F086FA06
:10511C00204610BD38B505460D4B45F84C3B0446B2
:10512C005830FFF7F0FF2846FFF7EDFF04F144007D
:10513C0003F060FB04F13C0003F05CFB04F1340071
:10514C0003F05FFB04F12400FFF7DDFF204638BDC0
:10515C0030BF0B0010B5044B044640F8083BFFF77A
:10516C00D2FF204610BD00BFF4BE0B0010B50446A4
:10517C00FFF7F0FF20461421FEF789FF204610BDF3
:10518C0073B50E46044656F8043B00930D4601A831
:10519C003146FFF7B1FF019A009B6260236001A8C2
:1051AC00002301930093FFF79FFF3046FFF79CFF0E
:1051BC0028460821FEF76BFF204602B070BD38B5BB
:1051CC000D1E0446006803DD02F030FA18B938BD34
:1051DC0002F024FA00202060A5600120F7E738B522
:1051EC000023C0E9003383600D46496899420446A8
:1051FC0010DDFFF7E4FF68B1D5E9003122681944EE
:10520C00994205D00AB11878107001330132F7E7D2
:10521C006B686360204638BD38B5304B8A880360B4
:10522C000D468B798280044683710731073002F07A
:10523C007DFD2B8A2382AB7CA3746A696261284B47
:10524C00AA692360A26195F82030EA69E26184F8CA
:10525C00203005F1240104F12400FFF7C0FF2B8E50
:10526C0023866B6B636305F1380104F13800FFF79B
:10527C0043FF05F13C0104F13C0003F099FA05F100
:10528C00440104F1440003F093FA05F14C0104F1DC
:10529C004C00FFF7A4FF05F1580104F15800FFF78B
:1052AC009EFFD5E91923C4E91923EB6EE3662B6F36
:1052BC002367D5E91E016B6F6367D5F87E30C4F8A0
:1052CC007E30B5F88230A067A4F87C10A4F8823048
:1052DC00B5F88430A4F88430204638BDF8BC0B00F7
:1052EC0030BF0B00F8B5D0E901539D4204460E4681
:1052FC000CDA276862687919521B481C06F0B4FB5B
:10530C007E556368013363600120F8BD691CFFF7AB
:10531C0056FF0028EDD1F8E7F0B50D4685B00446F0
:10532C000846164605F044FC52492846FFF742FB56
:10533C005149FFF799FD51492846FFF73BFB50496E
:10534C00FFF792FD4F492846FFF734FB05F030FC80
:10535C00636833B14C492846FFF72CFB2168FFF7F3
:10536C0083FD4A4FA369BB4206D849492846FFF73B
:10537C0021FBA16905F052FCE369BB4206D8454903
:10538C002846FFF717FBE16905F048FC94F8263036
:10539C00DB0707D540492846FFF70CFB94F928108A
:1053AC0005F02AFC94F826309F0707D53B49284680
:1053BC00FFF700FB94F9291005F01EFC94F8263039
:1053CC00580707D536492846FFF7F4FA94F92A10FE
:1053DC0005F012FC94F82630190707D531492846F8
:1053EC00FFF7E8FA94F92B1005F006FC94F8263038
:1053FC00DA0607D52C492846FFF7DCFA94F8251075
:10540C0005F00CFC94F826305B0608D52749284695
:10541C00FFF7D0FA062204F1320105F093FC94F860
:10542C002730012B07D822492846FFF7C3FA94F8F6
:10543C00271005F0E1FB284605F0A4FB1D49284682
:10544C00FFF7B8FA3188013189B2318005F0D4FB0D
:10545C00284605F097FB05F1080101A8FFF7BFFEF0
:10546C00002101A8FFF73EFF01A8FFF74CFE05B095
:10547C00F0BD00BF5DBD0B0065BD0B0069BD0B0031
:10548C0070BD0B0074BD0B007BBD0B008051010087
:10549C0086BD0B009FBD0B00B4BD0B00D3BD0B0034
:1054AC00F2BD0B0010BE0B002EBE0B004DBE0B0050
:1054BC0055BE0B007FBF0B002DE9F0414768836898
:1054CC008846B91899420446154612DC266862686B
:1054DC003E44D21B3146701906F0C6FA2A464146A4
:1054EC00304606F0B3FA62682A4462600120BDE8D7
:1054FC00F081FFF764FE0028E8D1F8E72DE9F047CA
:10550C0089468CB0044609F1080AFEF7CAFD4946E3
:10551C00E01D02F010FC252302AAFF21504602F0E8
:10552C001CFEC3B2192B40F28180BDF80E609DF8B1
:10553C001650E77FB4F81A80F20BE277BDF817200B
:10554C0062836A1E0F2A0CD8DFE802F008730B087E
:10555C000808080808080B7A7A0B0B7ABDF81D208E
:10556C002283252B70D19DF80A20022A21D102AA70
:10557C000921504602F0F1FD10F0FF0219D0616ACA
:10558C00019202A806F052FA019A90B14FF0000A6B
:10559C0004F1240902A9C4F828A04846FFF78CFF9F
:1055AC0051464846FFF79EFE626A32493248FFF781
:1055BC0009FD324B1B682BB1628B424502D0294648
:1055CC00204698472E4D2B68002B2FD0310602D544
:1055DC00102120469847F20503D52B68042120465C
:1055EC009847B30503D52B680521204698477005CD
:1055FC0003D52B68072120469847310503D52B6826
:10560C00082120469847F20403D52B680A2120462E
:10561C009847730403D52B68032120469847E37FF2
:10562C00BB4203D02B680221204698470CB0BDE842
:10563C00F0879DF81D20501E42424241A27790E710
:10564C00BDF81D20A2838CE71A2BB2D19DF80A302D
:10565C00012BAED109F1140902AA252309214846D0
:10566C0002F07BFD10F0FF0289D1252302AA08214C
:10567C0048467FE761BE0B00E8E6032090E6032076
:10568C008CE6032008B50830FFF716FF08BD13B5EC
:10569C000B460246D0E900016C4684E8030093E80F
:1056AC00030082E8030094E8030083E8030002B0DF
:1056BC0010BD8842F8B504460D46164614D99042E2
:1056CC0013D2A2F18806751AA1F188072C44B742AF
:1056DC0018D01CB131462046FFF79EFD3046FFF72F
:1056EC0019FD883E883CF2E70CD0B5420AD01CB1BB
:1056FC0029462046FFF790FD2846FFF70BFD88351D
:10570C008834F2E7F8BD00002DE9F0414B4CE6B0CF
:10571C00064600274FF088086368FDB29D420DDAFB
:10572C00216808FB0511073144A802F0FFFA314645
:10573C0044A802F012FB01370028EDD063689D42AB
:10574C006ED13F4B009301238DF805300DF107000E
:10575C00082300258DF8063002F013FB394B00931B
:10576C000DA8CDE90955ADF810508DF812500B95D8
:10577C00ADF8305002F082FE0FA802F0A3FD11A884
:10578C0002F0A0FD13A8FFF793FC31466846ADF874
:10579C008450FFF7B3FE694622A88DF80450FFF73A
:1057AC003BFD22A944A86668FFF736FDD4E90173D6
:1057BC009F4215DB0137AF420DDD4FF0880808FB27
:1057CC0007F001F023FF0546F0B1D4E9001208FB05
:1057DC000212FFF76EFF206801F020FF2560A76022
:1057EC0023686168882202FB063606F1880002FBFA
:1057FC0001323146FFF75DFF1EB144A93046FFF779
:10580C000BFD63680133636044A8FFF783FC22A897
:10581C00FFF780FC6846FFF77DFC66B0BDE8F081C1
:10582C0088235D4323685C19002767715B593146F7
:10583C005B68204698472771EFE700BF94E603208A
:10584C00F8BC0B0030BF0B00826810B50AB905F02C
:10585C0066FCBDE81040C368184708B5006800F145
:10586C001001FFF7F1FF08BD826810B50AB905F009
:10587C0056FCBDE81040C368184708B5006800F135
:10588C001001FFF7F1FF08BD38B5002383608B686A
:10589C0004460D462BB102229847EB68E360AB68D7
:1058AC00A360204638BD0000F0B589B08B880A682B
:1058BC000468ADF8043000204FF69C7300928B8086
:1058CC0008604FF00202D4E84F1F814203D1C4E8B4
:1058DC00452F002DF7D127D1BDF80420ADF80430A9
:1058EC00009BE360228200900123BFF35B8F637007
:1058FC0004F10803BFF35B8F53E8006F43E8000229
:10590C00002AF9D1BFF35B8F76B101F0BBFD80B1FA
:10591C0004F10C013046FFF797FF3046FFF7B2FA5F
:10592C0010213046FEF7B3FB6846FFF7D2FA09B0F8
:10593C00F0BD314602A8FFF7A7FFE068B4F910509C
:10594C0008B106F0F3F806901020ADF81C50FEF7E5
:10595C009AFB054610B3002787601820FEF793FBCF
:10596C000446B0B18760014602A8FFF790FE049B85
:10597C00A268A360059B0492E268E360BDF81C304A
:10598C00A3824FF69C73ADF81C30069B05922361E5
:10599C000697084BEB60084B2C60AB6006A8FFF732
:1059AC0098FA02A8FFF76EFA00222946034801F084
:1059BC0071FDB2E767580B00CD590B0001A90B0024
:1059CC00012AF8B5054603D10B6803600020F8BD29
:1059DC00022A10D0032AF9D10468002CF6D004F165
:1059EC001000FFF776FA2046FFF74CFA18212046F4
:1059FC00FEF74DFBEAE718200E68FEF744FB044661
:105A0C0050B13146FFF740FF3069B6F9147008B158
:105A1C0006F08CF82061A7822C60D7E738B50023FC
:105A2C0083608B6804460D462BB102229847EB68C5
:105A3C00E360AB68A360204638BD012A70B504460C
:105A4C0003D10B680360002070BD022A0CD0032A1E
:105A5C00F9D10468002CF6D02046FFF713FA142174
:105A6C002046FEF714FBEEE714200E68FEF70BFB46
:105A7C00054620B13146FFF7D1FF337C2B742560EE
:105A8C00E1E70000F0B5046887B00123D4E84F2F9C
:105A9C00002A03D1C4E8403F0028F7D154D1217328
:105AAC00BFF35B8F00206370231DBFF35B8F53E844
:105ABC00006F43E80002002AF9D1BFF35B8F002E80
:105ACC0042D001F0DFFC074670B104F10C01304606
:105ADC00FFF7CAFE3046FFF7D5F91021304607B064
:105AEC00BDE8F040FEF7D3BA314601A8FFF796FFA8
:105AFC00237B8DF814301020FEF7C5FA0546D0B183
:105B0C0087601420FEF7BFFA044678B1876001461F
:105B1C0001A8FFF7BCFD039BA268A360049B039242
:105B2C00E268E3609DF8143004922374074BEB6039
:105B3C00074B2C60AB6001A8FFF7A4F900222946A3
:105B4C00044801F0A7FCC5E707B0F0BD87580B006F
:105B5C00475A0B0001A90B002DE9F0439D4D89B06C
:105B6C002B78BFF35B8FDB0700AF04460AD42846C3
:105B7C00FEF78FFA30B1FFF7A2F9974B1860284661
:105B8C00FEF78CFA94F8302094F831309A420ED00B
:105B9C0094F8303084F83130013B052B46D8DFE8DF
:105BAC0013F010003B004A00EF00E5001101FFF775
:105BBC0086F9894B1B689842EAD12437BD46BDE86B
:105BCC00F08302F00BFDE11D0546384602F0AEF8FD
:105BDC00002329463A4607F10C0004F007F8FB684D
:105BEC003D696363A36B9D4204F1340608D015B183
:105BFC006B6801336B60A06B08B1FFF74CF9A563C0
:105C0C0007F10C0002F0FDFD304602F059FC68B1C2
:105C1C00022384F8303009E002F0E0FC04F1340196
:105C2C0002F051FD6D496E48FFF7CCF9FFF747F9CB
:105C3C00694B1860C1E704F13409494607F10C00BF
:105C4C0003F026FDD7E90353E84605EBC306AE4245
:105C5C0004D0281DFFF748FA0835F8E7F86801F07A
:105C6C00DDFC494607F10C0003F0FEFED7E90353B7
:105C7C0005EBC306AE4204D0284602F0BBFD083546
:105C8C00F8E7F86801F0CAFC04F14406554907F13D
:105C9C000C0002F0C7F907F10C023146484603F03C
:105CAC0039FC04F13C05504907F10C0002F0BAF93B
:105CBC00294607F10C02484603F02CFC22462846E4
:105CCC004A4903F051FC0121284602F081FB0025D2
:105CDC00474BFB6004F1840207F10C0104F14C000A
:105CEC00C7E905553D74FD61FFF716FBBB6907332A
:105CFC0023F00703ADEB030DE946BB699D420DD2C2
:105D0C0007F114013846FFF76AFA3B685B5D09F846
:105D1C0005303846FFF7F7F90135EEE74A463549C5
:105D2C002F48FFF74FF907F114013846FFF757FAE0
:105D3C000123BA693968304602F0EAFA2E49024664
:105D4C002748FFF73FF93846FFF7DDF994F8303074
:105D5C00032B05D1052384F83030284B00221A7010
:105D6C0007F10C00FFF7F6F9C5465FE7234A1378F5
:105D7C000133DBB2142B13707FF658AF042348E7C2
:105D8C0061693846FFF7FCF91C4B1B78142B14D9AE
:105D9C000023FB6038464FF6607307F10C013B8221
:105DAC00FFF782FD07F10C00FFF793F8062384F848
:105DBC003030381DFFF798F938E701213846FFF7E6
:105DCC0061FEF3E7002384F8303004F1340003F073
:105DDC0093F92BE788E60320A0E6032075BE0B00A1
:105DEC00E8E603207DBE0B00A2BE0B0001500B00A9
:105DFC00F4BE0B00C7BE0B00D6BE0B00A4E60320FE
:105E0C00024B0022C3E900229A60704794E60320FB
:105E1C0030B5044699B00D46FEF743F92946E01D0E
:105E2C0001F089FF10A91F2205F1080002F0E6F924
:105E3C009DF853300E939DF852300D939DF85130D0
:105E4C000C939DF850300B939DF84F300A939DF8AE
:105E5C004E3009939DF84D3008939DF84C300793C4
:105E6C009DF84B3006939DF84A3005939DF84930C8
:105E7C0004939DF8483003939DF8473002939DF8A6
:105E8C00463001939DF8453000930E4A9DF84430FE
:105E9C00252104F1130001F0D9FB9DF854209DF845
:105EAC00553003EB022323879DF856209DF857307D
:105EBC0003EB022363879DF8583084F83C3019B00B
:105ECC0030BD00BF38BF0B0070B586B00C46054620
:105EDC00C11D002202A801F0BBFF049A02992046C2
:105EEC0004F020FF04F064FE02A801F083FC1C49BE
:105EFC002046FEF75FFD05F11301064608460191A9
:105F0C0005F031FE01990246304604F01BFF15499D
:105F1C002046FEF74FFD298F04F06EFE12492046F5
:105F2C00FEF748FD698F04F067FE10492046FEF726
:105F3C0041FD95F93C1004F05FFE0D492046FEF73B
:105F4C0039FDB5F91010AB7C91FBF3F149B204F0BB
:105F5C0053FE204606B0BDE8704004F013BE00BFEF
:105F6C007DBF0B0082BF0B0088BF0B008EBF0B00E8
:105F7C0021BD0B0000B589B01F226946083002F024
:105F8C003DF9192813D19DF800304C2B0FD19DF8F9
:105F9C00010060B99DF80230022B05D19DF8030079
:105FAC00A0F115035842584109B05DF804FB0020DC
:105FBC00FAE7000038B5144B8A8803600D468B79DC
:105FCC008280044683710731073001F0AFFE2B8AC3
:105FDC002382AB7CA37423460C4A43F8132B05F1A4
:105FEC00370105F1130252F8040B43F8040B8A42F3
:105FFC00F9D112781A7095F93C30AA6BA26384F827
:10600C003C30204638BD00BFF8BC0B009CBF0B00D9
:10601C008842F8B504460D46164611D9904210D266
:10602C00A2F14006751AA1F140072C44B74212D0D8
:10603C001CB131462046FFF7BDFF403E403CF5E722
:10604C0009D0B54207D01CB129462046FFF7B2FF54
:10605C0040354034F5E7F8BDF0B5394CB1B00646E3
:10606C0000276368FDB29D420DDA216801EB8511B2
:10607C00073120A801F05AFE314620A801F06DFE30
:10608C0001370028EDD063689D424CD12D4B009315
:10609C000DF10700012300258DF805308DF8063031
:1060AC0001F06FFE284B009331466846ADF8105056
:1060BC008DF81250FFF7ACFE694610A88DF804500D
:1060CC00FFF778FF10A920A86668FFF773FFD4E9E3
:1060DC0001739F4212DB0137AF420ADDB80101F0B8
:1060EC0095FA0546E8B1D4E9001201EB8212FFF7EC
:1060FC008FFF206801F092FA2560A7602368626820
:10610C0003EB861603EB8212314606F14000FFF7D3
:10611C007FFF1EB120A93046FFF74CFF63680133A7
:10612C00636031B0F0BD2368AA0103EB8515002430
:10613C006C719B5831465B68284698472C71F0E788
:10614C00A8E60320F8BC0B009CBF0B00024B0022FE
:10615C00C3E900229A607047A8E6032010B501231A
:10616C0003748368044643B1C06898470123637481
:10617C000020BDE8104001F0CDB800680028F5D033
:10618C0083680BB904F0CBFFC368EEE710B50021B0
:10619C000446084601F09EF8204610BD10B50021BB
:1061AC000446012001F096F8204610BD2DE9F3417C
:1061BC0004460E4614201D4990461F4604F012FE5C
:1061CC0030B10025C0E90055C0E90255057445748D
:1061DC00206098B1099B9DF82020C0E902873146C8
:1061EC00CDE90003124B043001F064F830B9236898
:1061FC001B7CBBB9012000F081FFF8E72668002367
:10620C0023607EB135684DB1AB681BB103222946C2
:10621C002846984710212846FDF739FF14213046AF
:10622C00FDF735FF204602B0BDE8F081B1C40B008C
:10623C0069610B001FB51023ADF8023002F0CEF9E6
:10624C00694602F03CFA9DF80C30012B05D0043B5A
:10625C00012B84BF01238DF80C305023ADF8043092
:10626C002823ADF806300F23ADF808300123ADF824
:10627C000A3002F0B3F9694602F01DFA05B05DF878
:10628C0004FB10B50446406901F0C8F9A06801F0A0
:10629C00C5F9204610BD000073B5C66C81600123A2
:1062AC00044683717EB90420FDF7EDFE054648B126
:1062BC0002234FF44062CDE900320449044A3346CC
:1062CC00FFF774FFE56402B070BD00BFA4BF0B0004
:1062DC0025660B0070B504460020C4E90000A060E0
:1062EC004E6886420D4611DD314601F09FF968B1CA
:1062FC002060A660D5E900321A449A4204D013F803
:10630C00011B00F8011BF8E76B686360204670BD49
:10631C0070B5D0E900450E4604EBC505A54206D084
:10632C003146204601F019FD10B90834F6E7002477
:10633C00201E18BF012070BD70B5D0E90053242673
:10634C00044606FB0356AE4204D02846FFF799FFDD
:10635C002435F8E7206801F061F9204670BD38B5A6
:10636C0004460D4601F0E2FC05F1080104F10800B9
:10637C00FFF7B0FF05F1140104F11400FFF7AAFFB9
:10638C0095F8203084F82030204638BD38B5094BBC
:10639C008A8803600D468B798280044683710731AD
:1063AC00073001F0C3FC2B8A2382AB7CA3742046FC
:1063BC0038BD00BFF8BC0B00F8B507460C463D468F
:1063CC00FFF7E4FF04F11406134B45F8143B0FCE12
:1063DC000FC596E8030045F8040B04F12A03298045
:1063EC0007F12A0204F1420153F8040B42F8040BA2
:1063FC008B42F9D11B88138004F144030FCB07F1B6
:10640C004405543485E80F0094E80F0007F1540557
:10641C0007C52B803846F8BDBCC00B008842F8B5C8
:10642C0004460D46164611D9904210D2A2F16406CC
:10643C00751AA1F164072C44B74212D01CB1314635
:10644C002046FFF7B9FF643E643CF5E709D0B5423E
:10645C0007D01CB129462046FFF7AEFF64356434E3
:10646C00F5E7F8BD8842F8B504460D46164614D932
:10647C00904213D2A2F12406751AA1F124072C44E0
:10648C00B74218D01CB131462046FFF768FF3046A2
:10649C00FFF7F7FE243E243CF2E70CD0B5420AD0BD
:1064AC001CB129462046FFF75AFF2846FFF7E9FEA4
:1064BC0024352434F2E7F8BD2DE9F04104468AB0C6
:1064CC000D46242700F11C086B68002B61D02E6848
:1064DC0001A83146FFF743FF3046FFF7D2FED5E95E
:1064EC000032304607FB023206F12401FFF7BAFFF7
:1064FC006B68013B6B60A368D80710D501A8FFF748
:10650C0039FD60B101A904F12800FFF701FF30B992
:10651C0001A8FFF7A1FD01A8FFF7B3FED4E7A3681C
:10652C00990710D4A3685A071CD501A800F00EFADD
:10653C00C0B101A904F13400FFF7EAFE90B901A83B
:10654C0000F02EFDE7E701A8FEF77EFB0028E9D05E
:10655C0001A94046FFF7DCFE0028E3D101A8FEF7B5
:10656C00DFFBD8E7A3681B070DD501A8FEF76CFD70
:10657C0048B101A904F14000FFF7CAFE18B901A8FF
:10658C00FFF7C2F8C7E7636D002BC4D001A898478A
:10659C00C1E70AB0BDE8F0812DE9F0410023C0E964
:1065AC00003383604E689E4204460F4631DD4FF047
:1065BC00240808FB06F001F029F8054648B3D4E995
:1065CC00001208FB0212FFF74DFF206801F026F8BD
:1065DC002560A660D7E9006308FB0368B04516D0B8
:1065EC003146284601F0A2FB06F1080105F108002E
:1065FC00FFF770FE06F1140105F11400FFF76AFEB7
:10660C0096F9203085F8203024362435E6E77B686F
:10661C0063602046BDE8F081F0B51A4C87B04FF4AA
:10662C007A7623689B7913B900F04CFEF9E7FFF7F3
:10663C0001FE00F073FD054623689B79EBB100F079
:10664C006DFD23685B7B401B7343984215D201F0B0
:10665C00C5FF0146684603F0E7FB2768694603A8B7
:10666C00FFF79AFF03A93846FFF726FF03A8FFF7A9
:10667C0063FE6846FFF760FEDEE723680122DA71ED
:10668C00D2E700BFB4E603202DE9F74FDFF8AC9258
:10669C00D9E90053044605EB83160027AE4209D016
:1066AC00236D2BB16A791AB10121284698476F7175
:1066BC004035F3E7DFF88882D8E90053642606FBFF
:1066CC0003560027AE4209D0236D2BB16A791AB15B
:1066DC000121284698476F716435F3E7954FD7E948
:1066EC000053242606FB03564FF0000AAE420AD094
:1066FC00236D33B16A7922B101212846984785F878
:10670C0005A02435F2E78C4ED6E900534FF0880AE9
:10671C000AFB035A4FF0000B55450DD0236D33B1D6
:10672C006A7922B101212846984785F805B0284698
:10673C00FFF712FA8835EFE7E379002B00F0DD80E4
:10674C00D9E900534FF0FF0B05EB831AAA4510D083
:10675C0095F90430227B934208DB236D13B102219F
:10676C002846984785F804B04035EFE701332B7184
:10677C00FAE701A8FFF70AFD0025D9F80420954295
:10678C001ADB01A8FFF70AFDD8E900534FF06409A2
:10679C0009FB03594FF0FF0AA94526D095F904309F
:1067AC00227B93421EDB236D13B1022128469847AE
:1067BC0085F804A06435EFE7D9F8003003EB8510B9
:1067CC0090F9041000290BDA03EB821200F140015E
:1067DC00FFF71EFCD9F80430013BC9F80430013D29
:1067EC000135CAE701332B71E4E701A8FFF7CEFCB2
:1067FC0000254FF06409D8F8042095421ADB01A853
:10680C00FFF7CCFCD7E900534FF0240808FB0358E2
:10681C004FF0FF09A84526D095F90430227B93420E
:10682C001EDB236D13B102212846984785F804908E
:10683C002435EFE7D8F8003009FB053090F9041047
:10684C0000290BDA09FB023200F16401FFF7E6FDC7
:10685C00D8F80430013BC8F80430013D0135CAE7D3
:10686C0001332B71E4E701A8FFF790FC00254FF0F2
:10687C0024087A6895421CDB01A8FFF78FFCD6E947
:10688C000057882303FB07574FF0FF08AF4226D071
:10689C0095F8302095F90430F2B9227B93421BDB3A
:1068AC00236D13B102212846984785F8048088355A
:1068BC00ECE73B6808FB053090F90410002909DA75
:1068CC0008FB023200F12401FEF706FA7B68013B5B
:1068DC007B60013D0135CCE701332B71E7E701A863
:1068EC00FFF754FC00274FF0880873689F4207DBC2
:1068FC0001A8FFF753FC0023E37103B0BDE8F08F50
:10690C00356808FB075595F90430002B0FDA28463B
:10691C00FEF700FCD6E9003205F1880108FB0232D3
:10692C002846FEF7C6FE7368013B7360013F0137D2
:10693C00DBE700BF7CE6032094E60320A8E60320F7
:10694C00B8E603208A68096804F0FCB930B500F198
:10695C00080589B01621284601F061FC044688B16F
:10696C001F236A461621284601F0F7FBC0B2032804
:10697C0007D99DF80030AA2B03D19DF80130FE2BCE
:10698C0000D00024204609B030BD01230370CB7821
:10699C0043714B68C0F806308B68C0F80A308B899D
:1069AC00C381D1F80E3003614B8A838243881A4429
:1069BC000379428001330371704738B515460122C3
:1069CC000270CA7842710A798271053B0446DAB2C8
:1069DC0002760531073005F039F8628823791544C1
:1069EC0001336580237138BDCB78F3B90123037073
:1069FC000A794B7903EB02234380CB8883804B7A53
:106A0C000A7A1B0403EB02638A7A03EB0223CA7A29
:106A1C00134483604B7B0A7B1B0403EB02638A7B6E
:106A2C0003EB0223CA7B1344C3607047012303703A
:106A3C0070B50C79E3073AD5062A37D9B1F8053089
:106A4C005BBA43800723A60709D55D1CEDB29542BE
:106A5C002CD2CE5C06714D5D45710233DBB26507FD
:106A6C0005D55D1CEDB2954220D20233DBB2240772
:106A7C001CD55C1DE4B2944218D201229D18EDB2D3
:106A8C000273CE5C4A5D42EA0622C280DD1C9A1C6F
:106A9C00D2B2EDB28E5C4A5D043342EA0622DBB21E
:106AAC000281CA5C0B5D43EA0223438170BD05235E
:106ABC00C9E7000030B50D4689B00446073001F037
:106ACC003AF91F236A46162105F1080001F045FB2F
:106ADC00C3B2022B28D99DF80020AA2A24D19DF8F4
:106AEC000120FE2A20D19DF80220202A28D007D888
:106AFC008AB1102A1AD016491648FDF7D5FF13E0B3
:106B0C00212AF8D1042B0FD91A46694604F15400F6
:106B1C00FFF78CFF08E0132B06D995F92020694666
:106B2C0004F11400FFF731FF09B030BD052BFBD980
:106B3C0095F92020694604F12A00FFF73EFFF3E7A0
:106B4C00102BF1D1694604F14400FFF74DFFEBE740
:106B5C00B0BF0B00E8E603202DE9F0478B798EB02F
:106B6C0006460D46032B26D8DFE803F0021F272D1F
:106B7C003A4901A804F0D2FF0B24DFF82081DFF89A
:106B8C002091DFF820A100272A7EFBB29A425BD924
:106B9C002B44DA790D2A50D8DFE802F01B27292B79
:106BAC002D36383A434547494B4D2D4901A804F041
:106BBC00B5FF0C24E1E70024DFE72A4901A804F023
:106BCC00ADFF0724D9E7284901A804F0A7FF082442
:106BDC00D3E7264A01AB1819C4F1320100F036FD97
:106BEC00631DDBB201371C46CEE7214AF2E7214A8E
:106BFC00F0E7214AEEE701AB1819204AC4F1320143
:106C0C0000F024FDA31DECE71D4AE3E71D4AE1E774
:106C1C001D4A01AB1819C4F1320100F017FD231DF8
:106C2C00DFE71A4AF5E71A4AF3E71A4AF1E7524640
:106C3C00D0E74A46EDE74246EBE70EA9631C0C444D
:106C4C00DBB204F8342CCDE73046134901AB2246B5
:106C5C0000F00AFF30460EB0BDE8F087D5BF0B0040
:106C6C00E1BF0B00EEBF0B00F6BF0B00FFBF0B002C
:106C7C0005C00B000BC00B0011C00B0017C00B00A4
:106C8C001EC00B0024C00B002AC00B002FC00B0031
:106C9C0034C00B0039C00B004EC00B0049C00B00B8
:106CAC0044C00B003EC00B0070B58CB004460D46C2
:106CBC000022C11D08A801F0CBF80A9A08992846B1
:106CCC0004F030F803F074FF08A800F093FD237D66
:106CDC00002B62D09F492846FDF76CFE03F068FF3D
:106CEC009D492846FDF766FE94F9191003F084FFC0
:106CFC009A492846FDF75EFE94F82330079394F8E2
:106D0C002230069394F82130059394F820300493A4
:106D1C00E37F0393A37F0293637F0193237FA27E80
:106D2C008F4900930646E37E08A800F09DFE08A953
:106D3C003046FFF707FE08A800F05CFD894928469D
:106D4C00FDF738FE94F82930039394F82830029319
:106D5C0094F82730019394F8263094F82420824933
:106D6C000093064694F8253008A800F07DFE08A98B
:106D7C003046FFF7E7FD08A800F03CFD7B492846AC
:106D8C00FDF718FEB4F91610237E91FBF3F149B20E
:106D9C0003F032FF284603F0F5FE94F82A3073B363
:106DAC0073492846FDF706FE03F002FF704928469A
:106DBC00FDF700FE04F12A01064608A8FFF7CCFEF9
:106DCC0008A93046FFF7BEFD08A800F013FD624984
:106DDC002846FDF7EFFD94F92F1003F00DFF6349E2
:106DEC002846FDF7E7FDB4F92C1094F82E3091FBF2
:106DFC00F3F149B203F000FF284603F0C3FE94F808
:106E0C004430002B4CD05B492846FDF7D3FD03F0F2
:106E1C00CFFE59492846FDF7CDFDB4F846309FED1D
:106E2C00577A07EE903AF8EEE77A0646C7EE877A7D
:106E3C0017EE900A04F0ECFB41EC100B304603F01B
:106E4C00FFFE4F492846FDF7B5FD94F84930DFEDBC
:106E5C004D6A07EE103A94F9483007EE903AB8EEC6
:106E6C00C77AF8EEE77A0646E7EE267A17EE900A2E
:106E7C0004F0CEFB41EC100B304603F0E1FE42492E
:106E8C002846FDF797FDE16C03F0C8FE3F49284604
:106E9C00FDF790FD216D03F0C1FE284603F072FE54
:106EAC0094F85430002B4ED039492846FDF782FD1A
:106EBC0003F07EFE30492846FDF77CFDB4F85610F1
:106ECC0003F09AFE2E492846FDF774FD94F95830CC
:106EDC0094F85920DFED2B6A07EE903A07EE102A52
:106EEC00F8EEE77AB8EEC77A002BC8BFE7EE267A41
:106EFC000646D8BFE7EE667A17EE900A04F088FBD8
:106F0C0041EC100B304603F09BFE94F86030BBB1A3
:106F1C0020492846FDF74EFDB4F95A1003F06CFEDB
:106F2C001D492846FDF746FDB4F95C1003F064FEDC
:106F3C001A492846FDF73EFDB4F95E1003F05CFEDD
:106F4C00284603F01FFE28460CB0BDE8704003F045
:106F5C0019BE00BF7EBF0B008EBF0B0053C00B00D1
:106F6C005DC00B0086C00B0064BF0B0021BD0B0085
:106F7C008FC00B0093C00B0097C00B0000007A442D
:106F8C0000BD0B000000803B9DC00B00A5C00B009A
:106F9C00ADC00B000CBD0B0013BD0B001ABD0B00DC
:106FAC002DE9F041424DCCB0064600274FF0640865
:106FBC006B68FCB29C420DDA296808FB041107319E
:106FCC0033A800F0B3FE314633A800F0C6FE0137FB
:106FDC000028EDD06B689C425CD1364B01930123A9
:106FEC008DF809300DF10B00042300248DF80A30C4
:106FFC0000F0C7FE304B0193314601A8CDE90644A1
:10700C00CDE90B44ADF814408DF816408DF848408E
:10701C008DF858408DF86440FFF74CFD01A91AA873
:10702C008DF80840FFF7C8F91AA933A86E68FFF766
:10703C00C3F9D5E901739F4215DB0137A7420DDD7A
:10704C004FF0640808FB07F000F0E0FA0446F0B1DA
:10705C00D5E9001208FB0212FFF7E0F9286800F0EE
:10706C00DDFA2C60AF602B686968642202FB06367F
:10707C0006F1640002FB01323146FFF7CFF91EB175
:10708C0033A93046FFF798F96B6801336B604CB04D
:10709C00BDE8F08164235C432B681D1900276F71D8
:1070AC001B5931465B68284698472F71EFE700BFA4
:1070BC00B8E60320F8BC0B00BCC00B00024B00224E
:1070CC00C3E900229A607047B8E6032008B5024B6A
:1070DC001B689B68019308BD6802030008B5024B4E
:1070EC001B68DB68019308BD6802030008B5024BFE
:1070FC001B685B68019308BD1802030008B5024BBE
:10710C001B689B68019308BD1802030008B5024B6D
:10711C001B68DB68019308BD1802030008B5024B1D
:10712C001B685B69019308BD1802030008B5024B8C
:10713C001B689B6D019308BD1802030008B5024B38
:10714C001B68DB6D019308BD1802030008B5024BE8
:10715C001B685B6E019308BD1802030008B5024B57
:10716C001B689B68019308BD7802030008B5024BAD
:10717C001B685B6F019308BD7802030008B5024BD6
:10718C001B689B6F019308BD7802030008B5024B86
:10719C001B68DB6F019308BD7802030008B5034B35
:1071AC001B68D3F88430019308BD000078020300FB
:1071BC0008B5034B1B68D3F89830019308BD000049
:1071CC007802030008B5034B1B68D3F8B430019365
:1071DC0008BD00007802030008B5034B1B68D3F808
:1071EC00BC30019308BD00007802030008B5034BC6
:1071FC001B68D3F8C430019308BD0000780203006B
:10720C0008B5034B1B68D3F8D830019308BD0000B8
:10721C007802030008B5034B1B68D3F8DC300193EC
:10722C0008BD00007802030008B5034B1B68D3F8B7
:10723C00E030019308BD00007802030008B5034B51
:10724C001B68D3F8E430019308BD000078020300FA
:10725C0008B5034B1B68D3F8F030019308BD000050
:10726C007802030008B5034B1B68D3F8F430019384
:10727C0008BD00007802030008B5034B1B68D3F867
:10728C000031019308BD00007802030008B5034BE0
:10729C001B68D3F80431019308BD00007802030089
:1072AC0008B5034B1B68D3F80C31019308BD0000E3
:1072BC007802030008B5024B1B685B68019308BD9C
:1072CC004802030008B5024B1B68DB68019308BD3C
:1072DC004802030008B5024B1B68DB69019308BD2B
:1072EC004802030008B5024B1B685B6C019308BD98
:1072FC004802030008B5024B1B68DB6C019308BD08
:10730C004802030008B5024B1B685B6D019308BD76
:10731C004802030008B5024B1B68DB6E019308BDE5
:10732C004802030008B5024B1B685B69019308BD5A
:10733C006402030008B5024B1B68DB68019308BDAF
:10734C003C02030008B5024B1B681B69019308BD86
:10735C003C02030008B5024B1B685B69019308BD36
:10736C003C02030008B5024B1B689B69019308BDE6
:10737C003C02030008B5024B1B68DB69019308BD96
:10738C003C02030008B5024B1B689B6A019308BDC5
:10739C003C02030008B5024B1B681B6C019308BD33
:1073AC003C02030008B5024B1B681B68019308BD27
:1073BC004C02030008B5024B1B685B68019308BDC7
:1073CC004C02030008B5024B1B681B69019308BDF6
:1073DC004C02030008B5024B1B685B69019308BDA6
:1073EC004C02030008B5024B1B689B69019308BD56
:1073FC004C02030008B5024B1B68DB69019308BD06
:10740C004C02030008B5024B1B681B6A019308BDB4
:10741C004C02030008B5024B1B689B6A019308BD24
:10742C004C02030008B5024B1B685B6B019308BD53
:10743C006002030008B5024B1B681B6D019308BD6D
:10744C006002030008B5024B1B685B6D019308BD1D
:10745C006002030008B5024B1B681B68019308BD52
:10746C002002030008B5024B1B685B68019308BD42
:10747C002002030008B5024B1B68DB6A019308BDB0
:10748C002002030008B5024B1B68DB6C019308BD9E
:10749C002002030008B5024B1B685B6D019308BD0D
:1074AC002002030008B5024B1B689B6D019308BDBD
:1074BC002002030008B5034B1B68D3F888300193F6
:1074CC0008BD00002002030008B5034B1B68D3F86D
:1074DC009430019308BD00002002030008B5024B54
:1074EC001B685B68019308BD4002030008B5024BA2
:1074FC001B689B68019308BD4002030008B5024B52
:10750C001B68DB68019308BD4002030008B5024B01
:10751C001B681B69019308BD4002030008B5024BB0
:10752C001B685B69019308BD4002030008B5024B60
:10753C001B689B69019308BD4002030008B5024B10
:10754C001B68DB69019308BD4002030008B5024BC0
:10755C001B681B6A019308BD4002030008B5024B6F
:10756C001B681B6B019308BD4002030008B5024B5E
:10757C001B685B6B019308BD4002030008B5024B0E
:10758C001B681B6C019308BD4002030008B5024B3D
:10759C001B685B6C019308BD4002030008B5024BED
:1075AC001B689B68019308BD4402030008B5024B9D
:1075BC001B68DB68019308BD4402030008B5024B4D
:1075CC001B685B69019308BD4402030008B5024BBC
:1075DC001B68DB69019308BD4402030008B5024B2C
:1075EC001B681B6A019308BD4402030008B5024BDB
:1075FC001B681B6B019308BD4402030008B5024BCA
:10760C001B68DB6B019308BD4402030008B5024BF9
:10761C001B681B68019308BD1C02030008B5024BD4
:10762C001B685B68019308BD1C02030008B5024B84
:10763C001B689B68019308BD1C02030008B5024B34
:10764C001B681B69019308BD1C02030008B5024BA3
:10765C001B68DB69019308BD1C02030008B5024BD3
:10766C001B685B6A019308BD1C02030008B5024B42
:10767C001B68DB6A019308BD1C02030008B5024BB2
:10768C001B681B6B019308BD1C02030008B5024B61
:10769C001B681B6C019308BD1C02030008B5024B50
:1076AC001B685B6C019308BD1C02030008B5024B00
:1076BC001B68DB6C019308BD1C02030000224068B0
:1076CC001146FFF743BF002240681146FFF74EBF3B
:1076DC0040680022FFF742BF4068002281F00101A0
:1076EC00FFF72CBF002340681A461946FFF71EBF50
:1076FC00002340681A461946FFF710BF0022406865
:10770C001146FFF703BF002240681146FFF7EEBE9B
:10771C00406800220221FFF7F1BE002340681A46A0
:10772C00FFF7DCBE024B03225A60024A1A60704714
:10773C00C4E60320CCC00B00054B02221A60054B9B
:10774C00054A9A600020C3E90000FFF78BBE00BF1A
:10775C00D8E60320CCE603200000FFFF10B504465A
:10776C0004F001FA013823182046834206D9027826
:10777C00197800F8011B03F80129F6E710BD70B564
:10778C000C46911E22291DD8254630B9234430229F
:10779C009D4210D205F8012BFAE7B0FBF2F602FB82
:1077AC001600C1B2092894BF30315731C9B205F85F
:1077BC00011B3046E9E7002320462B70FFF7CEFF74
:1077CC00204670BD0020FCE738B5031E0C4615465C
:1077DC000EDAB3F1004F4FF02D0214BF5842184689
:1077EC0001230A702A461944FFF7C9FF204638BD09
:1077FC000123F9E710B504460068FFF70FFF204698
:10780C0010BD10B50446006808B1FFF707FF002350
:10781C00C4E90133236010BD38B504460D46006839
:10782C000131FFF703FF10B1C4E90005012038BD99
:10783C0010B50368044623B143688B4201D3012081
:10784C0010BD2046FFF7E8FF0028F9D0A368002BF5
:10785C00F5D122681370F2E737B50D461146019247
:10786C000446FFF7E5FF019A28B92046FFF7C9FF48
:10787C00204603B030BDA2602946206804F0E6F82B
:10788C002268A3680021D154F2E7002313B5C0E9A4
:10789C00003304468360037341B10846019104F040
:1078AC0062F9019902462046FFF7D6FF204602B046
:1078BC0010BD38B5054600680C4668B16A688B681F
:1078CC009A4207D3096804F029F9A368AB60002336
:1078DC00A36038BDFFF7A2FE23682B6063686B6062
:1078EC00A368AB600023C4E90033F1E710B50023B3
:1078FC00C0E90033044683600373FFF7DAFF2046C8
:10790C0010BD884210B5044605D00B682BB18A68AF
:10791C001946FFF7A1FF204610BDFFF772FFFAE7EB
:10792C0010B500230446C0E9003383600373FFF7EE
:10793C00E8FF204610BD13B5044659B10846019125
:10794C0004F011F9019902462046FFF785FF204605
:10795C0002B010BDFFF755FFF9E770B505460E46AE
:10796C0009B9002070BD6AB1846814442146FFF740
:10797C005FFF0028F5D02868AB683146184404F046
:10798C00CDF8AC600120EDE707B500238DF80410AD
:10799C00012201A98DF80530FFF7DFFF03B05DF878
:1079AC0004FB13B50A22044608466946FFF70CFF90
:1079BC00684604F0D8F8694602462046FFF7CDFF2A
:1079CC0002B010BD10B58A6809680446FFF7C5FF00
:1079DC0010B92046FFF715FF204610BD13B504461D
:1079EC0029B92046FFF70DFF204602B010BD08460E
:1079FC00019104F0B8F8019902462046FFF7ADFF5B
:107A0C000028EED0F0E710B50446FFF7CAFF10B916
:107A1C002046FFF7F6FE204610BD02680B460968AB
:107A2C0062B141B9806860B110787047986840B114
:107A3C00097848427047104604F066B80029F5D121
:107A4C000846704708B582688B689A4205D1FFF7E3
:107A5C00E4FFB0FA80F0400908BD0020FCE708B54F
:107A6C00FFF7DBFFC00F08BD0EB470B587B00BADD0
:107A7C00044655F8042B01922B46052104A80395C6
:107A8C00FFF7ECFD0B4906462046FFF7FEFE31469C
:107A9C002046FFF7CDFE206830B1019A03952B46A6
:107AAC00711CFFF7DBFDA060204607B0BDE87040FD
:107ABC0003B07047C4C50B007047704770477047E0
:107ACC00064B994210B500F10C0405D0084603F0A2
:107ADC0029FB002808BF0024204610BD70C30B00F2
:107AEC00064B994210B500F10C0405D0084603F082
:107AFC0019FB002808BF0024204610BD70C30B00E2
:107B0C00064B994210B500F10C0405D0084603F061
:107B1C0009FB002808BF0024204610BD70C30B00D1
:107B2C0010B568210446FCF7B2FA204610BD10B51A
:107B3C0028210446FCF7ABFA204610BD10B53021C5
:107B4C000446FCF7A4FA204610BD6821FCF79FBA46
:107B5C002821FCF79CBA3021FCF799BAF0B5002526
:107B6C00EC1C8C420DD86E1C445D875D974205D190
:107B7C002644B14205D31D60601CF0BD0134254480
:107B8C00EEE70020F9E70000024A03490A20FFF75C
:107B9C0049BC00BF19710B0000C10B0030B40D467D
:107BAC0011461A46036809682868D3E90043A446BD
:107BBC0030BC6047012A38B5044602D10B682360FB
:107BCC0003E0022A03D0032A0DD0002038BD082080
:107BDC000D68FCF758FA03460028F0D095E803002E
:107BEC0083E80300EBE700680028EED00821FCF7DF
:107BFC004EFAEAE710B5836804462BB1032201461E
:107C0C0098470023C4E9023310BD10B583680446BD
:107C1C002BB10322014698470023C4E9023310BD5F
:107C2C0010B500238AB02022CDE902230446084A6D
:107C3C000092084902AA0120FFF7FCFB20680649C4
:107C4C000088002322460AB0BDE81040FFF7C4BAF2
:107C5C0022C10B0017C10B001D970B0010B501388A
:107C6C0002EB410110F8013F1B0903F13004392CE0
:107C7C0088BF03F1370402F8024B037803F00F03BB
:107C8C0003F13004392C88BF03F13704914202F818
:107C9C00014CE7D110BD10B504465830FDF7F2F891
:107CAC0004F14800BDE81040FFF7A4BD38B50368E7
:107CBC008B4205460C4608D011B14B6801334B6022
:107CCC00286808B1FDF7E7F82C6038BDA0F1300347
:107CDC00DAB2092A01D818467047A0F16103052BC6
:107CEC0001D857387047A0F14103052B94BF3738A2
:107CFC004FF0FF307047000010B500230370044BA9
:107D0C0004461868FFF7F6FA01232370204610BDCD
:107D1C00E0E6032010B5037804461BB1024B18684B
:107D2C00FFF7F0FA204610BDE0E603200A68026077
:107D3C004A68426070470A6802604A68426070474D
:107D4C0082B00346086849686A4603C26A4603CA99
:107D5C0018601846596002B0704708B582798B7963
:107D6C009A4206D1062203F061FEB0FA80F0400977
:107D7C0008BD0020FCE74FF0FF3303608380002038
:107D8C00704708B50246002101604160FFF7F3FF20
:107D9C009171104608BD10B5431D01391C7801F8CE
:107DAC00014F834203F1FF33F8D110BD70B5144677
:107DBC0088B01A460D46002948D0A4B101A9FFF796
:107DCC00EAFF9AB103AA062101A8661EFFF746FF37
:107DDC00112E28BF1126324603A9284603F036FE81
:107DEC000023AB55741C204608B070BD03AA0121BA
:107DFC0001A8FFF733FF3A260DF10F0201210DF117
:107E0C0005008DF80E60FFF729FF0DF1120201211C
:107E1C000DF106008DF81160FFF720FF0DF1150232
:107E2C0001210DF107008DF81460FFF717FF06AA6A
:107E3C00012102A88DF81760FFF710FF8DF81A606A
:107E4C000DF11B0201210DF10900BEE70C46CAE73A
:107E5C0010B586B0044613460846122201A9FFF756
:107E6C00A5FF01A92046FFF710FD204606B010BD66
:107E7C0010B501230361054B024603F1100153F8C1
:107E8C00044B42F8044B8B42F9D110BD7EC30B005E
:107E9C000B7C13F0FD0330B50DD103610C4B024686
:107EAC0003F1100453F8045B42F8045BA342F9D1CC
:107EBC000B88838130BD0123036101F1100203465D
:107ECC0051F8044B43F8044B9142F9D1F2E700BF4F
:107EDC007EC30B0010B50B460446B1B1012A01F16B
:107EEC0010020AD1014653F8040B41F8040B9342DB
:107EFC00F9D101232361204610BD411E12F8010D5A
:107F0C0001F8010F9A42F9D1F3E7102203F0C6FDF4
:107F1C00F1E738B504460D46FFF7AAFF00232361AD
:107F2C00A581204638BD08B502690B699A4206D175
:107F3C00102203F07BFDB0FA80F0400908BD002050
:107F4C00FCE7000001232DE9F3410361344B0C469F
:107F5C000646024603F1100153F8040B42F8040BD9
:107F6C008B42F9D144B32421204603F004FE0428AB
:107F7C004FF0000523D1ADF8045001AFA51C063419
:107F8C0015F8020CFFF7A2FEB0F1000812DB15F891
:107F9C00010CFFF79BFE00280CDB023540EA0810B1
:107FAC00A54207F8010BEBD19DF8053033739DF812
:107FBC00043073730023336102B0BDE8F0814FF0DD
:107FCC0010082421204603F0D6FDA84207D84246CB
:107FDC000021304602B0BDE8F04103F05FBDB8F1BE
:107FEC00000FE9D0605DFFF771FE030615D40001A8
:107FFC0008F1FF38C7B206F808702421204603F0B8
:10800C00BAFD0135A84208D9605DFFF75FFE40B2AA
:10801C000028A4BF384306F808000135D1E700BF9B
:10802C007EC30B0013B504460191FFF721FF2046D8
:10803C000199FFF787FF204602B010BD10B500F183
:10804C000F0301391C7801F8014F834203F1FF3310
:10805C00F8D110BD2DE9F0411F468EB00D46002918
:10806C005BD0DAB1D0F81080541EB8F1000F19D1E2
:10807C008389CDF814805BBA05AA022101A8ADF85A
:10808C000430FFF7EBFD042C28BF0424224605A97D
:10809C00284603F0DBFC05F80480621C10460EB089
:1080AC00BDE8F08101A9FFF7C9FF05AA7FB1102136
:1080BC0001A8FFF7D3FD242C28BF2424224605A9B0
:1080CC00284603F0C3FC00232B55621CE6E7042171
:1080DC000DEB0100FFF7C2FD2D260DF11D02022153
:1080EC0002A88DF81C60FFF7B9FD0DF122020221E8
:1080FC000DF10A008DF82160FFF7B0FD0DF127029C
:10810C00022103A88DF82660FFF7A8FD8DF82B60DF
:10811C000BAA06210DF10E00CBE70A46BEE710B5FF
:10812C008AB004460023252208466946FFF792FFD1
:10813C0069462046FFF7A9FB20460AB010BD10B5D2
:10814C0003464468084631B1944228BF1446196866
:10815C00224603F07BFC204610BDF7B505461646BB
:10816C001F460A4601ABD0E90001FFF7F7FC30F0DF
:10817C0002040CD0841EBC4228BF3C463EB101997F
:10818C002B68023122461944304603F05FFC20462E
:10819C0003B0F0BD37B513460C4601920A460821D0
:1081AC000546FFF7DAFF40B9019B22460921284614
:1081BC0003B0BDE83040FFF7D0BF03B030BD0000C6
:1081CC00F0B50C4689B00C490546FFF75EFB1F2243
:1081DC0069462046FFF7DEFF064650B16C46002785
:1081EC0014F8011B2846FFF7CFFB10B10137BE4234
:1081FC00F6D1284609B0F0BDC4C50B0013460A469B
:10820C00FF21FFF7AABF07B5022301AA1921FFF727
:10821C00A4FF08B1BDF8040003B05DF804FB07B57A
:10822C000A4601ABD0E90001FFF798FC003818BFF3
:10823C00012003B05DF804FB38B54FF6FF73002541
:10824C00044643800E22294605700571063003F062
:10825C0025FC04F11400FFF70BFE04F12800FFF7D6
:10826C0007FE044904F13C00FFF70FFB656520464F
:10827C0038BD00BFC4C50B0038B50D6804460146B7
:10828C0005F12800FFF74FFE40B1AB89A28A9A4254
:10829C0005D8E08A984234BF0020012038BD002068
:1082AC00FCE710B5D0E9063203EBC2029342184644
:1082BC0006D0046824888C4203F10803F6D110BD63
:1082CC000020FCE7002370B5036005466820FBF72F
:1082DC00DAFE041E04F10C0607D00123C4E90133B5
:1082EC00044B23603046FFF7A7FFC5E9006428461E
:1082FC0070BD00BF24C30B0070B50C681434064667
:10830C0005460FCC0FC523682B60304670BD0000AE
:10831C00F0B5064685B01F460D46002950D0002A00
:10832C004ED004682378F42A28BFF42243B323796F
:10833C00980709D5A08903920023FEF743FF002874
:10834C00039A03DA05B0F0BD6FF077003468237937
:10835C00D90609D5012F07D0A0890023294605B0DD
:10836C00BDE8F040FEF788BF9B06EBD5022FE9D0A5
:10837C00A0890023294605B0BDE8F040FEF786BF72
:10838C0060884FF6FF7188421CD021794E0701D5C9
:10839C00012F04D10B0709D46FF07700D2E7A18924
:1083AC00009313462A46FEF735FFCBE7022FF3D096
:1083BC000023A189009313462A46FEF721FFC1E74B
:1083CC000248BFE76FF0D100BCE700BFF2FEFFFF31
:1083DC0010B503681A7886B052BB5C884FF6FF70F4
:1083EC00844225D0188A30B3CDE903220592134A72
:1083FC000092134ACDE901235A88ADF80C201A8A51
:10840C00ADF80E209A89ADF8102059B11A79920660
:10841C0044BF022205921B79DB0642BF059B43F049
:10842C000103059300216846FEF71CFF06B010BD42
:10843C006FF0D100FAE76FF07700F7E70300180050
:10844C0021860B00F8B50026066005462820FBF7B0
:10845C001AFE041E04F10C070AD00123C4E90133EF
:10846C00054B23603846FFF703FD266284F8246031
:10847C00C5E900742846F8BD40C30B0070B5002553
:10848C00056006463020FBF7FEFD044688B101234B
:10849C00C0E90133094B03604FF6FF7383810E3043
:1084AC00FFF76FFCC4E90655C4E90855C4E90A5541
:1084BC00A57574600C343460304670BD5CC30B0021
:1084CC0013B5044601A8FFF717FC23681C884FF668
:1084DC00FF73E41A01A818BF0124FFF71BFC204608
:1084EC0002B010BD37B505460C4601A8FFF704FCD9
:1084FC002A682368C2F802306368C2F8063001A803
:10850C00FFF708FC03B030BD37B50D46044601A893
:10851C00FFF7F2FB2A68D2F802302360D2F806305B
:10852C00636001A8FFF7F6FB204603B030BD30B501
:10853C00054687B00C4601A8FFF7DEFB2A682368C6
:10854C0012881B889A420DD1294602A8FFF7DCFF3E
:10855C00214604A8FFF7D8FF04A902A8FFF7FDFBEA
:10856C00044600B9002401A8FFF7D4FB204607B04D
:10857C0030BD000010B504466420FBF784FD68B1E3
:10858C000023C0E90033C0E90233C0E90433C0E979
:10859C0006330362C362C363C364C365206020B93E
:1085AC000A4A0B490A20FEF73DFF0020FEF7D6FDD4
:1085BC0020B1064A07490A20FEF734FF2168064815
:1085CC000022FEF745FE204610BD00BF19710B00BE
:1085DC0000C10B003EC10B000D8F0B0010B50A4CF7
:1085EC002378BFF35B8FDB070CD42046FBF751FDE0
:1085FC0040B10648FFF7BEFF2046FBF74FFD04488D
:10860C0003F006FA014810BDDCE60320E4E6032083
:10861C0079880B0030B50368093B012B8DB00446FB
:10862C000D4611D8FFF7DAFFA1880068FFF739FE75
:10863C00034658B92022CDE904200B4A00920B497D
:10864C0004AA3220FEF7F6FE0DB030BD6A6D002A8A
:10865C00FAD0D4E9032105F14C00CDE90312AC6D3D
:10866C0004AA03A9A047EFE780C10B0017C10B00B8
:10867C0008B50020FEF772FD00EAE07008BD00228C
:10868C0047F67F71C0E90022C0E90222C0E904224A
:10869C00C0E90E22C0E91022C0E91222C0E914225E
:1086AC00C0E91622C0E91822C0E91B22026202634B
:1086BC00A0F86810704708460021FEF757BD084621
:1086CC000021FEF75BBD0B6800211888FEF7E8BDA2
:1086DC0070B5D0E90053044605EB0316AE4204D046
:1086EC002846FFF787F81035F8E72068FEF796FF65
:1086FC00204670BD10B504460068FEF78FFF20467B
:10870C0010BD70B50446C06DFEF788FF206DFEF7F6
:10871C0085FF04F1380504F14400FFF7EBFF284610
:10872C00FFF7D6FF04F12800FCF7ACFB04F11800AE
:10873C00FCF7A8FBD4E90053242606FB0356AE42F3
:10874C0004D02846FDF79DFD2435F8E72068FEF798
:10875C0065FF204670BD38B5141E4368054602DB24
:10876C0062189A4200DD5C1A2A68501801191A44E2
:10877C00521A03F079F96A68121B6A6038BD00005E
:10878C0038B500230446836008200D46FBF77BFCBC
:10879C0018B12B6803606B684360034BE360034BB9
:1087AC002060A360204638BDA97B0B00C17B0B0069
:1087BC0010B551F8043B044640F8043BFCF79CFC14
:1087CC0023680BB9FFF7E0F9204610BD10B551F83E
:1087DC00043B044640F8043BFCF78EFC204610BDDD
:1087EC0010B551F8043B044640F8043BFCF784FCFC
:1087FC00204610BD10B504460430FCF775FC20462D
:10880C0010BD10B504460430FCF76EFC204610BDBC
:10881C0070B5D0E90053044605EBC306AE4204D054
:10882C00281DFCF761FC0835F8E72068FEF7F6FE1A
:10883C00204670BD70B5D0E90053044605EBC30665
:10884C00AE4204D0281DFCF74FFC0835F8E7206831
:10885C00FEF7E4FE204670BD10B504462430FFF749
:10886C00E9FF04F11800FFF7D3FF10BD70B5174BEB
:10887C001C6854B304F15400FCF704FB04F14400ED
:10888C00FCF700FB04F13400FCF7FCFA04F12400C3
:10889C00FCF7F8FAD4E9065305EBC306AE4204D054
:1088AC00281DFCF721FC0835F8E7A069FEF7B6FE99
:1088BC0004F10C00FFF7BEFF2046FFF7A9FF20468E
:1088CC006421BDE87040FBF7E2BB70BDE4E6032019
:1088DC00826810B50AB902F022FCBDE81040C368EA
:1088EC0018472DE9F0470023C0E900338360D1F825
:1088FC000480984505460F464ADD4FEA0810FEF7FE
:10890C0085FE0646002843D0D5E90041A04204EB81
:10891C00011A16D9504515D2AAF1100AA4F1100962
:10892C00AAEB04040444D1451DD01CB15146204689
:10893C00FEF7DCFF5046FEF75DFFAAF1100A103C73
:10894C00F1E710D0B146A2450DD0B9F1000F03D01C
:10895C0021464846FEF7CAFF2046FEF74BFF10346F
:10896C0009F11009EFE72868FEF758FEC5F80880F2
:10897C002E60D7E9004304EB0318A04506D021462E
:10898C003046FEF7CDFF10341036F6E77B686B608F
:10899C002846BDE8F08730B58DB00C4600F13801A3
:1089AC0001A8FFF79EFF029B002B2FDD04F11401A1
:1089BC0004A8FFF705FC04F1080108A8FFF700FC68
:1089CC000A9A069B13431FD0DDE9014504EB0515FC
:1089DC00AC4219D004A92046FFF734F860B1012449
:1089EC0008A8FEF707FF04A8FEF704FF01A8FFF78D
:1089FC006FFE20460DB030BD204608A9FFF722F8C7
:108A0C0010340028E4D0EAE70024E9E70124EDE77C
:108A1C00F8B50023C0E9003383604F689F420546D8
:108A2C000E463EDDF800FEF7F1FD0446C8B3D5E96D
:108A3C000003844200EBC30310D99C420FD2083BC5
:108A4C001A1AA0F1080C22449C4518D01AB11968C6
:108A5C00116059685160083B083AF5E70FD00146A0
:108A6C0022468B420BD03AB1D1F800C0C2F800C0FC
:108A7C00D1F804C0C2F804C008310832F1E7FEF79F
:108A8C00CDFD2C60AF60D6E9003103EBC1009842FC
:108A9C0006D01A6822605A68626008330834F6E718
:108AAC0069602846F8BD70B504460020C4E9000092
:108ABC00A0604E6886420D4612DD7100FEF7B6FDD1
:108ACC0070B12060A660D5E9003203EB42029A42F5
:108ADC0004D033F8021B20F8021BF8E76B686360C4
:108AEC00204670BD10B50379044623B90368186895
:108AFC0008B1FEF793FD204610BD10B5037904466E
:108B0C0023B90368186808B1FEF788FD204610BD2C
:108B1C002DE9F043D0F86C808FB00F46B8F1000F00
:108B2C0072D0056F002D6FD001F114091F230022A4
:108B3C00FF214846FFF711FB0837FF2304460022AC
:108B4C0019463846FFF709FBAC42064606D0AE4242
:108B5C0030D0002420460FB0BDE8F0832046FEF74D
:108B6C0055FD03AB04930023044603908DF8143099
:108B7C0070B92023CDE90630244B009324490346D9
:108B8C0006AA3220FEF756FC04A8FFF7ABFFE1E77C
:108B9C000246FF212B464846FFF7DFFA03982A4688
:108BAC00414602F043FF18B104A8FFF79BFFCEE744
:108BBC000124E9E72846FEF729FD002403AB06460D
:108BCC00039004938DF8144078B92023CDE9063036
:108BDC000E4B00930E49034606AA3220FEF72AFCE0
:108BEC00344604A8FFF789FFB4E70246FF212B4661
:108BFC003846FFF7B2FA03982A46414602F016FFB0
:108C0C000028EED10124ECE70124A3E798C10B0066
:108C1C0017C10B0038B50D1E0446006803DDFEF7C6
:108C2C0005FD18B938BDFEF7F9FC00202060A560E1
:108C3C000120F7E708B583688B4202DAFFF7EAFFF9
:108C4C0008BD0120FCE71FB5044601A8FDF742FB57
:108C5C00019B029A2068236063686260039A029306
:108C6C00A368A26001900393FEF7D8FC04B010BD7A
:108C7C002DE9F0410F4641681D461944836899421D
:108C8C000446904612DC266862683E44D21B31468C
:108C9C00701902F0E9FE2A464146304602F0D6FE33
:108CAC0063682B4463600120BDE8F081FFF7B2FFDD
:108CBC000028E8D1F8E713460A46002110B504460F
:108CCC00416002B10BB9002010BDFF2B28BFFF2360
:108CDC00FFF7CEFF0028F7D06068F5E7F8B50D4632
:108CEC00D0E901139942044616460BDA27686268EC
:108CFC007919521B481C02F0B7FE7E55636801338C
:108D0C006360F8BD0131FFF785FF0028EED1F8E76D
:108D1C000A464168FFF7E2BF2DE9F74304461D46BA
:108D2C000F4601AB90460A46D0E900019DF8289009
:108D3C00FEF714FFAE1C63680246B9F1000F26D192
:108D4C0028B333441B1AFF2B09D801992046FFF78F
:108D5C0002FD616820463144FFF76CFF18B960686A
:108D6C0003B0BDE8F0836A1C0199D2B22046FFF72C
:108D7C00B5FF01993A4601312046FFF7AFFF019943
:108D8C002B46424602312046FFF772FFE7E7F11807
:108D9C00FF29E4D82046FFF74DFF0028DFD0691CDF
:108DAC00C9B22046FFF7B4FF39462046FFF7B0FFA3
:108DBC0061682B464246E6E730B49DF808501AB17C
:108DCC00029530BCFFF7A8BF406830BC70471FB598
:108DDC000023C0E9003383600622009301238DF841
:108DEC000F2019460DF10F020446FFF7E5FF204650
:108DFC0004B010BD8842F8B504460D46164614D989
:108E0C00904213D2A2F10806751AA1F108072C445E
:108E1C00B74218D01CB131462046FFF7E1FC301D9B
:108E2C00FCF762F9083E083CF2E70CD0B5420AD0D8
:108E3C001CB129462046FFF7D3FC281DFCF754F93A
:108E4C0008350834F2E7F8BDF7B5044646686846BD
:108E5C00FFF7C6FCD4E901739F4212DB0137002FE8
:108E6C0029DDF800FEF7D2FB0546F0B1D4E900127B
:108E7C0001EBC202FFF7BEFF2068FEF7CFFB2560B7
:108E8C00A7602368626803EBC60603EBC202314697
:108E9C0006F10800FFF7AEFF1EB169463046FFF73A
:108EAC009FFC636801336360012501A8FCF71CF982
:108EBC00284603B0F0BD0025DEE7F8B5D0E9004345
:108ECC0005460F4604EBC306A64205D0394620469C
:108EDC00FFF72DFB08B114B9F8BD0834F4E7201DD9
:108EEC00FCF702F9D5E9003204F1080103EBC202E8
:108EFC002046FFF77FFF6B68013B6B60ECE70000DF
:108F0C002DE9F04105468EB003A80C46FEF7F4FEA1
:108F1C002E68F31E0D2B3CD8DFE813F00E00530027
:108F2C003B00D1003B003B003B003B003B009B0067
:108F3C009B009B009B009B0004A8FFF79FFA049BDF
:108F4C00AA891A806968049808310230FEF7F8FE85
:108F5C0004A906A8FFF744FC06A904F11800FFF7C2
:108F6C0073FF054607A8FCF7BFF820230693B5B995
:108F7C005D4B5E49009332202B4606AA0795FEF7FF
:108F8C0059FA049B29461888FEF712F905A8FCF734
:108F9C00ABF803A8FEF7BEFE0EB0BDE8F081544A54
:108FAC00009200235149079306AA0120FEF742FACA
:108FBC00E36A002BEAD004A904F12400FFF788FC33
:108FCC00E4E7A9892046FFF76CF906460028E0D0B3
:108FDC000568D5E906324FF6FF71298003EBC20212
:108FEC009A4203D053F8080B4180F9E7D5E9037393
:108FFC0007EBC308B84504D0381DFCF775F80837E3
:10900C00F8E700232B61D5E9067307EBC308B845D5
:10901C0004D0381DFCF768F80837F8E70023EB613B
:10902C00AB72E36B23B1314604F13400FFF750FC13
:10903C0000232022CDE906232E4A00922B4906AAB2
:10904C000120FEF7F7F9314604F11800FFF735FF60
:10905C009FE7A9892046FFF724F9002899D0E36CF3
:10906C00002B96D000230D2EADF8163001D0102E0B
:10907C0017D1002369681A4606258DF8153004911E
:10908C008DF814200690DDE9040109AB8DF81C6005
:10909C00089583E80300236D06A904F14400984762
:1090AC0077E70F2E01BF2B7A696803F001020825C0
:1090BC000FBFC3F340031A4619461D46DDE7A989C5
:1090CC002046FFF7EEF8014600283FF462AFE36D4F
:1090DC00002B3FF45EAF6B68069306AA236E04F177
:1090EC005400984755E700BFB3C10B0017C10B00E4
:1090FC00D9C10B00F6C10B0013B50446FFF7E0F91C
:10910C00D0B1236800211888FEF752F8002811DB33
:10911C0001A8FEF7F1FDFFF761FA0068214618304F
:10912C00FFF7CBFE23684FF6FF721A8001A8FEF7FB
:10913C00F1FD002002B010BD6FF0D100FAE738B598
:10914C000D1E0446006805DD14216943FEF76EFA16
:10915C0018B938BDFEF762FA00202060A560012026
:10916C00F7E72DE9F8430024C0E900448460884601
:10917C004968A14207461ADDFFF7E1FFB8B1D8E90B
:10918C0000934FF0140CD7F800E00CFB039C09EB98
:10919C000405AC4508D01EEB04061FBF0FCD0FC64F
:1091AC002B6833601434F2E7D8F804307B6038460F
:1091BC00BDE8F8832DE9F843D1E900874568836859
:1091CC00E9199942044617DC1423266862685D434A
:1091DC0003FB07F95A432E44521B314606EB090098
:1091EC0002F042FC4A464146304602F02FFC6368CE
:1091FC003B446360BDE8F883FFF7A1FF0028E3D18F
:10920C00F8E782B070B50C4604A981E80C00D0E9EF
:10921C0001139942054617DA142303FB04F16A681B
:10922C002C685A430C44521AE018214604AE02F042
:10923C001BFC0FCE0FC4336823606B6801336B606B
:10924C00BDE8704002B070470131FFF778FF00288D
:10925C00E2D1F5E72DE9F04F002493B0931EC0E95D
:10926C000044DBB205460F4690468460059379684E
:10927C008C4272DA386807AB4246091B2044FEF771
:10928C006DFC0646002868D0059B012B2FD8A0F159
:10929C00020B4FEA5B0B4FF000090DF13C0A079BE8
:1092AC00CB45234455D03A6803EB4903134408A833
:1092BC00D9789B7843EA0121FEF72BFE0DF1200EA5
:1092CC00BEE80F000DF1340CACE80F00DEF80030F6
:1092DC00CCF800309AE807008DE807000DAB0CCBFA
:1092EC0069682846FFF78DFF09F10109D7E7A8F156
:1092FC000603012B2DD8A0F1020B4FEA1B1B4FF0DC
:10930C0000090DF13C0ACB45079B22D0023339688A
:10931C00234403EB09130122194408A8FEF7DAFDD4
:10932C000DF1200EBEE80F000DF1340CACE80F006F
:10933C00DEF80030CCF800309AE807008DE8070022
:10934C00DDE90D2369682846FFF75BFF09F1010988
:10935C00D9E7079B1C44344489E7284613B0BDE881
:10936C00F08F30B5002385B0C0E90033836004462C
:10937C00022201A80D46FFF76DFF01A92046FFF759
:10938C0019FF01A8FFF7B6F90222294601A8FFF739
:10939C0061FF01A92046FFF70DFF01A8FFF7AAF90D
:1093AC000322294601A8FFF755FF01A92046FFF724
:1093BC0001FF01A8FFF79EF90622294601A8FFF735
:1093CC0049FF01A92046FFF7F5FE01A8FFF792F926
:1093DC000722294601A8FFF73DFF01A92046FFF708
:1093EC00E9FE01A8FFF786F9204605B030BD2DE94E
:1093FC00F04F8BB00C4600F1440101A8FFF7B1FE11
:10940C00029B002B4ADD04F1140104A8FFF7A9FF0D
:10941C0004F1080107A8FFF7A4FF059D089E002D85
:10942C0001DC002E38DD019A029FDDF81080DDF89A
:10943C001C90142303FB072703FB058503FB0696EF
:10944C009246BA4528D0C346AB4515D0594650462E
:10945C00FEF769FD0BF1140B04460028F4D007A8A5
:10946C00FFF748F904A8FFF745F901A8FFF742F9FF
:10947C0020460BB0BDE8F08FCB46B34509D059461A
:10948C005046FEF750FD0BF1140B04460028F4D0A7
:10949C00E5E70AF1140AD4E70024E0E70124E4E745
:1094AC0038B505460C46FCF7F2F8AB68A268AA6022
:1094BC00A360EB68E268EA60E36038BD30B585B064
:1094CC00002302938B6805460C4633B10222684692
:1094DC009847E3680393A368029329466846FFF70D
:1094EC00DFFF6846FBF7CEFC05B030BD38B50D4646
:1094FC0001684B6D044623B128684C314C30FFF7A2
:10950C00DDFF20462B6840F8043B6968FEF7CEFB74
:10951C00204638BD2DE9F043044687B068460E4618
:10952C001746FEF7E9FB2368D3E9064304EBC308AF
:10953C004445A14616D0214601A8FEF7DDFE39466A
:10954C0001A8FEF7F0FC083405460028F0D0494687
:10955C003046FFF7CBFF6846FEF7DCFB284607B02A
:10956C00BDE8F0830025F6E710B504688AB04C34EA
:10957C00B9B1CDE9001202A86946FFF701F9002341
:10958C0006A902A80893FFF78BFF214606A8FFF750
:10959C0087FF06A8FBF776FC02A8FBF773FC0AB062
:1095AC0010BD0491EBE78842F8B504460D4616460B
:1095BC0014D9904213D2A2F10806751AA1F108072A
:1095CC002C44B74218D01CB131462046FFF7FEF8A8
:1095DC00301DFBF789FD083E083CF2E70CD0B54284
:1095EC000AD01CB129462046FFF7F0F8281DFBF7DE
:1095FC007BFD08350834F2E7F8BD70B50E1E054644
:10960C0011DDF000FEF702F8044658B1D5E900125E
:10961C0001EBC202FFF7C7FF2868FDF7FFFF2C60C4
:10962C00AE60012070BD0024F6E72DE9F041002367
:10963C00C0E9003383600D4649689942044613DD46
:10964C00FFF7DBFF80B1D5E90063276806EBC308A1
:10965C00B04507D01FB131463846FFF7B7F808368A
:10966C000837F5E76B6863602046BDE8F08137B5D5
:10967C000D46044601A8FEF73FFB296820460C3135
:10968C00FFF7D3FF01A8FEF745FB204603B030BD22
:10969C0038B50B689B7A05460C4633B90846FEF77D
:1096AC00BFFA10B9236801229A7228462146FFF7A7
:1096BC00DEFF284638BD73B5044645686846FFF79B
:1096CC0085F8D4E90113994210DA2368626803EB38
:1096DC00C50503EBC202294605F10800FFF763FF3D
:1096EC008DB9636801336360012606E001312046C1
:1096FC00FFF783FF06460028E7D101A8FBF7F4FC2F
:10970C00304602B070BD69462846FFF75FF8E8E7BF
:10971C002DE9F04FDFF8B890DFF8B8A093B005460C
:10972C00884600272B68BB424ED903A8FEF78AFE59
:10973C001C266A68039C7E4332440DF1140C131DE5
:10974C00E346143218685968E646AEE8030008335D
:10975C009342F446F6D11868CEF8000059460AA890
:10976C00FEF796FB0DF1280CBCE80F000FC4DCF8DB
:10977C00003023606B68039A334403A91B8B9382DC
:10978C006B6833445B8BD382D8F8000000F10C0477
:10979C000AA8FFF71BF820460AA9FFF78CFF04461E
:1097AC000BA8FBF7A1FC54B92023CDE90A34CDF862
:1097BC00009023460AAA51463220FDF73BFE04A82E
:1097CC00FBF792FC0137ADE713B0BDE8F08F00BF9B
:1097DC0015C20B0017C10B008842F8B504460D46A4
:1097EC00164614D9904213D2A2F10806751AA1F1AB
:1097FC0008072C44B74218D01CB131462046FEF75E
:10980C00D7FF301DFBF770FC083E083CF2E70CD08C
:10981C00B5420AD01CB129462046FEF7C9FF281DC7
:10982C00FBF762FC08350834F2E7F8BD70B50E1E84
:10983C00054611DDF000FDF7E9FE044658B1D5E907
:10984C00001201EBC202FFF7C7FF2868FDF7E6FE26
:10985C002C60AE60012070BD0024F6E72DE9F041CC
:10986C000023C0E9003383600D46496899420446E1
:10987C0013DDFFF7DBFF80B1D5E90063276806EB4A
:10988C00C308B04507D01FB131463846FEF790FFEC
:10989C0008360837F5E76B6863602046BDE8F08151
:1098AC0037B50D46044601A8FEF726FA296820466E
:1098BC001831FFF7D3FF01A8FEF72CFA204603B0AE
:1098CC0030BD73B5044645686846FEF771FFD4E9B0
:1098DC000113994210DA2368626803EBC50503EBA8
:1098EC00C202294605F10800FFF776FF8DB96368BF
:1098FC0001336360012606E001312046FFF796FF35
:10990C0006460028E7D101A8FBF7EEFB304602B073
:10991C0070BD69462846FEF74BFFE8E7F0B585B009
:10992C00054601A80C461746FEF7E6F90023C5E9E3
:10993C000033AB602368D3E9064604EBC606B44299
:10994C0011D038682146FEF797FC50B1214602A889
:10995C00FEF72EFF02A92846FFF7B3FF03A8FBF77B
:10996C00C3FB0834EBE701A8FEF7D4F9284605B091
:10997C00F0BD00002DE9F0430B689B7A91B00646D0
:10998C000F46904633B9C0E900338360304611B0BE
:10999C00BDE8F08311680D7E002D58D120232A4696
:1099AC0003A8CDE90835FEF7BAFB039B01932B4BBB
:1099BC002B49009308AA2B460120FDF73BFD03A879
:1099CC00FDF718FF1C23ADF82230D8F800309A8A26
:1099DC00ADF83820DB8AADF83A303B68214A18885C
:1099EC00009508A9FDF702FC002830DB3B68D3E9A1
:1099FC00064304EBC3090834A4F10803994522D0AB
:109A0C0054F8083CDB89002BF5D0102200210DEB1B
:109A1C000200039502F042F854F8083CD9893B68DF
:109A2C0003AA188800951323FDF7FEFB0028E2D04B
:109A3C0010AB184403A900F8345C54F8080C3C3003
:109A4C00FDF779FFD7E7D8F8003001221A764246A5
:109A5C0039463046FFF762FF98E700BF3AC20B0069
:109A6C0017C10B00199C0B00F0B50B689B7A85B0E5
:109A7C0006460D462BB901A8FFF70AFE01A8FEF712
:109A8C00C7FE2B68D3E9034704EBC707BC4209D0D8
:109A9C002246294601A8FFF76DFF01A8FEF7CAFE72
:109AAC000834F3E730462946FFF7FAFE304605B096
:109ABC00F0BD00002DE9F043054693B0086807920D
:109ACC000F46496898460AAC414B049303C405AB56
