:02000002B0004C
:1040000000400B00A4BB0B00000006000C000502E2
:084010000401E50C00000000B2
:0440180034B00B00B5
:10401C0009480A49884208B505D0094A824202D0AB
:10402C00121A06F0F9FE0748074A0021121A06F088
:10403C001BFF014808BD00BF04E6032010BB0B00AA
:10404C0070E6032070E60320EDE7032070B5074E01
:10405C00074C05F0BDFDA41BA4080025AC4200D103
:10406C0070BD56F8043B98470135F7E7ACBA0B0026
:10407C00E0BA0B0000F0ACB808B500F0D7F8BDE81A
:10408C00084005F05DBD02F0F7BF02F0F5BF02F08D
:10409C00FBBF0078B0FA80F0400970470123037031
:1040AC00704791F92030028A1344827C0132D2B2DB
:1040BC001BB2052A038282BF93FBF2F30382012316
:1040CC00827488BF837470471FB50C460022C11DD3
:1040DC00684603F05BFB029A0099204606F014F93F
:1040EC0006F058F8684603F05FF8204604B0BDE8C7
:1040FC00104006F039B80EB403B503AB002153F8E9
:10410C00042B019305F0B1FC02B05DF804EB03B095
:10411C007047000038B5104D2C68D4B95820FFF703
:10412C00B2FFA8B1C0E90744C0E90944C0E90B4497
:10413C00C0E90D44C0E90F44C0E91144C0E913447F
:10414C0040F601234471C480838104610475446585
:10415C002860286838BD00BFC4E6032008B503F00A
:10416C00DBFE03F023FFFFF7D5FF05234373FFF7B7
:10417C00D1FF03230373FFF7CDFF044B0365FFF758
:10418C00C9FFBDE80840012101F004BE9D440B00AD
:10419C0010B505F029FE0D4905F03FFCFFF7BAFFFD
:1041AC0001F0F0FF002002F03FFD0446002002F079
:1041BC003BFD001B61F10001B0F57A7F71F100034A
:1041CC0002D202F049FFF1E710BD00BF48B00B006E
:1041DC0038B505F009FE4FF4165105F0F5FD002039
:1041EC0002F022FD47F230550446002002F01CFD7F
:1041FC00001B61F10001A84271F1000307D205F028
:10420C00F3FD05F0E5FD10B902F026FFEDE705F032
:10421C00EBFD05F0DDFDFFF7A1FF05F0E5FDBDE8C9
:10422C003840014905F0F9BB4DB00B00FFF7B0BFAA
:10423C002DE9F0418D6804460F4690460E1D012372
:10424C0075B105F11001404603F0A7F8D5E902124B
:10425C0000282E4615BF012300230D461546EFE717
:10426C00A3B1FB68B34204D1256066602046BDE86B
:10427C00F081304606F002F90546414605F1100082
:10428C0003F08BF820B100232360EEE73546F4E70A
:10429C00C4E90050EAE700002DE9F04FD0E90063D3
:1042AC00774F9BB006EB8319B14500F0E680754B58
:1042BC000A9396F904308DF82C3073798DF82D30E3
:1042CC00B3798DF82E30F11D0DF12F0003F0CCF9E0
:1042DC00B6F91030ADF83830B37C8DF83A306A4B03
:1042EC000A930DF13B0206F1130306F1370153F863
:1042FC00040B42F8040B8B42F9D11B781370338FEB
:10430C00ADF86030738FADF8623096F93C308DF8B3
:10431C0064300DF12F0102A803F0A6F95B4C0022CA
:10432C0002A906A803F032FABD68A24665B105F1F0
:10433C00100006A903F031F8D5E9023200280ABFB3
:10434C002C4615461D46F1E7544524D12420FFF791
:10435C009AFE00F1100B804606A9584602F0BAFFEF
:10436C000023544588F8203024D17B69002B3DD0A4
:10437C0038695946103003F010F8002836D03C69E3
:10438C00002C3ED1584602F00FFF40462421FFF787
:10439C007EFEA04647E004F1100106A802F0FDFFE6
:1043AC000028D3D1012384F8203006A802F0FCFEAB
:1043BC00403679E704F1100319465846019302F090
:1043CC00ECFF019B002832D0FD68AC4215D0204692
:1043DC0006F054F8594603461030019302F0DDFF05
:1043EC0020B1019BDD6805BB1C4606E05A463946E8
:1043FC0004A8FFF71DFFDDE90454002C3BD0002D71
:10440C0037D1544535D004F11001584602F0C5FFA0
:10441C00003818BF01201D4B2246414606F030F8EB
:10442C007B6901337B614446BCE72546E5E7594689
:10443C00184602F0B2FF0028A4D03B699C42D3D0AE
:10444C00204606F019F8054600F11001584602F016
:10445C00A4FF20B1E16851B923460D46C4E75A4682
:10446C00394604A8FFF7E4FEDDE90453BCE72B460C
:10447C00BAE70120CFE72C4684E71BB0BDE8F08FEC
:10448C0074E6032084B00B000CB30B0078E6032019
:10449C0073B505F0A9FC104D1049114C114E05F0E7
:1044AC00BCFAFFF737FE1048FFF7F6FEEA68226009
:1044BC0004352368AB420CD01A69019205F094FCC8
:1044CC00019A3146FFF717FE206805F0D5FF2060F2
:1044DC00EFE702B070BD00BF74E603205CB00B00C8
:1044EC0070E603206EB00B00B8E6032008B500217F
:1044FC00012002F025FD054B0022191DC3E9031113
:10450C001A719A605A61024B1A6008BD74E6032056
:10451C0070E6032013B504460846019106F009FD28
:10452C0001990246204602B0BDE8104005F0ECBEF1
:10453C0030B585B004460D460022C11D684603F017
:10454C0025F9029A0099284605F0DEFE05F022FEB8
:10455C00684602F029FEE37CFF2B06D0234928464F
:10456C00FFF7D8FFE17C05F039FE21492846FFF71B
:10457C00D1FF94F91F1005F031FEE28A4FF6FF735C
:10458C009A4206D01B492846FFF7C4FFE18A05F082
:10459C0025FE94F82030BBB117492846FFF7BAFF27
:1045AC0094F91C1005F01AFE14492846FFF7B2FFC7
:1045BC0094F91D1005F012FE11492846FFF7AAFFC9
:1045CC0094F91E1005F00AFE0E492846FFF7A2FFCB
:1045DC00B4F91010A37C91FBF3F149B205F0FEFD88
:1045EC00284605B0BDE8304005F0BEBD08B40B0050
:1045FC008CB00B0091B00B0098B00B009FB00B006F
:10460C00A6B00B00ADB00B000EB400B58CB00DAA6B
:10461C004FF0200C52F8041B0392CDE9001200233A
:10462C00016804AA1E20CDE904C302F079FC0CB089
:10463C005DF804EB03B070472DE9F04F0C46A3B0C6
:10464C000546FFF72EFD2146E81D03F012F81F2347
:10465C0001AA162104F1080003F01DFAC6B2032EBC
:10466C004FD99DF804306A2B4BD19DF80530FE2BA9
:10467C0047D19DF80640032C43D1621C22A95FFA56
:10468C0082F951FA82F2A31C12F8842C052ADBB2AF
:10469C006DD01DD8012A29D0022A35D022AB1C445A
:1046AC0009AF01AB14F8844C03EB090A4FF0000876
:1046BC00BB465FFA88F39C4263D938461AF8013B33
:1046CC00364A642102F0F0FC08F101080237F0E7E9
:1046DC000D2AE3D122AA1344043413F8832C13F8C3
:1046EC00843C03EB0223EB82E4B208E0A31D22AA74
:1046FC0052FA83F3073413F8843CEB74E4B2B442FB
:10470C00BBD323B0BDE8F08F22AA134413F8843C2A
:10471C002B75E31C52FA83F313F8843C2B77231D7F
:10472C0052FA83F313F8843C6B77631D52FA83F3CC
:10473C0013F8843CAB77A31D52FA83F313F8832C44
:10474C0013F8843C03EB02232B8322AA04F1080305
:10475C0052FA83F30A3413F8832C13F8843C03EBDA
:10476C0002236B830123E4B285F82030C7E7E31CF6
:10477C0022AA52FA83F3043413F8843CEB77E4B2A4
:10478C00BDE722AB03EB4403002203F8642C04497D
:10479C0004485A46FFF738FF4C44A5E740B30B00DA
:1047AC00FEB10B00F8E6032030B500F1080589B026
:1047BC001621284603F0D1F9044688B11F236A4616
:1047CC001621284603F067F9C0B2032807D99DF8D3
:1047DC0000306A2B03D19DF80130FE2B00D0002451
:1047EC00204609B030BD000038B5114B8A880360F3
:1047FC000D468B798280044683710731073002F0B5
:10480C0033FF2B8A2382AB7CA3740A4BEA8A236086
:10481C00EB7CE374E2822B7DAA692375A26195F887
:10482C002030EA69E26184F82030204638BD00BFB0
:10483C0084B00B00BCB00B008842F8B504460D46A2
:10484C00164611D9904210D2A2F12406751AA1F184
:10485C0024072C44B74212D01CB131462046FFF736
:10486C00C3FF243E243CF5E709D0B54207D01CB168
:10487C0029462046FFF7B8FF24352434F5E7F8BD68
:10488C002DE9F041424C9CB0064600274FF024081D
:10489C006368FDB29D420DDA216808FB05110731F2
:1048AC0013A802F0E1FE314613A802F0F4FE013722
:1048BC000028EDD063689D425DD1364B01930123F6
:1048CC008DF809300DF10B0002238DF80A3002F03F
:1048DC00F6FE314B0193FF238DF823304FF07F43CD
:1048EC0005934FF6FF733146ADF81A3000254FF0A3
:1048FC00FF3301A807938DF82450FFF79DFE01A903
:10490C000AA88DF80850FFF76FFF0AA913A866686C
:10491C00FFF76AFFD4E901739F4215DB0137AF4201
:10492C000DDD4FF0240808FB07F002F0A5FB05464F
:10493C00F0B1D4E9001208FB0212FFF77DFF2068EA
:10494C0002F0A2FB2560A76023686168242202FBA9
:10495C00063606F1240002FB01323146FFF76CFFEC
:10496C001EB113A93046FFF73FFF63680133636044
:10497C001CB0BDE8F08124235D4323685C1900273B
:10498C0067715B5931465B68204698472771EFE7A2
:10499C008CE6032084B00B00BCB00B00024B002251
:1049AC00C3E900229A6070478CE6032013B50446D5
:1049BC000846019106F0BDFA01990246204602B064
:1049CC00BDE8104005F0B0BC10B58368044613B1C7
:1049DC00032201469847204610BD10B54368013BA1
:1049EC000446436063B903689B689847A368013B1E
:1049FC00A3602BB923682046DB68BDE8104018473C
:104A0C0010BD08B5002002F00FF94FF47A720023A4
:104A1C0006F062F808BD10B50446006802F034FBDD
:104A2C00204610BD30B585B00C460546C11D002290
:104A3C00684602F0ABFE029A0099204605F064FC31
:104A4C0005F0A8FB684602F0AFFB18492046FFF7BB
:104A5C0061FDE97F81F0010105F0A8FB14492046B6
:104A6C00FFF758FDB5F9181005F0B8FB11492046B1
:104A7C00FFF750FD698B05F0B1FB0F492046FFF79E
:104A8C0049FDA98B05F0AAFB0C492046FFF742FD16
:104A9C00B5F91010AB7C91FBF3F149B205F09EFB1C
:104AAC00204605B0BDE8304005F05EBBC4B00B003D
:104ABC008CB00B00D0B00B0008B40B00ADB00B00E9
:104ACC000EB400B58CB00DAA4FF0200C52F8041B9C
:104ADC000392CDE900120023016804AA0120CDE95C
:104AEC0004C302F01DFA0CB05DF804EB03B0704780
:104AFC002DE9F041DFF8488000AF0C4606460A4627
:104B0C0040460E491D46FFF7DBFF04F1080323F076
:104B1C000703ADEB030D22463146684606F07CF9DF
:104B2C000023694640460DF80430FFF7C9FF042303
:104B3C0085F83030BD46BDE8F08100BFD7B00B0022
:104B4C00F8E603201FB5092201A9083002F095FFF1
:104B5C00082829D99DF80430022B25D19DF8053061
:104B6C00012B21D19DF80630062B1DD19DF8073065
:104B7C001B2B01D0262B17D19DF80830FF2B13D1FE
:104B8C009DF80930772B0FD19DF80B30013B012B91
:104B9C000AD89DF80A209DF80C3013430CBF012055
:104BAC00002005B05DF804FB0020FAE70022C0E904
:104BBC000022C0E90222C0E904224FF0FF32C0E912
:104BCC000622026280F824204FF40072C284044A48
:104BDC00034610689288D8621A861846704700BF40
:104BEC0090B20B0010B50446006808B1FFF7F5FE53
:104BFC00204610BD0B68036013B15A6801325A602D
:104C0C00704710B50446006802F03EFA204610BD0D
:104C1C0038B505460D4B45F84C3B04465830FFF76C
:104C2C00F0FF2846FFF7EDFF04F1440003F080FA93
:104C3C0004F13C0003F07CFA04F1340003F07FFA39
:104C4C0004F12400FFF7DDFF204638BDA0B20B00B5
:104C5C0010B5044B044640F8083BFFF7D2FF204642
:104C6C0010BD00BF80B20B0010B50446FFF7F0FF7B
:104C7C0020461421FFF70BFA204610BD73B50E46E3
:104C8C00044656F8043B00930D4601A83146FFF745
:104C9C00B1FF019A009B6260236001A8002301937D
:104CAC000093FFF79FFF3046FFF79CFF2846082133
:104CBC00FFF7EDF9204602B070BD38B50D1E044665
:104CCC00006803DD02F0E8F918B938BD02F0DCF930
:104CDC0000202060A5600120F7E738B50023C0E96B
:104CEC00003383600D4649689942044610DDFFF796
:104CFC00E4FF68B1D5E9003122681944994205D026
:104D0C000AB11878107001330132F7E76B686360F1
:104D1C00204638BD38B5304B8A8803600D468B79F8
:104D2C008280044683710731073002F09DFC2B8A88
:104D3C002382AB7CA3746A696261284BAA692360E5
:104D4C00A26195F82030EA69E26184F8203005F11F
:104D5C00240104F12400FFF7C0FF2B8E23866B6B1C
:104D6C00636305F1380104F13800FFF743FF05F1E7
:104D7C003C0104F13C0003F0B9F905F1440104F1E4
:104D8C00440003F0B3F905F14C0104F14C00FFF7BA
:104D9C00A4FF05F1580104F15800FFF79EFFD5E977
:104DAC001923C4E91923EB6EE3662B6F2367D5E94E
:104DBC001E016B6F6367D5F87E30C4F87E30B5F892
:104DCC008230A067A4F87C10A4F88230B5F8843047
:104DDC00A4F88430204638BD84B00B00A0B20B0080
:104DEC00F8B5D0E901539D4204460E460CDA27680B
:104DFC0062687919521B481C06F01CF87E556368D2
:104E0C00013363600120F8BD691CFFF756FF0028D1
:104E1C00EDD1F8E7F0B50D4685B0044608461646C8
:104E2C0005F0B8F952492846FFF774FB5149FFF7D2
:104E3C00BDFD51492846FFF76DFB5049FFF7B6FD04
:104E4C004F492846FFF766FB05F0A4F9636833B1B8
:104E5C004C492846FFF75EFB2168FFF7A7FD4A4F38
:104E6C00A369BB4206D849492846FFF753FBA16901
:104E7C0005F0C6F9E369BB4206D845492846FFF759
:104E8C0049FBE16905F0BCF994F82630DB0707D53E
:104E9C0040492846FFF73EFB94F9281005F09EF98F
:104EAC0094F826309F0707D53B492846FFF732FB7D
:104EBC0094F9291005F092F994F82630580707D583
:104ECC0036492846FFF726FB94F92A1005F086F997
:104EDC0094F82630190707D531492846FFF71AFBF5
:104EEC0094F92B1005F07AF994F82630DA0607D5E8
:104EFC002C492846FFF70EFB94F8251005F080F995
:104F0C0094F826305B0608D527492846FFF702FBA4
:104F1C00062204F1320105F007FA94F82730012B30
:104F2C0007D822492846FFF7F5FA94F8271005F020
:104F3C0055F9284605F018F91D492846FFF7EAFAF5
:104F4C003188013189B2318005F048F9284605F0E5
:104F5C000BF905F1080101A8FFF7BFFE002101A81C
:104F6C00FFF73EFF01A8FFF74CFE05B0F0BD00BFF8
:104F7C00E9B00B00F1B00B00F5B00B00FCB00B006E
:104F8C0000B10B0007B10B008051010012B10B00F6
:104F9C002BB10B0040B10B005FB10B007EB10B00CD
:104FAC009CB10B00BAB10B00D9B10B00E1B10B00F5
:104FBC00EFB20B002DE9F041476883688846B918B9
:104FCC0099420446154612DC266862683E44D21BA0
:104FDC003146701905F02EFF2A464146304605F041
:104FEC001BFF62682A4462600120BDE8F081FFF774
:104FFC0064FE0028E8D1F8E72DE9F04789468CB02B
:10500C00044609F1080AFFF74CF84946E01D02F086
:10501C0030FB252302AAFF21504602F03CFDC3B20F
:10502C00192B40F28180BDF80E609DF81650E77F79
:10503C00B4F81A80F20BE277BDF8172062836A1E6F
:10504C000F2A0CD8DFE802F008730B0808080808D0
:10505C0008080B7A7A0B0B7ABDF81D202283252BBE
:10506C0070D19DF80A20022A21D102AA09215046AA
:10507C0002F011FD10F0FF0219D0616A019202A832
:10508C0005F0BAFE019A90B14FF0000A04F1240920
:10509C0002A9C4F828A04846FFF78CFF51464846A1
:1050AC00FFF79EFE626A32493248FFF709FD324B28
:1050BC001B682BB1628B424502D02946204698478B
:1050CC002E4D2B68002B2FD0310602D510212046F7
:1050DC009847F20503D52B68042120469847B30561
:1050EC0003D52B68052120469847700503D52B68FE
:1050FC00072120469847310503D52B680821204607
:10510C009847F20403D52B680A212046984773046C
:10511C0003D52B68032120469847E37FBB4203D07D
:10512C002B680221204698470CB0BDE8F0879DF80B
:10513C001D20501E42424241A27790E7BDF81D202F
:10514C00A2838CE71A2BB2D19DF80A30012BAED179
:10515C0009F1140902AA25230921484602F09BFCF7
:10516C0010F0FF0289D1252302AA082148467FE7C7
:10517C00EDB10B00F8E60320A0E603209CE603202B
:10518C0008B50830FFF716FF08BD13B50B460246ED
:10519C00D0E900016C4684E8030093E8030082E840
:1051AC00030094E8030083E8030002B010BD8842BA
:1051BC00F8B504460D46164614D9904213D2A2F106
:1051CC008806751AA1F188072C44B74218D01CB177
:1051DC0031462046FFF79EFD3046FFF719FD883E0D
:1051EC00883CF2E70CD0B5420AD01CB129462046C7
:1051FC00FFF790FD2846FFF70BFD88358834F2E762
:10520C00F8BD00002DE9F0414B4CE6B006460027F6
:10521C004FF088086368FDB29D420DDA216808FBE7
:10522C000511073144A802F01FFA314644A802F0D8
:10523C0032FA01370028EDD063689D426ED13F4BA6
:10524C00009301238DF805300DF10700082300258C
:10525C008DF8063002F033FA394B00930DA8CDE9E6
:10526C000955ADF810508DF812500B95ADF8305023
:10527C0002F0A2FD0FA802F0C3FC11A802F0C0FCC2
:10528C0013A8FFF793FC31466846ADF88450FFF73E
:10529C00B3FE694622A88DF80450FFF73BFD22A906
:1052AC0044A86668FFF736FDD4E901739F4215DB0D
:1052BC000137AF420DDD4FF0880808FB07F001F015
:1052CC00DBFE0546F0B1D4E9001208FB0212FFF731
:1052DC006EFF206801F0D8FE2560A7602368616826
:1052EC00882202FB063606F1880002FB01323146A9
:1052FC00FFF75DFF1EB144A93046FFF70BFD636855
:10530C000133636044A8FFF783FC22A8FFF780FCFD
:10531C006846FFF77DFC66B0BDE8F08188235D43ED
:10532C0023685C19002767715B5931465B6820461E
:10533C0098472771EFE700BFA4E6032084B00B0069
:10534C00A0B20B00826810B50AB905F0F4F8BDE8FC
:10535C001040C368184708B5006800F11001FFF74A
:10536C00F1FF08BD826810B50AB905F0E4F8BDE894
:10537C001040C368184708B5006800F11001FFF72A
:10538C00F1FF08BD38B5002383608B6804460D46D9
:10539C002BB102229847EB68E360AB68A360204610
:1053AC0038BD0000F0B589B08B880A680468ADF888
:1053BC00043000204FF69C7300928B8008604FF0F5
:1053CC000202D4E84F1F814203D1C4E8452F002DBF
:1053DC00F7D127D1BDF80420ADF80430009BE36071
:1053EC00228200900123BFF35B8F637004F10803EA
:1053FC00BFF35B8F53E8006F43E80002002AF9D13A
:10540C00BFF35B8F76B101F0A3FD80B104F10C0109
:10541C003046FFF797FF3046FFF7D6FA102130469B
:10542C00FEF735FE6846FFF7F6FA09B0F0BD3146D7
:10543C0002A8FFF7A7FFE068B4F9105008B105F017
:10544C005BFD06901020ADF81C50FEF71CFE0546C7
:10545C0010B3002787601820FEF715FE0446B0B184
:10546C008760014602A8FFF790FE049BA268A36028
:10547C00059B0492E268E360BDF81C30A3824FF6F2
:10548C009C73ADF81C30069B059223610697084B64
:10549C00EB60084B2C60AB6006A8FFF7BCFA02A8C7
:1054AC00FFF792FA00222946034801F059FDB2E7B2
:1054BC0063530B00C9540B00E59E0B00012AF8B591
:1054CC00054603D10B6803600020F8BD022A10D0FA
:1054DC00032AF9D10468002CF6D004F11000FFF770
:1054EC009AFA2046FFF770FA18212046FEF7CFFDF6
:1054FC00EAE718200E68FEF7C6FD044650B13146A7
:10550C00FFF740FF3069B6F9147008B105F0F4FCF0
:10551C002061A7822C60D7E738B5002383608B68A5
:10552C0004460D462BB102229847EB68E360AB684A
:10553C00A360204638BD012A70B5044603D10B6820
:10554C000360002070BD022A0CD0032AF9D1046834
:10555C00002CF6D02046FFF737FA14212046FEF730
:10556C0096FDEEE714200E68FEF78DFD054620B182
:10557C003146FFF7D1FF337C2B742560E1E7000047
:10558C00F0B5046887B00123D4E84F2F002A03D16B
:10559C00C4E8403F0028F7D154D12173BFF35B8F8F
:1055AC0000206370231DBFF35B8F53E8006F43E84B
:1055BC000002002AF9D1BFF35B8F002E42D001F01C
:1055CC00C7FC074670B104F10C013046FFF7CAFE68
:1055DC003046FFF7F9F91021304607B0BDE8F0402E
:1055EC00FEF755BD314601A8FFF796FF237B8DF8DA
:1055FC0014301020FEF747FD0546D0B1876014200B
:10560C00FEF741FD044678B18760014601A8FFF71B
:10561C00BCFD039BA268A360049B0392E268E36059
:10562C009DF8143004922374074BEB60074B2C60ED
:10563C00AB6001A8FFF7C8F900222946044801F025
:10564C008FFCC5E707B0F0BD83530B0043550B002F
:10565C00E59E0B002DE9F0439D4D89B02B78BFF3EF
:10566C005B8FDB0700AF04460AD42846FEF711FD1A
:10567C0030B1FFF7C6F9974B18602846FEF70EFDC0
:10568C0094F8302094F831309A420ED094F830309F
:10569C0084F83130013B052B46D8DFE813F01000BD
:1056AC003B004A00EF00E5001101FFF7AAF9894B16
:1056BC001B689842EAD12437BD46BDE8F08302F05E
:1056CC002BFCE11D0546384601F0CEFF0023294690
:1056DC003A4607F10C0003F027FFFB683D69636352
:1056EC00A36B9D4204F1340608D015B16B680133ED
:1056FC006B60A06B08B1FFF770F9A56307F10C00A4
:10570C0002F01DFD304602F079FB68B1022384F8EB
:10571C00303009E002F000FC04F1340102F071FCBD
:10572C006D496E48FFF7CCF9FFF76BF9694B1860C0
:10573C00C1E704F13409494607F10C0003F046FCBB
:10574C00D7E90353E84605EBC306AE4204D0281D47
:10575C00FFF748FA0835F8E7F86801F095FC494678
:10576C0007F10C0003F01EFED7E9035305EBC3064B
:10577C00AE4204D0284602F0DBFC0835F8E7F868A6
:10578C0001F082FC04F14406554907F10C0002F0CB
:10579C00E7F807F10C023146484603F059FB04F1D7
:1057AC003C05504907F10C0002F0DAF8294607F1E4
:1057BC000C02484603F04CFB224628464A4903F0AB
:1057CC0071FB0121284602F0A1FA0025474BFB6032
:1057DC0004F1840207F10C0104F14C00C7E90555F2
:1057EC003D74FD61FFF716FBBB69073323F007031C
:1057FC00ADEB030DE946BB699D420DD207F11401D7
:10580C003846FFF76AFA3B685B5D09F805303846A5
:10581C00FFF7F7F90135EEE74A4635492F48FFF710
:10582C004FF907F114013846FFF757FA0123BA690B
:10583C003968304602F00AFA2E4902462748FFF72B
:10584C003FF93846FFF7DDF994F83030032B05D1DA
:10585C00052384F83030284B00221A7007F10C0015
:10586C00FFF7F6F9C5465FE7234A13780133DBB23D
:10587C00142B13707FF658AF042348E76169384640
:10588C00FFF7FCF91C4B1B78142B14D90023FB607D
:10589C0038464FF6607307F10C013B82FFF782FD2F
:1058AC0007F10C00FFF7B7F8062384F83030381DE9
:1058BC00FFF798F938E701213846FFF761FEF3E767
:1058CC00002384F8303004F1340003F0B3F82BE7F4
:1058DC0098E60320B0E6032001B20B00F8E60320A3
:1058EC0009B20B002EB20B00FD4A0B0080B20B006C
:1058FC0053B20B0062B20B00B4E60320024B002241
:10590C00C3E900229A607047A4E6032030B5044630
:10591C0099B00D46FEF7C5FB2946E01D01F0A9FE26
:10592C0010A91F2205F1080002F006F99DF853306A
:10593C000E939DF852300D939DF851300C939DF8B9
:10594C0050300B939DF84F300A939DF84E300993CD
:10595C009DF84D3008939DF84C3007939DF84B30D3
:10596C0006939DF84A3005939DF8493004939DF8B1
:10597C00483003939DF8473002939DF846300193CD
:10598C009DF8453000930E4A9DF84430252104F1D2
:10599C00130001F089FB9DF854209DF8553003EB62
:1059AC00022323879DF856209DF8573003EB0223E2
:1059BC0063879DF8583084F83C3019B030BD00BF77
:1059CC00A8B20B0070B586B00C460546C11D00226E
:1059DC0002A801F0DBFE049A0299204604F094FC24
:1059EC0004F0D8FB02A801F0DFFB1C492046FEF7AF
:1059FC0091FD05F1130106460846019105F099FA4F
:105A0C0001990246304604F08FFC15492046FEF7FA
:105A1C0081FD298F04F0E2FB12492046FEF77AFD46
:105A2C00698F04F0DBFB10492046FEF773FD95F9F6
:105A3C003C1004F0D3FB0D492046FEF76BFDB5F985
:105A4C001010AB7C91FBF3F149B204F0C7FB20467C
:105A5C0006B0BDE8704004F087BB00BFEDB20B0090
:105A6C00F2B20B00F8B20B00FEB20B00ADB00B00A3
:105A7C0000B589B01F226946083002F05DF819287C
:105A8C0013D19DF800304C2B0FD19DF8010060B95B
:105A9C009DF80230022B05D19DF80300A0F11503EF
:105AAC005842584109B05DF804FB0020FAE70000A9
:105ABC0038B5144B8A8803600D468B798280044676
:105ACC0083710731073001F0CFFD2B8A2382AB7C29
:105ADC00A37423460C4A43F8132B05F1370105F147
:105AEC00130252F8040B43F8040B8A42F9D11278D2
:105AFC001A7095F93C30AA6BA26384F83C302046AE
:105B0C0038BD00BF84B00B000CB30B008842F8B555
:105B1C0004460D46164611D9904210D2A2F1400609
:105B2C00751AA1F140072C44B74212D01CB1314672
:105B3C002046FFF7BDFF403E403CF5E709D0B5429B
:105B4C0007D01CB129462046FFF7B2FF4035403440
:105B5C00F5E7F8BDF0B5394CB1B0064600276368DF
:105B6C00FDB29D420DDA216801EB8511073120A8A9
:105B7C0001F07AFD314620A801F08DFD0137002897
:105B8C00EDD063689D424CD12D4B00930DF1070075
:105B9C00012300258DF805308DF8063001F08FFDBE
:105BAC00284B009331466846ADF810508DF81250D2
:105BBC00FFF7ACFE694610A88DF80450FFF778FF8C
:105BCC0010A920A86668FFF773FFD4E901739F4200
:105BDC0012DB0137AF420ADDB80101F04DFA054680
:105BEC00E8B1D4E9001201EB8212FFF78FFF2068B5
:105BFC0001F04AFA2560A7602368626803EB8616F9
:105C0C0003EB8212314606F14000FFF77FFF1EB115
:105C1C0020A93046FFF74CFF63680133636031B055
:105C2C00F0BD2368AA0103EB851500246C719B5809
:105C3C0031465B68284698472C71F0E7B8E603209C
:105C4C0084B00B000CB30B00024B0022C3E9002202
:105C5C009A607047B8E6032010B50123037483687B
:105C6C00044643B1C0689847012363740020BDE823
:105C7C00104001F0BDB800680028F5D083680BB95E
:105C8C0004F059FCC368EEE710B500210446084641
:105C9C0001F08EF8204610BD10B5002104460120FD
:105CAC0001F086F8204610BD2DE9F34104460E465E
:105CBC0014201D4990461F4604F086FB30B1002588
:105CCC00C0E90055C0E9025505744574206098B1CF
:105CDC00099B9DF82020C0E902873146CDE90003DD
:105CEC00124B043001F054F830B923681B7CBBB95B
:105CFC00012000F081FFF8E72668002323607EB1C5
:105D0C0035684DB1AB681BB103222946284698472C
:105D1C0010212846FEF7BBF914213046FEF7B7F9DF
:105D2C00204602B0BDE8F08121B80B00655C0B0089
:105D3C001FB51023ADF8023002F0EEF8694602F000
:105D4C005CF99DF80C30012B05D0043B012B84BF72
:105D5C0001238DF80C305023ADF804302823ADF816
:105D6C0006300F23ADF808300123ADF80A3002F0ED
:105D7C00D3F8694602F03DF905B05DF804FB10B5A7
:105D8C000446406901F080F9A06801F07DF92046D5
:105D9C0010BD000073B5C66C81600123044683718D
:105DAC007EB90420FEF76FF9054648B102234FF483
:105DBC004062CDE900320449044A3346FFF774FFD0
:105DCC00E56402B070BD00BF14B30B0021610B0081
:105DDC0070B504460020C4E90000A0604E688642FD
:105DEC000D4611DD314601F057F968B12060A6600F
:105DFC00D5E900321A449A4204D013F8011B00F87A
:105E0C00011BF8E76B686360204670BD70B5D0E984
:105E1C0000450E4604EBC505A54206D0314620468A
:105E2C0001F039FC10B90834F6E70024201E18BF25
:105E3C00012070BD70B5D0E900532426044606FB42
:105E4C000356AE4204D02846FFF799FF2435F8E7F5
:105E5C00206801F019F9204670BD38B504460D468E
:105E6C0001F002FC05F1080104F10800FFF7B0FF96
:105E7C0005F1140104F11400FFF7AAFF95F8203086
:105E8C0084F82030204638BD38B5094B8A88036029
:105E9C000D468B798280044683710731073001F0FF
:105EAC00E3FB2B8A2382AB7CA374204638BD00BF56
:105EBC0084B00B00F8B507460C463D46FFF7E4FFEF
:105ECC0004F11406134B45F8143B0FCE0FC596E89E
:105EDC00030045F8040B04F12A03298007F12A0278
:105EEC0004F1420153F8040B42F8040B8B42F9D134
:105EFC001B88138004F144030FCB07F14405543481
:105F0C0085E80F0094E80F0007F1540507C52B80B6
:105F1C003846F8BD2CB40B008842F8B504460D4643
:105F2C00164611D9904210D2A2F16406751AA1F14D
:105F3C0064072C44B74212D01CB131462046FFF7FF
:105F4C00B9FF643E643CF5E709D0B54207D01CB1FB
:105F5C0029462046FFF7AEFF64356434F5E7F8BDFB
:105F6C008842F8B504460D46164614D9904213D211
:105F7C00A2F12406751AA1F124072C44B74218D0BB
:105F8C001CB131462046FFF768FF3046FFF7F7FE9D
:105F9C00243E243CF2E70CD0B5420AD01CB1294671
:105FAC002046FFF75AFF2846FFF7E9FE2435243434
:105FBC00F2E7F8BD2DE9F04104468AB00D462427DE
:105FCC0000F11C086B68002B61D02E6801A83146CB
:105FDC00FFF743FF3046FFF7D2FED5E900323046DB
:105FEC0007FB023206F12401FFF7BAFF6B68013B95
:105FFC006B60A368D80710D501A8FFF739FD60B115
:10600C0001A904F12800FFF701FF30B901A8FFF73F
:10601C00A1FD01A8FFF7B3FED4E7A368990710D43C
:10602C00A3685A071CD501A800F00EFAC0B101A94B
:10603C0004F13400FFF7EAFE90B901A800F02EFD40
:10604C00E7E701A8FEF7B0FB0028E9D001A940461C
:10605C00FFF7DCFE0028E3D101A8FEF711FCD8E71E
:10606C00A3681B070DD501A8FEF76CFD48B101A96B
:10607C0004F14000FFF7CAFE18B901A8FFF7C2F8F7
:10608C00C7E7636D002BC4D001A89847C1E70AB0DD
:10609C00BDE8F0812DE9F0410023C0E900338360B5
:1060AC004E689E4204460F4631DD4FF0240808FB33
:1060BC0006F000F0E1FF054648B3D4E9001208FBF6
:1060CC000212FFF74DFF206800F0DEFF2560A6608E
:1060DC00D7E9006308FB0368B04516D03146284663
:1060EC0001F0C2FA06F1080105F10800FFF770FE95
:1060FC0006F1140105F11400FFF76AFE96F9203041
:10610C0085F8203024362435E6E77B68636020462A
:10611C00BDE8F081F0B51A4C87B04FF47A7623685D
:10612C009B7913B900F03CFEF9E7FFF701FE00F094
:10613C0073FD054623689B79EBB100F06DFD236878
:10614C005B7B401B7343984215D201F0E5FE014680
:10615C00684603F007FB2768694603A8FFF79AFF18
:10616C0003A93846FFF726FF03A8FFF763FE68462E
:10617C00FFF760FEDEE723680122DA71D2E700BF89
:10618C00C4E603202DE9F74FDFF8AC92D9E90053B0
:10619C00044605EB83160027AE4209D0236D2BB1C4
:1061AC006A791AB10121284698476F714035F3E797
:1061BC00DFF88882D8E90053642606FB03560027D3
:1061CC00AE4209D0236D2BB16A791AB10121284650
:1061DC0098476F716435F3E7954FD7E90053242640
:1061EC0006FB03564FF0000AAE420AD0236D33B1C2
:1061FC006A7922B101212846984785F805A02435F3
:10620C00F2E78C4ED6E900534FF0880A0AFB035A8A
:10621C004FF0000B55450DD0236D33B16A7922B187
:10622C0001212846984785F805B02846FFF712FA51
:10623C008835EFE7E379002B00F0DD80D9E90053D6
:10624C004FF0FF0B05EB831AAA4510D095F90430DB
:10625C00227B934208DB236D13B102212846984719
:10626C0085F804B04035EFE701332B71FAE701A84C
:10627C00FFF70AFD0025D9F8042095421ADB01A886
:10628C00FFF70AFDD8E900534FF0640909FB0359E5
:10629C004FF0FF0AA94526D095F90430227B934292
:1062AC001EDB236D13B102212846984785F804A004
:1062BC006435EFE7D9F8003003EB851090F9041042
:1062CC0000290BDA03EB821200F14001FFF71EFCF0
:1062DC00D9F80430013BC9F80430013D0135CAE757
:1062EC0001332B71E4E701A8FFF7CEFC00254FF03A
:1062FC006409D8F8042095421ADB01A8FFF7CCFCFE
:10630C00D7E900534FF0240808FB03584FF0FF095E
:10631C00A84526D095F90430227B93421EDB236DD1
:10632C0013B102212846984785F804902435EFE7ED
:10633C00D8F8003009FB053090F9041000290BDA6D
:10634C0009FB023200F16401FFF7E6FDD8F80430D6
:10635C00013BC8F80430013D0135CAE701332B710C
:10636C00E4E701A8FFF790FC00254FF024087A68B9
:10637C0095421CDB01A8FFF78FFCD6E90057882358
:10638C0003FB07574FF0FF08AF4226D095F830209B
:10639C0095F90430F2B9227B93421BDB236D13B1C8
:1063AC0002212846984785F804808835ECE73B683D
:1063BC0008FB053090F90410002909DA08FB0232B9
:1063CC0000F12401FEF738FA7B68013B7B60013D4C
:1063DC000135CCE701332B71E7E701A8FFF754FC3B
:1063EC0000274FF0880873689F4207DB01A8FFF76E
:1063FC0053FC0023E37103B0BDE8F08F356808FB54
:10640C00075595F90430002B0FDA2846FEF700FCEF
:10641C00D6E9003205F1880108FB02322846FEF766
:10642C00C6FE7368013B7360013F0137DBE700BFB9
:10643C008CE60320A4E60320B8E60320C8E603207C
:10644C008A68096803F070BF30B500F1080589B09F
:10645C001621284601F081FB044688B11F236A46A9
:10646C001621284601F017FBC0B2032807D99DF866
:10647C000030AA2B03D19DF80130FE2B00D0002454
:10648C00204609B030BD01230370CB7843714B68B3
:10649C00C0F806308B68C0F80A308B89C381D1F8FC
:1064AC000E3003614B8A838243881A4403794280FD
:1064BC0001330371704738B5154601220270CA7852
:1064CC0042710A798271053B0446DAB202760531D3
:1064DC00073004F0A1FC62882379154401336580F0
:1064EC00237138BDCB78F3B9012303700A794B794A
:1064FC0003EB02234380CB8883804B7A0A7A1B04FC
:10650C0003EB02638A7A03EB0223CA7A1344836097
:10651C004B7B0A7B1B0403EB02638A7B03EB02239A
:10652C00CA7B1344C36070470123037070B50C79A8
:10653C00E3073AD5062A37D9B1F805305BBA438060
:10654C000723A60709D55D1CEDB295422CD2CE5C73
:10655C0006714D5D45710233DBB2650705D55D1CD7
:10656C00EDB2954220D20233DBB224071CD55C1D60
:10657C00E4B2944218D201229D18EDB20273CE5CA3
:10658C004A5D42EA0622C280DD1C9A1CD2B2EDB2F0
:10659C008E5C4A5D043342EA0622DBB20281CA5C9D
:1065AC000B5D43EA0223438170BD0523C9E700005C
:1065BC0030B50D4689B00446073001F05AF81F2358
:1065CC006A46162105F1080001F065FAC3B2022BE8
:1065DC0028D99DF80020AA2A24D19DF80120FE2A52
:1065EC0020D19DF80220202A28D007D88AB1102A61
:1065FC001AD016491648FEF707F813E0212AF8D1ED
:10660C00042B0FD91A46694604F15400FFF78CFF8E
:10661C0008E0132B06D995F92020694604F11400E3
:10662C00FFF731FF09B030BD052BFBD995F92020C0
:10663C00694604F12A00FFF73EFFF3E7102BF1D176
:10664C00694604F14400FFF74DFFEBE720B30B0064
:10665C00F8E603202DE9F0478B798EB006460D46FF
:10666C00032B26D8DFE803F0021F272D3A4901A897
:10667C0004F03AFC0B24DFF82081DFF82091DFF8DE
:10668C0020A100272A7EFBB29A425BD92B44DA79EF
:10669C000D2A50D8DFE802F01B27292B2D36383A6B
:1066AC00434547494B4D2D4901A804F01DFC0C24D2
:1066BC00E1E70024DFE72A4901A804F015FC0724D0
:1066CC00D9E7284901A804F00FFC0824D3E7264A8F
:1066DC0001AB1819C4F1320100F0E6FC631DDBB20A
:1066EC0001371C46CEE7214AF2E7214AF0E7214A5E
:1066FC00EEE701AB1819204AC4F1320100F0D4FCCA
:10670C00A31DECE71D4AE3E71D4AE1E71D4A01AB77
:10671C001819C4F1320100F0C7FC231DDFE71A4A37
:10672C00F5E71A4AF3E71A4AF1E75246D0E74A4628
:10673C00EDE74246EBE70EA9631C0C44DBB204F810
:10674C00342CCDE73046134901AB224600F02AFE2B
:10675C0030460EB0BDE8F08745B30B0051B30B00CB
:10676C005EB30B0066B30B006FB30B0075B30B007D
:10677C007BB30B0081B30B0087B30B008EB30B0004
:10678C0094B30B009AB30B009FB30B00A4B30B0094
:10679C00A9B30B00BEB30B00B9B30B00B4B30B0021
:1067AC00AEB30B0070B58CB004460D460022C11D73
:1067BC0008A800F0EBFF0A9A0899284603F0A4FDFC
:1067CC0003F0E8FC08A800F0EFFC237D002B62D05E
:1067DC009F492846FDF79EFE03F0DCFC9D492846A8
:1067EC00FDF798FE94F9191003F0F8FC9A49284625
:1067FC00FDF790FE94F82330079394F8223006931B
:10680C0094F82130059394F820300493E37F03939C
:10681C00A37F0293637F0193237FA27E8F49009312
:10682C000646E37E08A800F0BDFD08A93046FFF738
:10683C0007FE08A800F0B8FC89492846FDF76AFE57
:10684C0094F82930039394F82830029394F8273065
:10685C00019394F8263094F824208249009306463C
:10686C0094F8253008A800F09DFD08A93046FFF7E4
:10687C00E7FD08A800F098FC7B492846FDF74AFE86
:10688C00B4F91610237E91FBF3F149B203F0A6FC88
:10689C00284603F069FC94F82A3073B373492846F0
:1068AC00FDF738FE03F076FC70492846FDF732FE02
:1068BC0004F12A01064608A8FFF7CCFE08A93046C9
:1068CC00FFF7BEFD08A800F06FFC62492846FDF7F3
:1068DC0021FE94F92F1003F081FC63492846FDF743
:1068EC0019FEB4F92C1094F82E3091FBF3F149B247
:1068FC0003F074FC284603F037FC94F84430002B6A
:10690C004CD05B492846FDF705FE03F043FC594982
:10691C002846FDF7FFFDB4F846309FED577A07EE99
:10692C00903AF8EEE77A0646C7EE877A17EE900AA9
:10693C0004F07AF841EC100B304603F073FC4F492D
:10694C002846FDF7E7FD94F84930DFED4D6A07EE78
:10695C00103A94F9483007EE903AB8EEC77AF8EE50
:10696C00E77A0646E7EE267A17EE900A04F05CF812
:10697C0041EC100B304603F055FC42492846FDF71C
:10698C00C9FDE16C03F03CFC3F492846FDF7C2FD14
:10699C00216D03F035FC284603F0E6FB94F85430E7
:1069AC00002B4ED039492846FDF7B4FD03F0F2FB1D
:1069BC0030492846FDF7AEFDB4F8561003F00EFC36
:1069CC002E492846FDF7A6FD94F9583094F8592025
:1069DC00DFED2B6A07EE903A07EE102AF8EEE77A15
:1069EC00B8EEC77A002BC8BFE7EE267A0646D8BFAA
:1069FC00E7EE667A17EE900A04F016F841EC100BED
:106A0C00304603F00FFC94F86030BBB120492846A7
:106A1C00FDF780FDB4F95A1003F0E0FB1D49284640
:106A2C00FDF778FDB4F95C1003F0D8FB1A49284641
:106A3C00FDF770FDB4F95E1003F0D0FB284603F0AF
:106A4C0093FB28460CB0BDE8704003F08DBB00BF33
:106A5C00EEB20B00FEB20B00C3B30B00CDB30B00B8
:106A6C00F6B30B00D4B20B00ADB00B00FFB30B00B0
:106A7C0003B40B0007B40B0000007A448CB00B007D
:106A8C000000803B0DB40B0015B40B001DB40B00C3
:106A9C0098B00B009FB00B00A6B00B002DE9F04195
:106AAC00424DCCB0064600274FF064086B68FCB230
:106ABC009C420DDA296808FB0411073133A800F059
:106ACC00D3FD314633A800F0E6FD01370028EDD0A8
:106ADC006B689C425CD1364B019301238DF80930D5
:106AEC000DF10B00042300248DF80A3000F0E7FDB3
:106AFC00304B0193314601A8CDE90644CDE90B4456
:106B0C00ADF814408DF816408DF848408DF858407B
:106B1C008DF86440FFF74CFD01A91AA88DF80840C8
:106B2C00FFF7C8F91AA933A86E68FFF7C3F9D5E9BE
:106B3C0001739F4215DB0137A7420DDD4FF064084E
:106B4C0008FB07F000F098FA0446F0B1D5E9001202
:106B5C0008FB0212FFF7E0F9286800F095FA2C60A8
:106B6C00AF602B686968642202FB063606F164008C
:106B7C0002FB01323146FFF7CFF91EB133A9304683
:106B8C00FFF798F96B6801336B604CB0BDE8F0818E
:106B9C0064235C432B681D1900276F711B59314608
:106BAC005B68284698472F71EFE700BFC8E60320C3
:106BBC0084B00B002CB40B00024B0022C3E9002262
:106BCC009A607047C8E6032008B5024B1B689B68A7
:106BDC00019308BD6802030008B5024B1B68DB6813
:106BEC00019308BD6802030008B5024B1B685B6883
:106BFC00019308BD1802030008B5024B1B689B6883
:106C0C00019308BD1802030008B5024B1B68DB6832
:106C1C00019308BD1802030008B5024B1B685B69A1
:106C2C00019308BD1802030008B5024B1B68DB6D0D
:106C3C00019308BD1802030008B5024B1B689B6842
:106C4C00019308BD7802030008B5024B1B685B6F0B
:106C5C00019308BD7802030008B5024B1B689B6FBB
:106C6C00019308BD7802030008B5024B1B68DB6F6B
:106C7C00019308BD7802030008B5034B1B68D3F8D9
:106C8C008430019308BD00007802030008B5034B63
:106C9C001B68D3F89830019308BD000078020300FC
:106CAC0008B5034B1B68D3F8B430019308BD000042
:106CBC007802030008B5034B1B68D3F8BC30019372
:106CCC0008BD00007802030008B5034B1B68D3F81D
:106CDC00C430019308BD00007802030008B5034BD3
:106CEC001B68D3F8D830019308BD0000780203006C
:106CFC0008B5034B1B68D3F8DC30019308BD0000CA
:106D0C007802030008B5034B1B68D3F8E0300193FD
:106D1C0008BD00007802030008B5034B1B68D3F8CC
:106D2C00E430019308BD00007802030008B5034B62
:106D3C001B68D3F8F030019308BD00007802030003
:106D4C0008B5034B1B68D3F8F430019308BD000061
:106D5C007802030008B5034B1B68D3F8003101938C
:106D6C0008BD00007802030008B5034B1B68D3F87C
:106D7C000431019308BD00007802030008B5034BF1
:106D8C001B68D3F80C31019308BD00007802030096
:106D9C0008B5024B1B685B68019308BD48020300F1
:106DAC0008B5024B1B68DB68019308BD4802030061
:106DBC0008B5024B1B68DB69019308BD4802030050
:106DCC0008B5024B1B685B6C019308BD48020300BD
:106DDC0008B5024B1B68DB6C019308BD480203002D
:106DEC0008B5024B1B685B6D019308BD480203009C
:106DFC0008B5024B1B68DB6E019308BD480203000B
:106E0C0008B5024B1B685B69019308BD6402030063
:106E1C0008B5024B1B68DB68019308BD3C020300FC
:106E2C0008B5024B1B681B69019308BD3C020300AB
:106E3C0008B5024B1B685B69019308BD3C0203005B
:106E4C0008B5024B1B689B69019308BD3C0203000B
:106E5C0008B5024B1B68DB69019308BD3C020300BB
:106E6C0008B5024B1B689B6A019308BD3C020300EA
:106E7C0008B5024B1B681B6C019308BD3C02030058
:106E8C0008B5024B1B681B68019308BD4C0203003C
:106E9C0008B5024B1B685B68019308BD4C020300EC
:106EAC0008B5024B1B681B69019308BD4C0203001B
:106EBC0008B5024B1B685B69019308BD4C020300CB
:106ECC0008B5024B1B689B69019308BD4C0203007B
:106EDC0008B5024B1B68DB69019308BD4C0203002B
:106EEC0008B5024B1B681B6A019308BD4C020300DA
:106EFC0008B5024B1B689B6A019308BD4C0203004A
:106F0C0008B5024B1B685B6B019308BD6002030064
:106F1C0008B5024B1B681B6D019308BD6002030092
:106F2C0008B5024B1B685B6D019308BD6002030042
:106F3C0008B5024B1B685B68019308BD2002030077
:106F4C0008B5024B1B68DB6A019308BD20020300E5
:106F5C0008B5024B1B68DB6C019308BD20020300D3
:106F6C0008B5024B1B685B6D019308BD2002030042
:106F7C0008B5034B1B68D3F88830019308BD00009B
:106F8C002002030008B5034B1B68D3F8943001931F
:106F9C0008BD00002002030008B5024B1B685B68AB
:106FAC00019308BD4002030008B5024B1B689B68A7
:106FBC00019308BD4002030008B5024B1B68DB6857
:106FCC00019308BD4002030008B5024B1B681B6906
:106FDC00019308BD4002030008B5024B1B685B69B6
:106FEC00019308BD4002030008B5024B1B689B6966
:106FFC00019308BD4002030008B5024B1B68DB6916
:10700C00019308BD4002030008B5024B1B681B6AC4
:10701C00019308BD4002030008B5024B1B681B6BB3
:10702C00019308BD4002030008B5024B1B685B6B63
:10703C00019308BD4002030008B5024B1B681B6C92
:10704C00019308BD4002030008B5024B1B685B6C42
:10705C00019308BD4002030008B5024B1B689B68F6
:10706C00019308BD4402030008B5024B1B68DB6B9F
:10707C00019308BD4402030008B5024B1B681B6852
:10708C00019308BD1C02030008B5024B1B685B682A
:10709C00019308BD1C02030008B5024B1B689B68DA
:1070AC00019308BD1C02030008B5024B1B68DB6989
:1070BC00019308BD1C02030008B5024B1B685B6AF8
:1070CC00019308BD1C02030008B5024B1B68DB6A68
:1070DC00019308BD1C02030008B5024B1B681B6B17
:1070EC00019308BD1C02030008B5024B1B681B6C06
:1070FC00019308BD1C02030008B5024B1B685B6CB6
:10710C00019308BD1C020300002240681146FFF7E2
:10711C007BBF002240681146FFF786BF4068002203
:10712C00FFF77ABF4068002281F00101FFF764BFCE
:10713C00002340681A461946FFF756BF00234068E3
:10714C001A461946FFF748BF002240681146FFF760
:10715C003BBF002240681146FFF726BF4068002263
:10716C000221FFF729BF002340681A46FFF714BF1E
:10717C00024B03225A60024A1A607047D4E603207D
:10718C003CB40B00054B02221A60054B054A9A6071
:10719C000020C3E90000FFF7CBBE00BFE8E60320E8
:1071AC00DCE603200000FFFF10B504460068FFF783
:1071BC006BFF204610BD10B50446006808B1FFF700
:1071CC0063FF0023C4E90133236010BD38B50446C6
:1071DC000D4600680131FFF75FFF10B1C4E90005EF
:1071EC00012038BD10B50368044623B143688B42B7
:1071FC0001D3012010BD2046FFF7E8FF0028F9D08D
:10720C00A368002BF5D122681370F2E737B50D4651
:10721C00114601920446FFF7E5FF019A28B9204672
:10722C00FFF7C9FF204603B030BDA2602946206895
:10723C0003F0F2FD2268A3680021D154F2E7002389
:10724C0013B5C0E9003304468360037341B10846AB
:10725C00019103F06EFE019902462046FFF7D6FF1E
:10726C00204602B010BD38B5054600680C4668B122
:10727C006A688B689A4207D3096803F035FEA368E5
:10728C00AB600023A36038BDFFF7FEFE23682B60C4
:10729C0063686B60A368AB600023C4E90033F1E75B
:1072AC0010B50023C0E90033044683600373FFF775
:1072BC00DAFF204610BD884210B5044605D00B6895
:1072CC002BB18A681946FFF7A1FF204610BDFFF7C6
:1072DC0072FFFAE710B500230446C0E9003383605F
:1072EC000373FFF7E8FF204610BD13B5044659B1F0
:1072FC000846019103F01DFE019902462046FFF756
:10730C0085FF204602B010BDFFF755FFF9E770B5B9
:10731C0005460E4609B9002070BD6AB18468144454
:10732C002146FFF75FFF0028F5D02868AB6831468F
:10733C00184403F0D9FDAC600120EDE707B500233C
:10734C008DF80410012201A98DF80530FFF7DFFF3D
:10735C0003B05DF804FB02680B46096862B141B9E1
:10736C00806860B110787047986840B109784842DD
:10737C007047104603F0AEBD0029F5D108467047A2
:10738C0008B582688B689A4205D1FFF7E4FFB0FA22
:10739C0080F0400908BD0020FCE708B5FFF7DBFFD3
:1073AC00C00F08BD0EB470B587B00BAD044655F8D0
:1073BC00042B01922B46052104A80395FFF77CFEB4
:1073CC000B4906462046FFF73AFF31462046FFF7A9
:1073DC0009FF206830B1019A03952B46711CFFF709
:1073EC006BFEA060204607B0BDE8704003B070474C
:1073FC0078B00B007047704770477047064B994246
:10740C0010B500F10C0405D0084603F097F80028DD
:10741C0008BF0024204610BDE0B60B00064B994275
:10742C0010B500F10C0405D0084603F087F80028CD
:10743C0008BF0024204610BDE0B60B00064B994255
:10744C0010B500F10C0405D0084603F077F80028BD
:10745C0008BF0024204610BDE0B60B0010B5682113
:10746C000446FCF714FE204610BD10B52821044636
:10747C00FCF70DFE204610BD10B530210446FCF77C
:10748C0006FE204610BD6821FCF701BE2821FCF742
:10749C00FEBD3021FCF7FBBDF0B50025EC1C8C4289
:1074AC000DD86E1C445D875D974205D12644B142D0
:1074BC0005D31D60601CF0BD01342544EEE70020AF
:1074CC00F9E70000024A03490A20FFF719BD00BF83
:1074DC00156C0B0070B40B0030B40D4611461A46F7
:1074EC00036809682868D3E90043A44630BC6047A8
:1074FC00012A38B5044602D10B68236003E0022A46
:10750C0003D0032A0DD0002038BD08200D68FCF7ED
:10751C00BAFD03460028F0D095E8030083E8030089
:10752C00EBE700680028EED00821FCF7B0FDEAE795
:10753C0010B5836804462BB10322014698470023FB
:10754C00C4E9023310BD10B5836804462BB1032285
:10755C00014698470023C4E9023310BD10B500233F
:10756C008AB02022CDE902230446084A0092084939
:10757C0002AA0120FFF7CCFC2068064900880023F2
:10758C0022460AB0BDE81040FFF794BB92B40B0042
:10759C0087B40B0059900B0010B5013802EB410178
:1075AC0010F8013F1B0903F13004392C88BF03F19B
:1075BC00370402F8024B037803F00F0303F1300495
:1075CC00392C88BF03F13704914202F8014CE7D102
:1075DC0010BD10B504465830FDF7F6F904F148001B
:1075EC00BDE81040FFF7E0BD38B503688B42054697
:1075FC000C4608D011B14B6801334B60286808B1B8
:10760C00FDF7EBF92C6038BDA0F13003DAB2092A92
:10761C0001D818467047A0F16103052B01D85738E3
:10762C007047A0F14103052B94BF37384FF0FF3062
:10763C007047000010B500230370044B0446186813
:10764C00FFF7C6FB01232370204610BDF0E6032094
:10765C0010B5037804461BB1024B1868FFF7C0FB4A
:10766C00204610BDF0E603200A6802604A684260BA
:10767C0070470A6802604A684260704782B00346ED
:10768C00086849686A4603C26A4603CA1860184605
:10769C00596002B0704708B582798B799A4206D14D
:1076AC00062203F0A9FBB0FA80F0400908BD0020C7
:1076BC00FCE74FF0FF33036083800020704708B570
:1076CC000246002101604160FFF7F3FF9171104603
:1076DC0008BD10B5431D01391C7801F8014F8342D8
:1076EC0003F1FF33F8D110BD70B5144688B01A46BB
:1076FC000D46002948D0A4B101A9FFF7EAFF9AB1C1
:10770C0003AA062101A8661EFFF746FF112E28BF0B
:10771C001126324603A9284603F07EFB0023AB5505
:10772C00741C204608B070BD03AA012101A8FFF704
:10773C0033FF3A260DF10F0201210DF105008DF8F2
:10774C000E60FFF729FF0DF1120201210DF1060069
:10775C008DF81160FFF720FF0DF1150201210DF1DD
:10776C0007008DF81460FFF717FF06AA012102A885
:10777C008DF81760FFF710FF8DF81A600DF11B02E2
:10778C0001210DF10900BEE70C46CAE710B586B021
:10779C00044613460846122201A9FFF7A5FF01A9CA
:1077AC002046FFF74CFD204606B010BD10B5012356
:1077BC000361054B024603F1100153F8044B42F8E8
:1077CC00044B8B42F9D110BDEEB60B000B7C13F0C1
:1077DC00FD0330B50DD103610C4B024603F11004CF
:1077EC0053F8045B42F8045BA342F9D10B88838104
:1077FC0030BD0123036101F11002034651F8044B23
:10780C0043F8044B9142F9D1F2E700BFEEB60B00FE
:10781C0010B50B460446B1B1012A01F110020AD190
:10782C00014653F8040B41F8040B9342F9D10123A0
:10783C002361204610BD411E12F8010D01F8010F05
:10784C009A42F9D1F3E7102203F00EFBF1E738B5B9
:10785C0004460D46FFF7AAFF00232361A5812046AD
:10786C0038BD08B502690B699A4206D1102203F0A3
:10787C00C3FAB0FA80F0400908BD0020FCE7000014
:10788C0001232DE9F3410361344B0C4606460246B5
:10789C0003F1100153F8040B42F8040B8B42F9D19D
:1078AC0044B32421204603F04CFB04284FF0000580
:1078BC0023D1ADF8045001AFA51C063415F8020C09
:1078CC00FFF7A2FEB0F1000812DB15F8010CFFF770
:1078DC009BFE00280CDB023540EA0810A54207F895
:1078EC00010BEBD19DF8053033739DF804307373A5
:1078FC000023336102B0BDE8F0814FF01008242161
:10790C00204603F01EFBA84207D842460021304611
:10791C0002B0BDE8F04103F0A7BAB8F1000FE9D00E
:10792C00605DFFF771FE030615D4000108F1FF3806
:10793C00C7B206F808702421204603F002FB01357B
:10794C00A84208D9605DFFF75FFE40B20028A4BFD3
:10795C00384306F808000135D1E700BFEEB60B003E
:10796C0013B504460191FFF721FF20460199FFF75B
:10797C0087FF204602B010BD10B500F10F0301398E
:10798C001C7801F8014F834203F1FF33F8D110BD8D
:10799C002DE9F0411F468EB00D4600295BD0DAB1BF
:1079AC00D0F81080541EB8F1000F19D18389CDF88E
:1079BC0014805BBA05AA022101A8ADF80430FFF7C8
:1079CC00EBFD042C28BF0424224605A9284603F00D
:1079DC0023FA05F80480621C10460EB0BDE8F08155
:1079EC0001A9FFF7C9FF05AA7FB1102101A8FFF774
:1079FC00D3FD242C28BF2424224605A9284603F0B5
:107A0C000BFA00232B55621CE6E704210DEB010059
:107A1C00FFF7C2FD2D260DF11D02022102A88DF8E3
:107A2C001C60FFF7B9FD0DF1220202210DF10A00D5
:107A3C008DF82160FFF7B0FD0DF12702022103A89C
:107A4C008DF82660FFF7A8FD8DF82B600BAA062198
:107A5C000DF10E00CBE70A46BEE710B58AB004461E
:107A6C000023252208466946FFF792FF6946204607
:107A7C00FFF7E5FB20460AB010BD10B5034644687D
:107A8C00084631B1944228BF14461968224603F0C7
:107A9C00C3F9204610BDF7B5054616461F460A46E3
:107AAC0001ABD0E90001FFF7F7FC30F002040CD079
:107ABC00841EBC4228BF3C463EB101992B68023162
:107ACC0022461944304603F0A7F9204603B0F0BD16
:107ADC0037B513460C4601920A4608210546FFF7B6
:107AEC00DAFF40B9019B22460921284603B0BDE8C4
:107AFC003040FFF7D0BF03B030BD0000F0B50C46EE
:107B0C0089B00C490546FFF79AFB1F2269462046AF
:107B1C00FFF7DEFF064650B16C46002714F8011B38
:107B2C002846FFF70BFC10B10137BE42F6D12846B0
:107B3C0009B0F0BD78B00B0013460A46FF21FFF7E1
:107B4C00AABF07B5022301AA1921FFF7A4FF08B1A8
:107B5C00BDF8040003B05DF804FB07B50A4601ABA1
:107B6C00D0E90001FFF798FC003818BF012003B0E2
:107B7C005DF804FB38B54FF6FF73002504464380CF
:107B8C000E22294605700571063003F06DF904F1DB
:107B9C001400FFF70BFE04F12800FFF707FE044961
:107BAC0004F13C00FFF74BFB6565204638BD00BF78
:107BBC0078B00B0038B50D680446014605F1280075
:107BCC00FFF74FFE40B1AB89A28A9A4205D8E08AF2
:107BDC00984234BF0020012038BD0020FCE710B5CE
:107BEC00D0E9063203EBC2029342184606D0046871
:107BFC0024888C4203F10803F6D110BD0020FCE769
:107C0C00002370B5036005466820FCF73CFA041E9F
:107C1C0004F10C0607D00123C4E90133044B2360A3
:107C2C003046FFF7A7FFC5E90064284670BD00BFCA
:107C3C0094B60B0070B50C681434064605460FCC90
:107C4C000FC523682B60304670BD0000F0B50646AA
:107C5C0085B01F460D46002950D0002A4ED004682E
:107C6C002378F42A28BFF42243B32379980709D543
:107C7C00A08903920023FFF713F80028039A03DA74
:107C8C0005B0F0BD6FF0770034682379D90609D5BB
:107C9C00012F07D0A0890023294605B0BDE8F0408C
:107CAC00FFF758B89B06EBD5022FE9D0A08900232B
:107CBC00294605B0BDE8F040FFF756B860884FF68E
:107CCC00FF7188421CD021794E0701D5012F04D1B8
:107CDC000B0709D46FF07700D2E7A1890093134604
:107CEC002A46FFF705F8CBE7022FF3D00023A18932
:107CFC00009313462A46FEF7F1FFC1E70248BFE79F
:107D0C006FF0D100BCE700BFF2FEFFFF10B50368B7
:107D1C001A7886B052BB5C884FF6FF70844225D02F
:107D2C00188A30B3CDE903220592134A0092134A04
:107D3C00CDE901235A88ADF80C201A8AADF80E2033
:107D4C009A89ADF8102059B11A79920644BF0222D3
:107D5C0005921B79DB0642BF059B43F0010305939B
:107D6C0000216846FEF7ECFF06B010BD6FF0D100A5
:107D7C00FAE76FF07700F7E7030018005D7F0B0060
:107D8C00F8B50026066005462820FCF77CF9041E91
:107D9C0004F10C070AD00123C4E90133054B23601D
:107DAC003846FFF703FD266284F82460C5E90074A9
:107DBC002846F8BDB0B60B0070B500250560064628
:107DCC003020FCF760F9044688B10123C0E9013387
:107DDC00094B03604FF6FF7383810E30FFF76FFC86
:107DEC00C4E90655C4E90855C4E90A55A57574607B
:107DFC000C343460304670BDCCB60B0013B5044661
:107E0C0001A8FFF717FC23681C884FF6FF73E41AD0
:107E1C0001A818BF0124FFF71BFC204602B010BDBF
:107E2C0037B505460C4601A8FFF704FC2A68236801
:107E3C00C2F802306368C2F8063001A8FFF708FCEC
:107E4C0003B030BD37B50D46044601A8FFF7F2FB71
:107E5C002A68D2F802302360D2F80630636001A899
:107E6C00FFF7F6FB204603B030BD30B5054687B0B2
:107E7C000C4601A8FFF7DEFB2A68236812881B88D2
:107E8C009A420DD1294602A8FFF7DCFF214604A82F
:107E9C00FFF7D8FF04A902A8FFF7FDFB044600B9C1
:107EAC00002401A8FFF7D4FB204607B030BD00002A
:107EBC0010B504466420FCF7E6F868B10023C0E96D
:107ECC000033C0E90233C0E90433C0E9063303626E
:107EDC00C362C363C364C365206020B90A4A0B49FB
:107EEC000A20FFF70DF80020FEF7A6FE20B1064A87
:107EFC0007490A20FFF704F8216806480022FEF71C
:107F0C0015FF204610BD00BF156C0B0070B40B00A4
:107F1C00AEB40B0049880B0010B50A4C2378BFF3A4
:107F2C005B8FDB070CD42046FCF7B3F840B1064856
:107F3C00FFF7BEFF2046FCF7B1F8044802F04EFFF5
:107F4C00014810BDECE60320F4E60320B5810B00DC
:107F5C0030B50368093B012B8DB004460D4611D892
:107F6C00FFF7DAFFA1880068FFF739FE034658B91E
:107F7C002022CDE904200B4A00920B4904AA32209E
:107F8C00FEF7C6FF0DB030BD6A6D002AFAD0D4E9F9
:107F9C00032105F14C00CDE90312AC6D04AA03A931
:107FAC00A047EFE7F0B40B0087B40B0008B5002036
:107FBC00FEF742FE00EAE07008BD002247F67F7132
:107FCC00C0E90022C0E90222C0E90422C0E90E2265
:107FDC00C0E91022C0E91222C0E91422C0E916221D
:107FEC00C0E91822C0E91B2202620263A0F86810E3
:107FFC00704708460021FEF727BE08460021FEF711
:10800C002BBE0B6800211888FEF7B8BE70B5D0E9FE
:10801C000053044605EB0316AE4204D02846FFF786
:10802C00C3F81035F8E72068FFF72EF8204670BD2E
:10803C0010B504460068FFF727F8204610BD70B550
:10804C000446C06DFFF720F8206DFFF71DF804F112
:10805C00380504F14400FFF7EBFF2846FFF7D6FF85
:10806C0004F12800FCF7B0FC04F11800FCF7ACFCA0
:10807C00D4E90053242606FB0356AE4204D028460E
:10808C00FDF77DFE2435F8E72068FEF7FDFF20465E
:10809C0070BD38B5141E4368054602DB62189A425F
:1080AC0000DD5C1A2A68501801191A44521A02F0A1
:1080BC00C1FE6A68121B6A6038BD000038B5002327
:1080CC000446836008200D46FBF7DDFF18B12B68D2
:1080DC0003606B684360034BE360034B2060A36059
:1080EC00204638BDE5740B00FD740B0010B551F83B
:1080FC00043B044640F8043BFCF77CFD23680BB9B9
:10810C00FFF7E0F9204610BD10B551F8043B0446CA
:10811C0040F8043BFCF76EFD204610BD10B551F83D
:10812C00043B044640F8043BFCF764FD204610BDBC
:10813C0010B504460430FCF755FD204610BD10B5B3
:10814C0004460430FCF74EFD204610BD70B5D0E956
:10815C000053044605EBC306AE4204D0281DFCF7C1
:10816C0041FD0835F8E72068FEF78EFF204670BD0C
:10817C0070B5D0E90053044605EBC306AE4204D0FB
:10818C00281DFCF72FFD0835F8E72068FEF77CFF6B
:10819C00204670BD10B504462430FFF7E9FF04F10A
:1081AC001800FFF7D3FF10BD70B5174B1C6854B304
:1081BC0004F15400FCF708FC04F14400FCF704FC47
:1081CC0004F13400FCF700FC04F12400FCF7FCFB88
:1081DC00D4E9065305EBC306AE4204D0281DFCF7C8
:1081EC0001FD0835F8E7A069FEF74EFF04F10C001D
:1081FC00FFF7BEFF2046FFF7A9FF20466421BDE82C
:10820C007040FBF744BF70BDF4E60320826810B5E4
:10821C000AB902F090F9BDE81040C36818472DE97F
:10822C00F0470023C0E900338360D1F804809845FF
:10823C0005460F464ADD4FEA0810FEF71DFF0646BD
:10824C00002843D0D5E90041A04204EB011A16D90D
:10825C00504515D2AAF1100AA4F11009AAEB040496
:10826C000444D1451DD01CB151462046FFF718F8E7
:10827C005046FEF799FFAAF1100A103CF1E710D016
:10828C00B146A2450DD0B9F1000F03D021464846A6
:10829C00FFF706F82046FEF787FF103409F11009A6
:1082AC00EFE72868FEF7F0FEC5F808802E60D7E9E6
:1082BC00004304EB0318A04506D021463046FFF7D7
:1082CC0009F810341036F6E77B686B602846BDE879
:1082DC00F08730B58DB00C4600F1380101A8FFF7DE
:1082EC009EFF029B002B2FDD04F1140104A8FFF765
:1082FC0005FC04F1080108A8FFF700FC0A9A069B8C
:10830C0013431FD0DDE9014504EB0515AC4219D030
:10831C0004A92046FFF734F860B1012408A8FEF741
:10832C0043FF04A8FEF740FF01A8FFF76FFE2046AD
:10833C000DB030BD204608A9FFF722F810340028F4
:10834C00E4D0EAE70024E9E70124EDE7F8B50023DF
:10835C00C0E9003383604F689F4205460E463EDD00
:10836C00F800FEF789FE0446C8B3D5E90003844241
:10837C0000EBC30310D99C420FD2083B1A1AA0F190
:10838C00080C22449C4518D01AB119681160596820
:10839C005160083B083AF5E70FD0014622468B4264
:1083AC000BD03AB1D1F800C0C2F800C0D1F804C06B
:1083BC00C2F804C008310832F1E7FEF765FE2C6004
:1083CC00AF60D6E9003103EBC100984206D01A68C1
:1083DC0022605A68626008330834F6E76960284600
:1083EC00F8BD70B504460020C4E90000A0604E68DA
:1083FC0086420D4612DD7100FEF74EFE70B1206014
:10840C00A660D5E9003203EB42029A4204D033F85D
:10841C00021B20F8021BF8E76B686360204670BDF6
:10842C0010B50379044623B90368186808B1FEF740
:10843C002BFE204610BD10B50379044623B9036802
:10844C00186808B1FEF720FE204610BD2DE9F04358
:10845C00D0F86C808FB00F46B8F1000F72D0056F5A
:10846C00002D6FD001F114091F230022FF21484673
:10847C00FFF711FB0837FF23044600221946384644
:10848C00FFF709FBAC42064606D0AE4230D00024C2
:10849C0020460FB0BDE8F0832046FEF7EDFD03ABA0
:1084AC0004930023044603908DF8143070B92023F4
:1084BC00CDE90630244B00932449034606AA32200A
:1084CC00FEF726FD04A8FFF7ABFFE1E70246FF210C
:1084DC002B464846FFF7DFFA03982A46414602F03E
:1084EC008BFC18B104A8FFF79BFFCEE70124E9E74A
:1084FC002846FEF7C1FD002403AB06460390049307
:10850C008DF8144078B92023CDE906300E4B00933A
:10851C000E49034606AA3220FEF7FAFC344604A89C
:10852C00FFF789FFB4E70246FF212B463846FFF7D9
:10853C00B2FA03982A46414602F05EFC0028EED1BE
:10854C000124ECE70124A3E708B50B0087B40B006A
:10855C0038B50D1E0446006803DDFEF79DFD18B905
:10856C0038BDFEF791FD00202060A5600120F7E7E3
:10857C0008B583688B4202DAFFF7EAFF08BD0120D9
:10858C00FCE71FB5044601A8FDF722FC019B029AEB
:10859C002068236063686260039A0293A368A260F8
:1085AC0001900393FEF770FD04B010BD2DE9F0416E
:1085BC000F4641681D46194483689942044690460B
:1085CC0012DC266862683E44D21B3146701902F0F8
:1085DC0031FC2A464146304602F01EFC63682B44AF
:1085EC0063600120BDE8F081FFF7B2FF0028E8D1FD
:1085FC00F8E713460A46002110B50446416002B163
:10860C000BB9002010BDFF2B28BFFF23FFF7CEFFB7
:10861C000028F7D06068F5E7F8B50D46D0E90113EE
:10862C009942044616460BDA276862687919521B80
:10863C00481C02F0FFFB7E55636801336360F8BD94
:10864C000131FFF785FF0028EED1F8E70A464168B3
:10865C00FFF7E2BF2DE9F74304461D460F4601AB79
:10866C0090460A46D0E900019DF82890FEF714FFC9
:10867C00AE1C63680246B9F1000F26D128B333440F
:10868C001B1AFF2B09D801992046FFF702FD6168E0
:10869C0020463144FFF76CFF18B9606803B0BDE8A1
:1086AC00F0836A1C0199D2B22046FFF7B5FF0199FD
:1086BC003A4601312046FFF7AFFF01992B4642465F
:1086CC0002312046FFF772FFE7E7F118FF29E4D8E3
:1086DC002046FFF74DFF0028DFD0691CC9B22046A9
:1086EC00FFF7B4FF39462046FFF7B0FF61682B4611
:1086FC004246E6E730B49DF808501AB1029530BCFA
:10870C00FFF7A8BF406830BC70471FB50023C0E915
:10871C00003383600622009301238DF80F20194645
:10872C000DF10F020446FFF7E5FF204604B010BD23
:10873C008842F8B504460D46164614D9904213D219
:10874C00A2F10806751AA1F108072C44B74218D0FB
:10875C001CB131462046FFF7E1FC301DFCF742FA14
:10876C00083E083CF2E70CD0B5420AD01CB12946B1
:10877C002046FFF7D3FC281DFCF734FA08350834E3
:10878C00F2E7F8BDF7B5044646686846FFF7C6FC45
:10879C00D4E901739F4212DB0137002F29DDF80069
:1087AC00FEF76AFC0546F0B1D4E9001201EBC202F7
:1087BC00FFF7BEFF2068FEF767FC2560A760236803
:1087CC00626803EBC60603EBC202314606F10800F1
:1087DC00FFF7AEFF1EB169463046FFF79FFC63689A
:1087EC0001336360012501A8FCF7FCF9284603B0AE
:1087FC00F0BD0025DEE7F8B5D0E9004305460F468D
:10880C0004EBC306A64205D039462046FFF72DFBE4
:10881C0008B114B9F8BD0834F4E7201DFCF7E2F9EF
:10882C00D5E9003204F1080103EBC2022046FFF740
:10883C007FFF6B68013B6B60ECE700002DE9F041BA
:10884C0005468EB003A80C46FEF7F4FE2E68F31E08
:10885C000D2B3CD8DFE813F00E0053003B00D10089
:10886C003B003B003B003B003B009B009B009B0004
:10887C009B009B0004A8FFF79FFA049BAA891A800F
:10888C006968049808310230FEF7F8FE04A906A8BE
:10889C00FFF744FC06A904F11800FFF773FF054627
:1088AC0007A8FCF79FF920230693B5B95D4B5E49E9
:1088BC00009332202B4606AA0795FEF729FB049B52
:1088CC0029461888FEF7E2F905A8FCF78BF903A8EE
:1088DC00FEF7BEFE0EB0BDE8F081544A00920023B4
:1088EC005149079306AA0120FEF712FBE36A002BFD
:1088FC00EAD004A904F12400FFF788FCE4E7A98975
:10890C002046FFF76CF906460028E0D00568D5E94B
:10891C0006324FF6FF71298003EBC2029A4203D054
:10892C0053F8080B4180F9E7D5E9037307EBC3084B
:10893C00B84504D0381DFCF755F90837F8E7002383
:10894C002B61D5E9067307EBC308B84504D0381D75
:10895C00FCF748F90837F8E70023EB61AB72E36BDF
:10896C0023B1314604F13400FFF750FC00232022E0
:10897C00CDE906232E4A00922B4906AA0120FEF7C8
:10898C00C7FA314604F11800FFF735FF9FE7A989B4
:10899C002046FFF724F9002899D0E36C002B96D0E1
:1089AC0000230D2EADF8163001D0102E17D1002358
:1089BC0069681A4606258DF8153004918DF8142037
:1089CC000690DDE9040109AB8DF81C60089583E87D
:1089DC000300236D06A904F14400984777E70F2E96
:1089EC0001BF2B7A696803F0010208250FBFC3F39E
:1089FC0040031A4619461D46DDE7A9892046FFF7B4
:108A0C00EEF8014600283FF462AFE36D002B3FF413
:108A1C005EAF6B68069306AA236E04F15400984768
:108A2C0055E700BF23B50B0087B40B0049B50B000D
:108A3C0066B50B0013B50446FFF7E0F9D0B1236817
:108A4C0000211888FEF722F9002811DB01A8FEF797
:108A5C00F1FDFFF761FA006821461830FFF7CBFEF5
:108A6C0023684FF6FF721A8001A8FEF7F1FD002073
:108A7C0002B010BD6FF0D100FAE738B50D1E0446F8
:108A8C00006805DD14216943FEF706FB18B938BDF3
:108A9C00FEF7FAFA00202060A5600120F7E72DE927
:108AAC00F8430024C0E90044846088464968A14228
:108ABC0007461ADDFFF7E1FFB8B1D8E900934FF094
:108ACC00140CD7F800E00CFB039C09EB0405AC4537
:108ADC0008D01EEB04061FBF0FCD0FC62B683360EA
:108AEC001434F2E7D8F804307B603846BDE8F883DC
:108AFC002DE9F843D1E9008745688368E919994263
:108B0C00044617DC1423266862685D4303FB07F9EF
:108B1C005A432E44521B314606EB090002F08AF9E7
:108B2C004A464146304602F077F963683B4463603D
:108B3C00BDE8F883FFF7A1FF0028E3D1F8E782B086
:108B4C0070B50C4604A981E80C00D0E901139942D8
:108B5C00054617DA142303FB04F16A682C685A43A0
:108B6C000C44521AE018214604AE02F063F90FCE01
:108B7C000FC4336823606B6801336B60BDE87040D1
:108B8C0002B070470131FFF778FF0028E2D1F5E71A
:108B9C002DE9F04F002493B0931EC0E90044DBB2E2
:108BAC0005460F4690468460059379688C4272DACC
:108BBC00386807AB4246091B2044FEF76DFC06469D
:108BCC00002868D0059B012B2FD8A0F1020B4FEA8F
:108BDC005B0B4FF000090DF13C0A079BCB4523447E
:108BEC0055D03A6803EB4903134408A8D9789B780D
:108BFC0043EA0121FEF72BFE0DF1200EBEE80F001B
:108C0C000DF1340CACE80F00DEF80030CCF800307D
:108C1C009AE807008DE807000DAB0CCB6968284675
:108C2C00FFF78DFF09F10109D7E7A8F10603012B26
:108C3C002DD8A0F1020B4FEA1B1B4FF000090DF1D0
:108C4C003C0ACB45079B22D002333968234403EB03
:108C5C0009130122194408A8FEF7DAFD0DF1200EC4
:108C6C00BEE80F000DF1340CACE80F00DEF800305C
:108C7C00CCF800309AE807008DE80700DDE90D23F9
:108C8C0069682846FFF75BFF09F10109D9E7079BE3
:108C9C001C44344489E7284613B0BDE8F08F30B546
:108CAC00002385B0C0E9003383600446022201A88A
:108CBC000D46FFF76DFF01A92046FFF719FF01A82C
:108CCC00FFF7B6F90222294601A8FFF761FF01A9B7
:108CDC002046FFF70DFF01A8FFF7AAF9032229464A
:108CEC0001A8FFF755FF01A92046FFF701FF01A8D6
:108CFC00FFF79EF90622294601A8FFF749FF01A9B3
:108D0C002046FFF7F5FE01A8FFF792F90722294646
:108D1C0001A8FFF73DFF01A92046FFF7E9FE01A8D6
:108D2C00FFF786F9204605B030BD2DE9F04F8BB02A
:108D3C000C4600F1440101A8FFF7B1FE029B002B89
:108D4C004ADD04F1140104A8FFF7A9FF04F108019E
:108D5C0007A8FFF7A4FF059D089E002D01DC002E3F
:108D6C0038DD019A029FDDF81080DDF81C90142389
:108D7C0003FB072703FB058503FB06969246BA45C2
:108D8C0028D0C346AB4515D059465046FEF769FD71
:108D9C000BF1140B04460028F4D007A8FFF748F990
:108DAC0004A8FFF745F901A8FFF742F920460BB0DC
:108DBC00BDE8F08FCB46B34509D059465046FEF777
:108DCC0050FD0BF1140B04460028F4D0E5E70AF132
:108DDC00140AD4E70024E0E70124E4E738B505469B
:108DEC000C46FCF7D2F9AB68A268AA60A360EB68EA
:108DFC00E268EA60E36038BD30B585B000230293C9
:108E0C008B6805460C4633B1022268469847E368E6
:108E1C000393A368029329466846FFF7DFFF684671
:108E2C00FBF7D2FD05B030BD38B50D4601684B6D72
:108E3C00044623B128684C314C30FFF7DDFF204647
:108E4C002B6840F8043B6968FEF7CEFB204638BD22
:108E5C002DE9F043044687B068460E461746FEF7E8
:108E6C00E9FB2368D3E9064304EBC3084445A14658
:108E7C0016D0214601A8FEF7DDFE394601A8FEF703
:108E8C00F0FC083405460028F0D049463046FFF780
:108E9C00CBFF6846FEF7DCFB284607B0BDE8F08345
:108EAC000025F6E710B504688AB04C34B9B1CDE9A9
:108EBC00001202A86946FFF701F9002306A902A8CF
:108ECC000893FFF78BFF214606A8FFF787FF06A83C
:108EDC00FBF77AFD02A8FBF777FD0AB010BD0491F1
:108EEC00EBE78842F8B504460D46164614D9904275
:108EFC0013D2A2F10806751AA1F108072C44B74247
:108F0C0018D01CB131462046FFF7FEF8301DFBF798
:108F1C0069FE083E083CF2E70CD0B5420AD01CB101
:108F2C0029462046FFF7F0F8281DFBF75BFE0835B5
:108F3C000834F2E7F8BD70B50E1E054611DDF000E1
:108F4C00FEF79AF8044658B1D5E9001201EBC202BB
:108F5C00FFF7C7FF2868FEF797F82C60AE6001207A
:108F6C0070BD0024F6E72DE9F0410023C0E9003381
:108F7C0083600D4649689942044613DDFFF7DBFF19
:108F8C0080B1D5E90063276806EBC308B04507D06C
:108F9C001FB131463846FFF7B7F808360837F5E702
:108FAC006B6863602046BDE8F08137B50D4604461A
:108FBC0001A8FEF73FFB296820460C31FFF7D3FFD1
:108FCC0001A8FEF745FB204603B030BD38B50B6851
:108FDC009B7A05460C4633B90846FEF7BFFA10B922
:108FEC00236801229A7228462146FFF7DEFF2846A5
:108FFC0038BD73B5044645686846FFF785F8D4E973
:10900C000113994210DA2368626803EBC50503EB80
:10901C00C202294605F10800FFF763FF8DB96368AA
:10902C0001336360012606E001312046FFF783FF20
:10903C0006460028E7D101A8FBF7D4FD304602B064
:10904C0070BD69462846FFF75FF8E8E72DE9F04F59
:10905C00DFF8B890DFF8B8A093B005468846002733
:10906C002B68BB424ED903A8FEF78AFE1C266A6801
:10907C00039C7E4332440DF1140C131DE346143251
:10908C0018685968E646AEE8030008339342F44684
:10909C00F6D11868CEF8000059460AA8FEF796FBE0
:1090AC000DF1280CBCE80F000FC4DCF80030236075
:1090BC006B68039A334403A91B8B93826B6833440C
:1090CC005B8BD382D8F8000000F10C040AA8FFF7E0
:1090DC001BF820460AA9FFF78CFF04460BA8FBF7E8
:1090EC0081FD54B92023CDE90A34CDF800902346F4
:1090FC000AAA51463220FDF70BFF04A8FBF772FDBC
:10910C000137ADE713B0BDE8F08F00BF85B50B009C
:10911C0087B40B008842F8B504460D46164614D9A0
:10912C00904213D2A2F10806751AA1F108072C443B
:10913C00B74218D01CB131462046FEF7D7FF301D80
:10914C00FBF750FD083E083CF2E70CD0B5420AD0C4
:10915C001CB129462046FEF7C9FF281DFBF742FD2E
:10916C0008350834F2E7F8BD70B50E1E054611DD62
:10917C00F000FDF781FF044658B1D5E9001201EB70
:10918C00C202FFF7C7FF2868FDF77EFF2C60AE60B8
:10919C00012070BD0024F6E72DE9F0410023C0E961
:1091AC00003383600D4649689942044613DDFFF78E
:1091BC00DBFF80B1D5E90063276806EBC308B04537
:1091CC0007D01FB131463846FEF790FF08360837F6
:1091DC00F5E76B6863602046BDE8F08137B50D4656
:1091EC00044601A8FEF726FA296820461831FFF735
:1091FC00D3FF01A8FEF72CFA204603B030BD73B59F
:10920C00044645686846FEF771FFD4E9011399429C
:10921C0010DA2368626803EBC50503EBC20229462A
:10922C0005F10800FFF776FF8DB9636801336360C1
:10923C00012606E001312046FFF796FF064600287E
:10924C00E7D101A8FBF7CEFC304602B070BD6946F1
:10925C002846FEF74BFFE8E7F0B585B0054601A8B8
:10926C000C461746FEF7E6F90023C5E90033AB6060
:10927C002368D3E9064604EBC606B44211D038681D
:10928C002146FEF797FC50B1214602A8FEF72EFFAF
:10929C0002A92846FFF7B3FF03A8FBF7A3FC083489
:1092AC00EBE701A8FEF7D4F9284605B0F0BD0000A5
:1092BC002DE9F0430B689B7A91B006460F46904619
:1092CC0033B9C0E900338360304611B0BDE8F08398
:1092DC0011680D7E002D58D120232A4603A8CDE914
:1092EC000835FEF7BAFB039B01932B4B2B490093DC
:1092FC0008AA2B460120FDF70BFE03A8FDF754FF2F
:10930C001C23ADF82230D8F800309A8AADF83820FA
:10931C00DB8AADF83A303B68214A1888009508A9D9
:10932C00FDF7D2FC002830DB3B68D3E9064304EBA5
:10933C00C3090834A4F10803994522D054F8083C19
:10934C00DB89002BF5D0102200210DEB02000395D8
:10935C0001F08AFD54F8083CD9893B6803AA1888A7
:10936C0000951323FDF7CEFC0028E2D010AB184477
:10937C0003A900F8345C54F8080C3C30FDF7B5FF39
:10938C00D7E7D8F8003001221A76424639463046E3
:10939C00FFF762FF98E700BFAAB50B0087B40B007C
:1093AC0055950B00F0B50B689B7A85B006460D46BB
:1093BC002BB901A8FFF70AFE01A8FEF7C7FE2B6820
:1093CC00D3E9034704EBC707BC4209D02246294620
:1093DC0001A8FFF76DFF01A8FEF7CAFE0834F3E7FA
:1093EC0030462946FFF7FAFE304605B0F0BD0000C6
:1093FC002DE9F043054693B0086807920F4649687B
:10940C0098460AAC414B049303C405AB4FF00009DA
:10941C0083E80300CDE90899FEF77EFD3C4B0893E9
:10942C00FEF77AFD2968036809934A4604A8FDF7FC
:10943C0073FC0AAE044638B12B684FF6FF721A80E3
:10944C00204613B0BDE8F08339462846FEF7E8FC09
:10945C0003A8FEF7EFF8FEF75FFD076829461837FB
:10946C003046FEF75BFE31463846FFF78BF9074670
:10947C000BA8FBF7B7FB4FF020091FBB3246254B5F
:10948C00254E2649009332202346CDE90A94FDF758
:10949C003FFD3068FDF7A4FC2B688DF80C4021468D
:1094AC0018881F4CFDF7F2FB3068FDF791FC012387
:1094BC008DF80C302B684FF6FF721A8003A8FEF75C
:1094CC00C7F8BDE703A8FEF7C3F8164B0093134982
:1094DC00234632460120CDE90A94FDF719FDB8F177
:1094EC00000FADD029463046FFF75CFFDDE90A538B
:1094FC0005EBC307BD4205D028460121FEF706FC4B
:10950C000835F7E73046FEF733FE99E703001800FD
:10951C0049880B00DCB50B00F0E6032087B40B0088
:10952C00FCFEFFFFF8B50B0013B50446CDE9003285
:10953C00FEF742FC009B019900222046FFF758FFE2
:10954C00204602B010BD00002DE9F04F202395B04D
:10955C000026CDE90C36664B009305460F46334684
:10956C006449DFF89491DFF88C81DFF890A10CAAA4
:10957C000120FDF7CDFC2B68B34240F2B58003A867
:10958C00FEF73EFB05A8FEF7FBFB4FF02A0B6B68C2
:10959C00039A0BFB06FB5B44D98B1181198C51810F
:1095AC00598C9181988CD081D88C10821B8D5382D0
:1095BC00D7E9033203EBC2029A427DD01868C48A01
:1095CC008C4277D3848A8C4274D85968059006A84B
:1095DC00FEF70AF8DDF814C0DDF80CE0BCE80F006B
:1095EC000EF128040FC4DCF8003023602B89AEF890
:1095FC0002306B68039C5B445B7E13F0020F6ED1F0
:10960C006B685B445B7E580742BF237943F00403CD
:10961C0023716B685B445B7E190742BF237943F06F
:10962C00080323716B685B445B7EDA0642BF2379C7
:10963C0043F0100323716B685B4407AA5B7E9B06A7
:10964C0042BF237943F0200323716B689B440BF1D9
:10965C00040396460BF1140B186859689446ACE851
:10966C00030008335B456246F6D11868CCF800005D
:10967C0071460CA8FEF7AAF80DF1300CBCE80F00EF
:10968C0014340FC4DCF80030236003A90CA8FEF7D7
:10969C002DFD0CA907F11800FFF7B1FD04460DA82C
:1096AC00FBF7A0FA9CB92023CDE90C34CDF800A02F
:1096BC00234607E008337FE720240023CDE90C4341
:1096CC00CDF800900CAA41463220FDF721FC06A8EB
:1096DC00FBF788FA04A8FBF785FA01364BE72379E8
:1096EC0043F0020323718BE715B0BDE8F08F00BF88
:1096FC0015B60B0087B40B0030B60B005FB60B0031
:10970C00F8B50E1E054613DD242707FB06F0FDF702
:10971C00B3FC044658B1D5E9001207FB0212FCF762
:10972C001FFC2868FDF7B0FC2C60AE600120F8BD72
:10973C000024F6E738B50C46054601F11800FDF794
:10974C00F7FE04F12800FDF7FEFE00222146044836
:10975C00FDF78AFA21462846FCF79CFC284638BDC2
:10976C0091970B0010B59EB0044601A8FEF725FC9E
:10977C0001A92046FFF7DEFF01A8FEF760FC20469A
:10978C001EB010BD2DE9F0439DB001AD0646284634
:10979C000C46FDF794FF03A8FEF7B7FF06A8FEF7EB
:1097AC00B4FF30697169F28913AB03C385E8030018
:1097BC003378B1688DF8243006A8FEF71AFFB28909
:1097CC00716803A8FEF715FF94F968307F2B13AF6F
:1097DC0003D09DF924209A425CDB94F969307F2BED
:1097EC0003D09DF924209A4254DC04F150013846F0
:1097FC00FEF7ACFD149B002B52DD139E06EBC30948
:10980C00B14550D030462946FDF745FF0836804615
:10981C000028F5D01398FDF737FCB8F1000F39D0BC
:10982C0029462046FEF755FDA0B329462046FFF7F2
:10983C007CFA064670B304F15C013846FEF7D1FDA4
:10984C00149B002B12DD06A8FEF77BF9804603A8BB
:10985C00FEF777F9DDE9133203EB42029A4225D089
:10986C0033F8021B884501D08842F7D11398FDF7D5
:10987C000BFC7EB129462046FEF7E8FD50B1236A69
:10988C00B3B16369139501336361636A394604F1BB
:10989C00180098472846FCF772FA1DB0BDE8F08313
:1098AC004FF00108B6E74FF00008B3E70026DDE7FC
:1098BC00D4F83080B8F1000F07D0636901336361CD
:1098CC002946636B04F12800E3E7D4F80CC0BCF123
:1098DC00000F25D063692269013393426361D9D8A3
:1098EC00242253432A4603CA243B0CEB03064CF8B0
:1098FC000300716006F1080003A9FEF742FE06A9F9
:10990C0006F11400FEF73DFE9DF9243086F8203058
:10991C00D4E904329A42BDD34046FDF7ADF9B9E71C
:10992C0095E803000DF1280888E8030003A90CA8AA
:10993C00FCF74EFA06A90FA8FCF74AFA9DF824305A
:10994C008DF84830414638466668FCF786FAD4E90B
:10995C000113994210DA23686168242202FB06364F
:10996C0006F1240002FB01323146FCF7F9FA86B904
:10997C0063680133636005E001312046FFF7C0FEE8
:10998C000028E8D13846FCF7FAF94046FCF7F7F91D
:10999C0080E739463046FCF760FAE9E702480023D5
:1099AC000360FDF70DBA00BFF0E60320F8B50646DC
:1099BC000D468F180024BD420CD0336815F8011BDE
:1099CC009B6830469847031E01DB1C44F3E7002CD0
:1099DC0008BF1C462046F8BD13B50446084659B1CD
:1099EC00019101F0A6FA23680199DB680246204632
:1099FC0002B0BDE81040184702B010BD03689B6868
:109A0C00184738B50D210546FFF7F8FF0A21044623
:109A1C002846FFF7F3FF204438BD38B50546FFF75D
:109A2C00DBFF04462846FFF7ECFF204438BD30B579
:109A3C008BB00023012A8DF8243098BF0A2209AC80
:109A4C000D46B1FBF2F101FB125303F0FF03092B9E
:109A5C0094BF30333733DBB2AA4204F8013DEFD95F
:109A6C002146FFF7B9FF0BB030BD2DE9F04186B0B0
:109A7C0000AF05460E46381D142114463B60FDF719
:109A8C001BFB13280ED8391D2846FFF7A5FF0446EB
:109A9C001EB12846FFF7B5FF044420461837BD46D3
:109AAC00BDE8F08100F1080323F00703E846ADEBB5
:109ABC00030D2246411C3B686846FDF7FDFA6946DA
:109ACC002846FFF789FF0446C546E1E7014B024AE9
