:02000002B0004C
:1040000000400B0008CC0B00000006000C0005026D
:084010000401E50C00000000B2
:04401800A0BF0B003A
:10401C0009480A49884208B505D0094A824202D0AB
:10402C00121A07F0AFFE0748074A0021121A07F0D0
:10403C00D1FE014808BD00BFA4E5032070CB0B00E6
:10404C0014E6032018E60320F1E7032070B5074EB1
:10405C00074C06F029FAA41BA4080025AC4200D199
:10406C0070BD56F8043B98470135F7E708CB0B00B9
:10407C003CCB0B0000F0C2B808B500F00FF9BDE85E
:10408C00084006F0C9B903F049BB03F047BB03F085
:10409C004DBB0078B0FA80F04009704701230370E3
:1040AC00704791F92030028A1344827C0132D2B2DB
:1040BC001BB2052A038282BF93FBF2F30382012316
:1040CC00827488BF837470471FB50C460022C11DD3
:1040DC00684603F04FFF029A0099204606F01AFF3B
:1040EC0006F05EFE684603F017FC204604B0BDE8FF
:1040FC00104006F03FBE000008B5054B197881F062
:10410C0001011970034B188806F073FF002008BDDD
:10411C0024E60320A4E5032038B5044600F110057D
:10412C00203003F0F9FB284603F0F6FB2046302143
:10413C00BDE83840FFF7ABBF38B5044644B1E06882
:10414C00FFF7FAFFA5682046FFF7E6FF2C46F5E7D8
:10415C0038BD0EB403B503AB002153F8042B019307
:10416C0006F077F802B05DF804EB03B0704700007E
:10417C0038B5104D2C68D4B95820FFF784FFA8B17E
:10418C00C0E90744C0E90944C0E90B44C0E90D4447
:10419C00C0E90F44C0E91144C0E9134440F60123BF
:1041AC004471C48083810461047544652860286867
:1041BC0038BD00BF90E6032010B504F0A1FA04F05E
:1041CC00E9FAFFF7D5FF05234373FFF7D1FF01246D
:1041DC000473FFF7CDFF044B0365FFF7C9FF2146BE
:1041EC00BDE8104002F068B805440B0008B5FFF7B5
:1041FC00BFFFBDE8084002F057BA000038B5204CAC
:10420C000121208806F0E4FE2088002106F0F1FE52
:10421C0006F0B2FB4FF4165106F09EFB002002F0A4
:10422C00B5FF47F230550446002002F0AFFF001BEB
:10423C0061F10001A84271F1000307D206F09CFB6A
:10424C0006F08EFB10B903F031FAEDE706F094FBA3
:10425C0006F086FBFFF7B0FF03F030FA094A0A4973
:10426C000A4806F076F90A490A480023012203F0AD
:10427C000DFA06F081FBBDE83840074905F0C1BFD7
:10428C00A4E50320B4BF0B0005410B0033A50B00C4
:10429C0024E60320BEBF0B00C8BF0B00FFF7A6BF70
:1042AC002DE9F843D1F80880074691460C1DB8F16A
:1042BC00000F38D008F110054946284603F061FC80
:1042CC0028B1D8F80C50A0464446A846EFE729463A
:1042DC00484603F056FCD8F808500028F4D1D8F81A
:1042EC000C6065B105F11000494603F04AFCD5E9B4
:1042FC00023200280ABFA84615461D46F1E766B1F2
:10430C0006F11001484603F03CFCD6E902320028C5
:10431C0016BF344616461E46F1E7C7F800807C608F
:10432C003846BDE8F8833C60F9E72DE9F0418D682B
:10433C0004460F4690460E1D012375B105F1100180
:10434C00404603F01EFCD5E9021200282E4615BF8C
:10435C00012300230D461546EFE7A3B1FB68B342DA
:10436C0004D1256066602046BDE8F081304606F039
:10437C0031FF0546414605F1100003F002FC20B167
:10438C0000232360EEE73546F4E7C4E90050EAE782
:10439C002DE9F0418D6804460F4690460E1D012311
:1043AC0075B105F11001404603F0EBFBD5E90212A3
:1043BC0000282E4615BF012300230D461546EFE7B6
:1043CC00A3B1FB68B34204D1256066602046BDE80A
:1043DC00F081304606F0FEFE0546414605F1100020
:1043EC0003F0CFFB20B100232360EEE73546F4E762
:1043FC00C4E90050EAE700002DE9F04FABB00446E9
:10440C000F4606F0B9FAAB49DFF8BC82DFF8BC9274
:10441C0005F0F7FEE11D1AA803F01AFD00221AA9F7
:10442C0006A803F0A7FDA4490AA803F0C0FAFFF7F9
:10443C009FFEA24BD3E9004604EB8616A64200F081
:10444C00B281CDF8688094F904308DF86C306379C2
:10445C008DF86D30A3798DF86E30E11D0DF16F0084
:10446C0003F0F6FCB4F91030ADF87830A37C8DF87D
:10447C007A300DF17B03CDF8689004F1130204F14E
:10448C0037019A4652F8040B43F8040B8A42F9D1CF
:10449C0012781A70238FADF8A030638FADF8A2306C
:1044AC0094F93C308DF8A4300DF16F0112A803F093
:1044BC00CFFC002212A916A803F05CFD06A916A8D1
:1044CC0003F052FB054616A803F026FA4034002DE3
:1044DC00B4D051460EA803F06AFA012F784E40F082
:1044EC00BF80341DB568A04665B105F1100006A962
:1044FC0003F047FBD5E9023200280ABF2C461546CB
:10450C001D46F1E7444522D13020FFF7BCFD00F1F8
:10451C00100806A9DFF8ACA18146404603F092FAD8
:10452C00654908F1100003F042FA54453AD1736919
:10453C0083B330694146103003F023FB50B3346928
:10454C00002C4AD14846FFF7E7FDA14658E004F19C
:10455C00100106A803F015FB0028D5D10EA904F113
:10456C00200003F060FADFF8688108F10404D8F841
:10457C0008502646002D00F0AD8005F110000EA964
:10458C0003F0FFFAD5E9023200280ABF2C46154683
:10459C001D46EFE74A49424602A8FFF7C6FEDDE991
:1045AC00025416E004F1100B5946404603F0E9FAA8
:1045BC0070B3F568AC420CD0204606F00BFE4146B9
:1045CC008346103003F0DDFAE0B1DBF80C50EDB9A6
:1045DC005C46002C42D0002D3ED13A4B9C423BD045
:1045EC0004F11001404603F0CCFA003818BF01204A
:1045FC00344B2246494606F0EFFD73690133736173
:10460C004C46ABE74246AAF10401C5E72546E0E774
:10461C004146584603F0B5FA002893D033699C42C2
:10462C000DD0204606F0D2FD054600F110014046A3
:10463C0003F0A7FA28B1E26862B9234615461C4676
:10464C00C7E74246AAF1040102A8FFF76EFEDDE9B6
:10465C000253F4E72B46F2E70120C9E72C4671E739
:10466C0006AA314616A8FFF71BFEDDE91645F368CE
:10467C009C420BD1331D9D4208D1B068FFF75CFD05
:10468C000023C6E90235C6E904536CE7DFF8349021
:10469C00A5423FF468AF204606F09AFD4946804695
:1046AC00204606F0F4FDFFF737FD7369013B73619B
:1046BC004446EDE7E6BF0B0038C90B0084E6032047
:1046CC0028E603202CE6032044C00B00E8C20B00B4
:1046DC0040E60320B4422DD12420FFF7D4FCDFF8B0
:1046EC00A0A200F1100681460EA9304603F0AAF9EB
:1046FC000023544589F8203040F0C280D8F814309B
:10470C00002B00F0B580D8F810003146103003F0C3
:10471C0038FA002800F0AC80D8F81040002C40F09B
:10472C00CB80304603F0F8F848462421FFF7AFFC65
:10473C00A146D6E004F110010EA803F022FA0028DD
:10474C00CAD17B1E5F425F41834984F8207012A856
:10475C0003F02DF90EA912A803F0C6F97F4903F056
:10476C00CFF9394603F0E1F97D4903F0C9F9044664
:10477C0005F00FFE0246C31716A805F0B1FD1699F9
:10478C00204603F0BDF9774903F0BAF901460AA8AF
:10479C0003F049F916A803F0BFF812A803F0BCF80F
:1047AC000EA803F0B9F81AA802F098FF6E4B0A9AFB
:1047BC001B788DF800301A993C2316A805F0F8FEEA
:1047CC00179C7CB16368013B63605BB9236820462E
:1047DC009B689847A368013BA3601BB923682046DC
:1047EC00DB689847614E624CDFF89881614F1AA8DC
:1047FC0003F092F806F0C0F85F4905F002FDF2688C
:10480C00226004362168B14200F09D80103112A85C
:10481C0003F018F9236893F8201016A8002914BF88
:10482C004146394603F0C3F806F0A6F8DDF8489087
:10483C00DDF858A0054605F0ACFD0246C3171AA8D2
:10484C0005F04EFD1A9B4D4900934A4653462846A7
:10485C00FFF77FFC1AA803F05FF816A803F05CF8CA
:10486C0012A803F059F8206806F0B0FC2060C9E7E4
:10487C003E49324604A8FFF78BFDDDE9045417E0EE
:10488C0004F1100B5946304603F07BF988B3D8F885
:10489C000C50AC420CD0204606F09CFC31468346B2
:1048AC00103003F06EF9F0B1DBF80C50FDB95C463A
:1048BC00002C46D0002D42D1314B9C423FD004F10C
:1048CC001001304603F05DF9003818BF01202C4B65
:1048DC002246494606F080FCD8F814300133C8F85B
:1048EC0014304C462DE73246AAF10401C2E72546A6
:1048FC00DEE73146584603F044F900283FF411AF87
:10490C00D8F810309C420DD0204606F05FFC0546CE
:10491C0000F11001304603F034F928B1E26862B9B5
:10492C00234615461C46C3E73246AAF1040104A8E7
:10493C00FFF72EFDDDE90453F4E72B46F2E70120E7
:10494C00C5E72C46EDE60AA802F0E6FF06A802F041
:10495C00E3FF2BB0BDE8F08FFABF0B0004C00B00D7
:10496C0011C00B001CC00B0018E6032040E603200E
:10497C0020E60320DFBF0B001FC00B0029C00B007B
:10498C0044E60320D7BF0B000D4B10B500241C7060
:10499C002146012002F0E6FD0A4B1A1DC3E9032251
:1049AC001C719C605C61084B1A1DC3E903221C71CD
:1049BC009C605C61054B1C60054B1C6010BD00BF0E
:1049CC0018E6032028E6032040E603201CE603201B
:1049DC0020E6032013B504460846019107F05FFA60
:1049EC0001990246204602B0BDE8104006F092BA8A
:1049FC0030B585B004460D460022C11D684603F053
:104A0C00B9FA029A0099284606F084FA06F0C8F919
:104A1C00684602F081FFE37CFF2B06D02349284631
:104A2C00FFF7D8FFE17C06F0DFF921492846FFF7B4
:104A3C00D1FF94F91F1006F0D7F9E28A4FF6FF73F5
:104A4C009A4206D01B492846FFF7C4FFE18A06F0BC
:104A5C00CBF994F82030BBB117492846FFF7BAFFC1
:104A6C0094F91C1006F0C0F914492846FFF7B2FF60
:104A7C0094F91D1006F0B8F911492846FFF7AAFF62
:104A8C0094F91E1006F0B0F90E492846FFF7A2FF64
:104A9C00B4F91010A37C91FBF3F149B206F0A4F920
:104AAC00284605B0BDE8304006F064B9E4C30B00FD
:104ABC004CC00B0051C00B0058C00B005FC00B006A
:104ACC0066C00B006DC00B000EB400B58CB00DAA07
:104ADC004FF0200C52F8041B0392CDE90012002376
:104AEC00016804AA1E20CDE904C302F023FD0CB01A
:104AFC005DF804EB03B070472DE9F04F0C46A3B002
:104B0C000546FFF7CEFA2146E81D03F0A6F91F2350
:104B1C0001AA162104F1080003F0B1FBC6B2032E62
:104B2C004FD99DF804306A2B4BD19DF80530FE2BE4
:104B3C0047D19DF80640032C43D1621C22A95FFA91
:104B4C0082F951FA82F2A31C12F8842C052ADBB2EA
:104B5C006DD01DD8012A29D0022A35D022AB1C4495
:104B6C0009AF01AB14F8844C03EB090A4FF00008B1
:104B7C00BB465FFA88F39C4263D938461AF8013B6E
:104B8C00364A642102F0EAFD08F101080237F0E729
:104B9C000D2AE3D122AA1344043413F8832C13F8FE
:104BAC00843C03EB0223EB82E4B208E0A31D22AAAF
:104BBC0052FA83F3073413F8843CEB74E4B2B44236
:104BCC00BBD323B0BDE8F08F22AA134413F8843C66
:104BDC002B75E31C52FA83F313F8843C2B77231DBB
:104BEC0052FA83F313F8843C6B77631D52FA83F308
:104BFC0013F8843CAB77A31D52FA83F313F8832C80
:104C0C0013F8843C03EB02232B8322AA04F1080340
:104C1C0052FA83F30A3413F8832C13F8843C03EB15
:104C2C0002236B830123E4B285F82030C7E7E31C31
:104C3C0022AA52FA83F3043413F8843CEB77E4B2DF
:104C4C00BDE722AB03EB4403002203F8642C0449B8
:104C5C0004485A46FFF738FF4C44A5E71CC30B0029
:104C6C00BEC10B00C4E6032030B500F1080589B0C5
:104C7C001621284603F065FB044688B11F236A46BB
:104C8C001621284603F0FBFAC0B2032807D99DF879
:104C9C0000306A2B03D19DF80130FE2B00D000248C
:104CAC00204609B030BD000038B5114B8A8803602E
:104CBC000D468B798280044683710731073003F0EF
:104CCC00C7F82B8A2382AB7CA3740A4BEA8A236035
:104CDC00EB7CE374E2822B7DAA692375A26195F8C3
:104CEC002030EA69E26184F82030204638BD00BFEC
:104CFC0044C00B007CC00B008842F8B504460D463E
:104D0C00164611D9904210D2A2F12406751AA1F1BF
:104D1C0024072C44B74212D01CB131462046FFF771
:104D2C00C3FF243E243CF5E709D0B54207D01CB1A3
:104D3C0029462046FFF7B8FF24352434F5E7F8BDA3
:104D4C002DE9F041424C9CB0064600274FF0240858
:104D5C006368FDB29D420DDA216808FB051107312D
:104D6C0013A803F075F8314613A803F088F801373F
:104D7C000028EDD063689D425DD1364B0193012331
:104D8C008DF809300DF10B0002238DF80A3003F079
:104D9C008AF8314B0193FF238DF823304FF07F437A
:104DAC0005934FF6FF733146ADF81A3000254FF0DE
:104DBC00FF3301A807938DF82450FFF79DFE01A93E
:104DCC000AA88DF80850FFF76FFF0AA913A86668A8
:104DDC00FFF76AFFD4E901739F4215DB0137AF423D
:104DEC000DDD4FF0240808FB07F002F097FC054698
:104DFC00F0B1D4E9001208FB0212FFF77DFF206826
:104E0C0002F094FC2560A76023686168242202FBF1
:104E1C00063606F1240002FB01323146FFF76CFF27
:104E2C001EB113A93046FFF73FFF6368013363607F
:104E3C001CB0BDE8F08124235D4323685C19002776
:104E4C0067715B5931465B68204698472771EFE7DD
:104E5C0058E6032044C00B007CC00B00024B002220
:104E6C00C3E900229A60704758E60320704700207F
:104E7C00704710B510210446FFF709F9204610BD04
:104E8C0008B5FFF7F6FF08BD13B5044608460191B7
:104E9C0007F005F801990246204602B0BDE8104023
:104EAC0006F048B810B58368044613B103220146D6
:104EBC009847204610BD10B54368013B044643603B
:104ECC0063B903689B689847A368013BA3602BB93F
:104EDC0023682046DB68BDE81040184710BD08B5B4
:104EEC00002002F053F94FF47A72002306F084FD8F
:104EFC0008BD10B50446006802F018FC204610BD31
:104F0C0038B5C468F4B12378022B03D104F10C003A
:104F1C00FFF7EFFF656835B12846FFF7C3FF102197
:104F2C002846FFF7B4F8A56835B12846FFF7BAFF55
:104F3C0010212846FFF7ABF820461421BDE8384075
:104F4C00FFF7A5B838BD000030B585B00C46054656
:104F5C00C11D0022684603F00DF8029A0099204604
:104F6C0005F0D8FF05F01CFF684602F0D5FC184987
:104F7C002046FFF72FFDE97F81F0010105F01CFFB2
:104F8C0014492046FFF726FDB5F9181005F02CFF43
:104F9C0011492046FFF71EFD698B05F025FF0F49CF
:104FAC002046FFF717FDA98B05F01EFF0C49204684
:104FBC00FFF710FDB5F91010AB7C91FBF3F149B282
:104FCC0005F012FF204605B0BDE8304005F0D2BE1A
:104FDC0084C00B004CC00B0090C00B00E4C30B0052
:104FEC006DC00B000EB400B58CB00DAA4FF0200CA8
:104FFC0052F8041B0392CDE900120023016804AAA5
:10500C000120CDE904C302F095FA0CB05DF804EB75
:10501C0003B070472DE9F041DFF8488000AF0C4633
:10502C0006460A4640460E491D46FFF7DBFF04F1D3
:10503C00080323F00703ADEB030D22463146684607
:10504C0006F0A0FE0023694640460DF80430FFF739
:10505C00C9FF042385F83030BD46BDE8F08100BFA0
:10506C0097C00B00C4E603201FB5092201A9083024
:10507C0003F0F7F8082829D99DF80430022B25D124
:10508C009DF80530012B21D19DF80630062B1DD142
:10509C009DF807301B2B01D0262B17D19DF808301B
:1050AC00FF2B13D19DF80930772B0FD19DF80B30C6
:1050BC00013B012B0AD89DF80A209DF80C301343B4
:1050CC000CBF0120002005B05DF804FB0020FAE7BE
:1050DC000022C0E90022C0E90222C0E904224FF0FC
:1050EC00FF32C0E90622026280F824204FF40072DD
:1050FC00C284044A034610689288D8621A861846FD
:10510C00704700BF6CC20B0010B50446006808B1B4
:10511C00FFF7D1FE204610BD0B68036013B15A682F
:10512C0001325A60704710B50446006802F0FEFA6E
:10513C00204610BD38B505460D4B45F84C3B044692
:10514C005830FFF7F0FF2846FFF7EDFF04F144005D
:10515C0003F0E2FB04F13C0003F0DEFB04F134004D
:10516C0003F0E1FB04F12400FFF7DDFF204638BD1E
:10517C007CC20B0010B5044B044640F8083BFFF70B
:10518C00D2FF204610BD00BF40C20B0010B5044634
:10519C00FFF7F0FF20461421FEF779FF204610BDE3
:1051AC0073B50E46044656F8043B00930D4601A811
:1051BC003146FFF7B1FF019A009B6260236001A8A2
:1051CC00002301930093FFF79FFF3046FFF79CFFEE
:1051DC0028460821FEF75BFF204602B070BD38B5AB
:1051EC000D1E0446006803DD02F0A8FA18B938BD9C
:1051FC0002F09CFA00202060A5600120F7E738B58A
:10520C000023C0E9003383600D4649689942044687
:10521C0010DDFFF7E4FF68B1D5E9003122681944CD
:10522C00994205D00AB11878107001330132F7E7B2
:10523C006B686360204638BD38B5304B8A88036094
:10524C000D468B798280044683710731073002F05A
:10525C00FFFD2B8A2382AB7CA3746A696261284BA5
:10526C00AA692360A26195F82030EA69E26184F8AA
:10527C00203005F1240104F12400FFF7C0FF2B8E30
:10528C0023866B6B636305F1380104F13800FFF77B
:10529C0043FF05F13C0104F13C0003F01BFB05F15D
:1052AC00440104F1440003F015FB05F14C0104F139
:1052BC004C00FFF7A4FF05F1580104F15800FFF76B
:1052CC009EFFD5E91923C4E91923EB6EE3662B6F16
:1052DC002367D5E91E016B6F6367D5F87E30C4F880
:1052EC007E30B5F88230A067A4F87C10A4F8823028
:1052FC00B5F88430A4F88430204638BD44C00B0087
:10530C007CC20B00F8B5D0E901539D4204460E4611
:10531C000CDA276862687919521B481C06F040FDAC
:10532C007E556368013363600120F8BD691CFFF78B
:10533C0056FF0028EDD1F8E7F0B50D4685B00446D0
:10534C000846164605F02CFD52492846FFF742FB4D
:10535C005149FFF799FD51492846FFF73BFB50494E
:10536C00FFF792FD4F492846FFF734FB05F018FD77
:10537C00636833B14C492846FFF72CFB2168FFF7D3
:10538C0083FD4A4FA369BB4206D849492846FFF71B
:10539C0021FBA16905F03AFDE369BB4206D84549FA
:1053AC002846FFF717FBE16905F030FD94F826302D
:1053BC00DB0707D540492846FFF70CFB94F928106A
:1053CC0005F012FD94F826309F0707D53B49284677
:1053DC00FFF700FB94F9291005F006FD94F8263030
:1053EC00580707D536492846FFF7F4FA94F92A10DE
:1053FC0005F0FAFC94F82630190707D531492846F0
:10540C00FFF7E8FA94F92B1005F0EEFC94F826302F
:10541C00DA0607D52C492846FFF7DCFA94F8251054
:10542C0005F0F4FC94F826305B0608D5274928468D
:10543C00FFF7D0FA062204F1320105F07BFD94F857
:10544C002730012B07D822492846FFF7C3FA94F8D6
:10545C00271005F0C9FC284605F08CFC1D49284690
:10546C00FFF7B8FA3188013189B2318005F0BCFC04
:10547C00284605F07FFC05F1080101A8FFF7BFFEE7
:10548C00002101A8FFF73EFF01A8FFF74CFE05B075
:10549C00F0BD00BFA9C00B00B1C00B00B5C00B0024
:1054AC00BCC00B00C0C00B00C7C00B00805101007A
:1054BC00D2C00B00EBC00B0000C10B001FC10B00D6
:1054CC003EC10B005CC10B007AC10B0099C10B00F3
:1054DC00A1C10B00CBC20B002DE9F04147688368DA
:1054EC008846B91899420446154612DC266862684B
:1054FC003E44D21B3146701906F052FC2A464146F6
:10550C00304606F03FFC62682A4462600120BDE828
:10551C00F081FFF764FE0028E8D1F8E72DE9F047A9
:10552C0089468CB0044609F1080AFEF7BAFD4946D3
:10553C00E01D02F092FC252302AAFF21504602F046
:10554C009EFEC3B2192B40F28180BDF80E609DF80F
:10555C001650E77FB4F81A80F20BE277BDF81720EB
:10556C0062836A1E0F2A0CD8DFE802F008730B085E
:10557C000808080808080B7A7A0B0B7ABDF81D206E
:10558C002283252B70D19DF80A20022A21D102AA50
:10559C000921504602F073FE10F0FF0219D0616A27
:1055AC00019202A806F0DEFB019A90B14FF0000ABE
:1055BC0004F1240902A9C4F828A04846FFF78CFF7F
:1055CC0051464846FFF79EFE626A32493248FFF761
:1055DC0009FD324B1B682BB1628B424502D0294628
:1055EC00204698472E4D2B68002B2FD0310602D524
:1055FC00102120469847F20503D52B68042120463C
:10560C009847B30503D52B680521204698477005AC
:10561C0003D52B68072120469847310503D52B6805
:10562C00082120469847F20403D52B680A2120460E
:10563C009847730403D52B68032120469847E37FD2
:10564C00BB4203D02B680221204698470CB0BDE822
:10565C00F0879DF81D20501E42424241A27790E7F0
:10566C00BDF81D20A2838CE71A2BB2D19DF80A300D
:10567C00012BAED109F1140902AA252309214846B0
:10568C0002F0FDFD10F0FF0289D1252302AA0821AA
:10569C0048467FE7ADC10B00C4E603206CE603204F
:1056AC0068E6032008B50830FFF716FF08BD13B5F0
:1056BC000B460246D0E900016C4684E8030093E8EF
:1056CC00030082E8030094E8030083E8030002B0BF
:1056DC0010BD8842F8B504460D46164614D99042C2
:1056EC0013D2A2F18806751AA1F188072C44B7428F
:1056FC0018D01CB131462046FFF79EFD3046FFF70F
:10570C0019FD883E883CF2E70CD0B5420AD01CB19A
:10571C0029462046FFF790FD2846FFF70BFD8835FC
:10572C008834F2E7F8BD00002DE9F0414B4CE6B0AF
:10573C00064600274FF088086368FDB29D420DDADB
:10574C00216808FB0511073144A802F081FB3146A2
:10575C0044A802F094FB01370028EDD063689D4209
:10576C006ED13F4B009301238DF805300DF10700EE
:10577C00082300258DF8063002F095FB394B009379
:10578C000DA8CDE90955ADF810508DF812500B95B8
:10579C00ADF8305002F004FF0FA802F025FE11A85E
:1057AC0002F022FE13A8FFF793FC31466846ADF8D1
:1057BC008450FFF7B3FE694622A88DF80450FFF71A
:1057CC003BFD22A944A86668FFF736FDD4E90173B6
:1057DC009F4215DB0137AF420DDD4FF0880808FB07
:1057EC0007F001F09BFF0546F0B1D4E9001208FB6D
:1057FC000212FFF76EFF206801F098FF2560A7608A
:10580C0023686168882202FB063606F1880002FBD9
:10581C0001323146FFF75DFF1EB144A93046FFF758
:10582C000BFD63680133636044A8FFF783FC22A877
:10583C00FFF780FC6846FFF77DFC66B0BDE8F081A1
:10584C0088235D4323685C19002767715B593146D7
:10585C005B68204698472771EFE700BF70E603208E
:10586C0044C00B007CC20B00826810B50AB905F06D
:10587C00F2FDBDE81040C368184708B5006800F198
:10588C001001FFF7F1FF08BD826810B50AB905F0E9
:10589C00E2FDBDE81040C368184708B5006800F188
:1058AC001001FFF7F1FF08BD38B5002383608B684A
:1058BC0004460D462BB102229847EB68E360AB68B7
:1058CC00A360204638BD0000F0B589B08B880A680B
:1058DC000468ADF8043000204FF69C7300928B8066
:1058EC0008604FF00202D4E84F1F814203D1C4E894
:1058FC00452F002DF7D127D1BDF80420ADF8043089
:10590C00009BE360228200900123BFF35B8F6370E6
:10591C0004F10803BFF35B8F53E8006F43E8000208
:10592C00002AF9D1BFF35B8F76B101F023FE80B171
:10593C0004F10C013046FFF797FF3046FFF7B2FA3F
:10594C0010213046FEF7A3FB6846FFF7D2FA09B0E8
:10595C00F0BD314602A8FFF7A7FFE068B4F910507C
:10596C0008B106F07FFA06901020ADF81C50FEF737
:10597C008AFB054610B3002787601820FEF783FBCF
:10598C000446B0B18760014602A8FFF790FE049B65
:10599C00A268A360059B0492E268E360BDF81C302A
:1059AC00A3824FF69C73ADF81C30069B05922361C5
:1059BC000697084BEB60084B2C60AB6006A8FFF712
:1059CC0098FA02A8FFF76EFA00222946034801F064
:1059DC00D9FDB2E787580B00ED590B0075AA0B00E7
:1059EC00012AF8B5054603D10B6803600020F8BD09
:1059FC00022A10D0032AF9D10468002CF6D004F145
:105A0C001000FFF776FA2046FFF74CFA18212046D3
:105A1C00FEF73DFBEAE718200E68FEF734FB044660
:105A2C0050B13146FFF740FF3069B6F9147008B138
:105A3C0006F018FA2061A7822C60D7E738B500234E
:105A4C0083608B6804460D462BB102229847EB68A5
:105A5C00E360AB68A360204638BD012A70B50446EC
:105A6C0003D10B680360002070BD022A0CD0032AFE
:105A7C00F9D10468002CF6D02046FFF713FA142154
:105A8C002046FEF704FBEEE714200E68FEF7FBFA47
:105A9C00054620B13146FFF7D1FF337C2B742560CE
:105AAC00E1E70000F0B5046887B00123D4E84F2F7C
:105ABC00002A03D1C4E8403F0028F7D154D1217308
:105ACC00BFF35B8F00206370231DBFF35B8F53E824
:105ADC00006F43E80002002AF9D1BFF35B8F002E60
:105AEC0042D001F047FD074670B104F10C0130467D
:105AFC00FFF7CAFE3046FFF7D5F91021304607B044
:105B0C00BDE8F040FEF7C3BA314601A8FFF796FF97
:105B1C00237B8DF814301020FEF7B5FA0546D0B172
:105B2C0087601420FEF7AFFA044678B1876001460F
:105B3C0001A8FFF7BCFD039BA268A360049B039222
:105B4C00E268E3609DF8143004922374074BEB6019
:105B5C00074B2C60AB6001A8FFF7A4F90022294683
:105B6C00044801F00FFDC5E707B0F0BDA7580B00C6
:105B7C00675A0B0075AA0B002DE9F0439D4D89B0B7
:105B8C002B78BFF35B8FDB0700AF04460AD42846A3
:105B9C00FEF77FFA30B1FFF7A2F9974B1860284651
:105BAC00FEF77CFA94F8302094F831309A420ED0FB
:105BBC0094F8303084F83130013B052B46D8DFE8BF
:105BCC0013F010003B004A00EF00E5001101FFF755
:105BDC0086F9894B1B689842EAD12437BD46BDE84B
:105BEC00F08302F08DFDE11D0546384602F030F9D8
:105BFC00002329463A4607F10C0004F089F8FB68AB
:105C0C003D696363A36B9D4204F1340608D015B162
:105C1C006B6801336B60A06B08B1FFF74CF9A5639F
:105C2C0007F10C0002F07FFE304602F0DBFC68B19D
:105C3C00022384F8303009E002F062FD04F13401F3
:105C4C0002F0D3FD6D496E48FFF7CCF9FFF747F929
:105C5C00694B1860C1E704F13409494607F10C009F
:105C6C0003F0A8FDD7E90353E84605EBC306AE42A3
:105C7C0004D0281DFFF748FA0835F8E7F86801F05A
:105C8C0055FD494607F10C0003F080FFD7E903539B
:105C9C0005EBC306AE4204D0284602F03DFE0835A3
:105CAC00F8E7F86801F042FD04F14406554907F1A4
:105CBC000C0002F049FA07F10C023146484603F099
:105CCC00BBFC04F13C05504907F10C0002F03CFA16
:105CDC00294607F10C02484603F0AEFC2246284642
:105CEC004A4903F0D3FC0121284602F003FC0025AD
:105CFC00474BFB6004F1840207F10C0104F14C00EA
:105D0C00C7E905553D74FD61FFF716FBBB69073309
:105D1C0023F00703ADEB030DE946BB699D420DD2A1
:105D2C0007F114013846FFF76AFA3B685B5D09F826
:105D3C0005303846FFF7F7F90135EEE74A463549A5
:105D4C002F48FFF74FF907F114013846FFF757FAC0
:105D5C000123BA693968304602F06CFB2E490246C1
:105D6C002748FFF73FF93846FFF7DDF994F8303054
:105D7C00032B05D1052384F83030284B00221A70F0
:105D8C0007F10C00FFF7F6F9C5465FE7234A1378D5
:105D9C000133DBB2142B13707FF658AF042348E7A2
:105DAC0061693846FFF7FCF91C4B1B78142B14D98E
:105DBC000023FB6038464FF6607307F10C013B8201
:105DCC00FFF782FD07F10C00FFF793F8062384F828
:105DDC003030381DFFF798F938E701213846FFF7C6
:105DEC0061FEF3E7002384F8303004F1340003F053
:105DFC0015FA2BE764E603207CE60320C1C10B00F7
:105E0C00C4E60320C9C10B00EEC10B0021500B00EE
:105E1C0040C20B0013C20B0022C20B0080E6032011
:105E2C00024B0022C3E900229A60704770E60320FF
:105E3C0030B5044699B00D46FEF733F92946E01DFE
:105E4C0002F00BF810A91F2205F1080002F068FA05
:105E5C009DF853300E939DF852300D939DF85130B0
:105E6C000C939DF850300B939DF84F300A939DF88E
:105E7C004E3009939DF84D3008939DF84C300793A4
:105E8C009DF84B3006939DF84A3005939DF84930A8
:105E9C0004939DF8483003939DF8473002939DF886
:105EAC00463001939DF8453000930E4A9DF84430DE
:105EBC00252104F1130001F051FC9DF854209DF8AC
:105ECC00553003EB022323879DF856209DF857305D
:105EDC0003EB022363879DF8583084F83C3019B0EB
:105EEC0030BD00BF84C20B0070B586B00C460546B1
:105EFC00C11D002202A802F03DF8049A0299204626
:105F0C0005F008F804F04CFF02A801F005FD1C494F
:105F1C002046FEF75FFD05F1130106460846019188
:105F2C0005F0BDFF01990246304605F003F815490E
:105F3C002046FEF74FFD298F04F056FF12492046EC
:105F4C00FEF748FD698F04F04FFF10492046FEF71D
:105F5C0041FD95F93C1004F047FF0D492046FEF732
:105F6C0039FDB5F91010AB7C91FBF3F149B204F09B
:105F7C003BFF204606B0BDE8704004F0FBBE00BFFE
:105F8C00C9C20B00CEC20B00D4C20B00DAC20B008C
:105F9C006DC00B0000B589B01F226946083002F0B5
:105FAC00BFF9192813D19DF800304C2B0FD19DF857
:105FBC00010060B99DF80230022B05D19DF8030059
:105FCC00A0F115035842584109B05DF804FB0020BC
:105FDC00FAE7000038B5144B8A8803600D468B79BC
:105FEC008280044683710731073001F031FF2B8A20
:105FFC002382AB7CA37423460C4A43F8132B05F184
:10600C00370105F1130252F8040B43F8040B8A42D2
:10601C00F9D112781A7095F93C30AA6BA26384F806
:10602C003C30204638BD00BF44C00B00E8C20B001A
:10603C008842F8B504460D46164611D9904210D246
:10604C00A2F14006751AA1F140072C44B74212D0B8
:10605C001CB131462046FFF7BDFF403E403CF5E702
:10606C0009D0B54207D01CB129462046FFF7B2FF34
:10607C0040354034F5E7F8BDF0B5394CB1B00646C3
:10608C0000276368FDB29D420DDA216801EB851192
:10609C00073120A801F0DCFE314620A801F0EFFE0C
:1060AC0001370028EDD063689D424CD12D4B0093F5
:1060BC000DF10700012300258DF805308DF8063011
:1060CC0001F0F1FE284B009331466846ADF81050B4
:1060DC008DF81250FFF7ACFE694610A88DF80450ED
:1060EC00FFF778FF10A920A86668FFF773FFD4E9C3
:1060FC0001739F4212DB0137AF420ADDB80101F098
:10610C000DFB0546E8B1D4E9001201EB8212FFF752
:10611C008FFF206801F00AFB2560A7602368626886
:10612C0003EB861603EB8212314606F14000FFF7B3
:10613C007FFF1EB120A93046FFF74CFF6368013387
:10614C00636031B0F0BD2368AA0103EB8515002410
:10615C006C719B5831465B68284698472C71F0E768
:10616C0084E6032044C00B00E8C20B00024B002263
:10617C00C3E900229A60704784E6032010B501231E
:10618C0003748368044643B1C06898470123637461
:10619C000020BDE8104001F0E5B800680028F5D0FB
:1061AC0083680BB905F057F9C368EEE710B5002109
:1061BC000446084601F0B6F8204610BD10B5002183
:1061CC000446012001F0AEF8204610BD2DE9F34144
:1061DC0004460E4614201D4990461F4604F09EFFAF
:1061EC0030B10025C0E90055C0E90255057445746D
:1061FC00206098B1099B9DF82020C0E902873146A8
:10620C00CDE90003124B043001F07CF830B923685F
:10621C001B7CBBB9012000F099FFF8E7266800232E
:10622C0023607EB135684DB1AB681BB103222946A2
:10623C002846984710212846FDF729FF142130469F
:10624C00FDF725FF204602B0BDE8F08125C80B0004
:10625C0089610B001FB51023ADF8023002F050FA23
:10626C00694602F0BEFA9DF80C30012B05D0043BB8
:10627C00012B84BF01238DF80C305023ADF8043072
:10628C002823ADF806300F23ADF808300123ADF804
:10629C000A3002F035FA694602F09FFA05B05DF853
:1062AC0004FB10B50446406901F040FAA06801F007
:1062BC003DFA204610BD000073B5C66C8160012309
:1062CC00044683717EB90420FDF7DDFE054648B116
:1062DC0002234FF44062CDE900320449044A3346AC
:1062EC00FFF774FFE56402B070BD00BFF0C20B0095
:1062FC0045660B0070B504460020C4E90000A060A0
:10630C004E6886420D4611DD314601F017FA68B130
:10631C002060A660D5E900321A449A4204D013F8E2
:10632C00011B00F8011BF8E76B686360204670BD29
:10633C0070B5D0E900450E4604EBC505A54206D064
:10634C003146204601F09BFD10B90834F6E70024D5
:10635C00201E18BF012070BD70B5D0E90053242653
:10636C00044606FB0356AE4204D02846FFF799FFBD
:10637C002435F8E7206801F0D9F9204670BD38B50E
:10638C0004460D4601F064FD05F1080104F1080016
:10639C00FFF7B0FF05F1140104F11400FFF7AAFF99
:1063AC0095F8203084F82030204638BD38B5094B9C
:1063BC008A8803600D468B7982800446837107318D
:1063CC00073001F045FD2B8A2382AB7CA374204659
:1063DC0038BD00BF44C00B00F8B507460C463D461F
:1063EC00FFF7E4FF04F11406134B45F8143B0FCEF2
:1063FC000FC596E8030045F8040B04F12A03298025
:10640C0007F12A0204F1420153F8040B42F8040B81
:10641C008B42F9D11B88138004F144030FCB07F195
:10642C004405543485E80F0094E80F0007F1540537
:10643C0007C52B803846F8BD08C40B008842F8B558
:10644C0004460D46164611D9904210D2A2F16406AC
:10645C00751AA1F164072C44B74212D01CB1314615
:10646C002046FFF7B9FF643E643CF5E709D0B5421E
:10647C0007D01CB129462046FFF7AEFF64356434C3
:10648C00F5E7F8BD8842F8B504460D46164614D912
:10649C00904213D2A2F12406751AA1F124072C44C0
:1064AC00B74218D01CB131462046FFF768FF304682
:1064BC00FFF7F7FE243E243CF2E70CD0B5420AD09D
:1064CC001CB129462046FFF75AFF2846FFF7E9FE84
:1064DC0024352434F2E7F8BD2DE9F04104468AB0A6
:1064EC000D46242700F11C086B68002B61D02E6828
:1064FC0001A83146FFF743FF3046FFF7D2FED5E93E
:10650C000032304607FB023206F12401FFF7BAFFD6
:10651C006B68013B6B60A368D80710D501A8FFF727
:10652C0039FD60B101A904F12800FFF701FF30B972
:10653C0001A8FFF7A1FD01A8FFF7B3FED4E7A368FC
:10654C00990710D4A3685A071CD501A800F00EFABD
:10655C00C0B101A904F13400FFF7EAFE90B901A81B
:10656C0000F02EFDE7E701A8FEF77EFB0028E9D03E
:10657C0001A94046FFF7DCFE0028E3D101A8FEF795
:10658C00DFFBD8E7A3681B070DD501A8FEF76CFD50
:10659C0048B101A904F14000FFF7CAFE18B901A8DF
:1065AC00FFF7C2F8C7E7636D002BC4D001A898476A
:1065BC00C1E70AB0BDE8F0812DE9F0410023C0E944
:1065CC00003383604E689E4204460F4631DD4FF027
:1065DC00240808FB06F001F0A1F8054648B3D4E9FD
:1065EC00001208FB0212FFF74DFF206801F09EF825
:1065FC002560A660D7E9006308FB0368B04516D098
:10660C003146284601F024FC06F1080105F108008A
:10661C00FFF770FE06F1140105F11400FFF76AFE96
:10662C0096F9203085F8203024362435E6E77B684F
:10663C0063602046BDE8F081F0B51A4C87B04FF48A
:10664C007A7623689B7913B900F064FEF9E7FFF7BB
:10665C0001FE00F08BFD054623689B79EBB100F041
:10666C0085FD23685B7B401B7343984215D202F077
:10667C0047F80146684603F069FC2768694603A899
:10668C00FFF79AFF03A93846FFF726FF03A8FFF789
:10669C0063FE6846FFF760FEDEE723680122DA71CD
:1066AC00D2E700BF90E603202DE9F74FDFF8AC925C
:1066BC00D9E90053044605EB83160027AE4209D0F6
:1066CC00236D2BB16A791AB10121284698476F7155
:1066DC004035F3E7DFF88882D8E90053642606FBDF
:1066EC0003560027AE4209D0236D2BB16A791AB13B
:1066FC000121284698476F716435F3E7954FD7E928
:10670C000053242606FB03564FF0000AAE420AD073
:10671C00236D33B16A7922B101212846984785F857
:10672C0005A02435F2E78C4ED6E900534FF0880AC9
:10673C000AFB035A4FF0000B55450DD0236D33B1B6
:10674C006A7922B101212846984785F805B0284678
:10675C00FFF712FA8835EFE7E379002B00F0DD80C4
:10676C00D9E900534FF0FF0B05EB831AAA4510D063
:10677C0095F90430227B934208DB236D13B102217F
:10678C002846984785F804B04035EFE701332B7164
:10679C00FAE701A8FFF70AFD0025D9F80420954275
:1067AC001ADB01A8FFF70AFDD8E900534FF0640982
:1067BC0009FB03594FF0FF0AA94526D095F904307F
:1067CC00227B93421EDB236D13B10221284698478E
:1067DC0085F804A06435EFE7D9F8003003EB851099
:1067EC0090F9041000290BDA03EB821200F140013E
:1067FC00FFF71EFCD9F80430013BC9F80430013D09
:10680C000135CAE701332B71E4E701A8FFF7CEFC91
:10681C0000254FF06409D8F8042095421ADB01A832
:10682C00FFF7CCFCD7E900534FF0240808FB0358C2
:10683C004FF0FF09A84526D095F90430227B9342EE
:10684C001EDB236D13B102212846984785F804906E
:10685C002435EFE7D8F8003009FB053090F9041027
:10686C0000290BDA09FB023200F16401FFF7E6FDA7
:10687C00D8F80430013BC8F80430013D0135CAE7B3
:10688C0001332B71E4E701A8FFF790FC00254FF0D2
:10689C0024087A6895421CDB01A8FFF78FFCD6E927
:1068AC000057882303FB07574FF0FF08AF4226D051
:1068BC0095F8302095F90430F2B9227B93421BDB1A
:1068CC00236D13B102212846984785F8048088353A
:1068DC00ECE73B6808FB053090F90410002909DA55
:1068EC0008FB023200F12401FEF706FA7B68013B3B
:1068FC007B60013D0135CCE701332B71E7E701A843
:10690C00FFF754FC00274FF0880873689F4207DBA1
:10691C0001A8FFF753FC0023E37103B0BDE8F08F2F
:10692C00356808FB075595F90430002B0FDA28461B
:10693C00FEF700FCD6E9003205F1880108FB0232B3
:10694C002846FEF7C6FE7368013B7360013F0137B2
:10695C00DBE700BF58E6032070E6032084E6032043
:10696C0094E603208A68096804F0E4BA30B500F1B3
:10697C00080589B01621284601F0E3FC044688B1CD
:10698C001F236A461621284601F079FCC0B2032861
:10699C0007D99DF80030AA2B03D19DF80130FE2BAE
:1069AC0000D00024204609B030BD01230370CB7801
:1069BC0043714B68C0F806308B68C0F80A308B897D
:1069CC00C381D1F80E3003614B8A838243881A4409
:1069DC000379428001330371704738B515460122A3
:1069EC000270CA7842710A798271053B0446DAB2A8
:1069FC0002760531073005F0C5F962882379154414
:106A0C0001336580237138BDCB78F3B90123037052
:106A1C000A794B7903EB02234380CB8883804B7A32
:106A2C000A7A1B0403EB02638A7A03EB0223CA7A09
:106A3C00134483604B7B0A7B1B0403EB02638A7B4E
:106A4C0003EB0223CA7B1344C3607047012303701A
:106A5C0070B50C79E3073AD5062A37D9B1F8053069
:106A6C005BBA43800723A60709D55D1CEDB295429E
:106A7C002CD2CE5C06714D5D45710233DBB26507DD
:106A8C0005D55D1CEDB2954220D20233DBB2240752
:106A9C001CD55C1DE4B2944218D201229D18EDB2B3
:106AAC000273CE5C4A5D42EA0622C280DD1C9A1C4F
:106ABC00D2B2EDB28E5C4A5D043342EA0622DBB2FE
:106ACC000281CA5C0B5D43EA0223438170BD05233E
:106ADC00C9E7000030B50D4689B00446073001F017
:106AEC00BCF91F236A46162105F1080001F0C7FB0B
:106AFC00C3B2022B28D99DF80020AA2A24D19DF8D4
:106B0C000120FE2A20D19DF80220202A28D007D867
:106B1C008AB1102A1AD016491648FDF7D5FF13E092
:106B2C00212AF8D1042B0FD91A46694604F15400D6
:106B3C00FFF78CFF08E0132B06D995F92020694646
:106B4C0004F11400FFF731FF09B030BD052BFBD960
:106B5C0095F92020694604F12A00FFF73EFFF3E780
:106B6C00102BF1D1694604F14400FFF74DFFEBE720
:106B7C00FCC20B00C4E603202DE9F0478B798EB0E4
:106B8C0006460D46032B26D8DFE803F0021F272DFF
:106B9C003A4901A805F05EF90B24DFF82081DFF8F3
:106BAC002091DFF820A100272A7EFBB29A425BD904
:106BBC002B44DA790D2A50D8DFE802F01B27292B59
:106BCC002D36383A434547494B4D2D4901A805F020
:106BDC0041F90C24E1E70024DFE72A4901A805F07C
:106BEC0039F90724D9E7284901A805F033F9082415
:106BFC00D3E7264A01AB1819C4F1320100F0AEFDFF
:106C0C00631DDBB201371C46CEE7214AF2E7214A6D
:106C1C00F0E7214AEEE701AB1819204AC4F1320122
:106C2C0000F09CFDA31DECE71D4AE3E71D4AE1E7DC
:106C3C001D4A01AB1819C4F1320100F08FFD231D60
:106C4C00DFE71A4AF5E71A4AF3E71A4AF1E7524620
:106C5C00D0E74A46EDE74246EBE70EA9631C0C442D
:106C6C00DBB204F8342CCDE73046134901AB224695
:106C7C0000F08CFF30460EB0BDE8F08721C30B004E
:106C8C002DC30B003AC30B0042C30B004BC30B00CC
:106C9C0051C30B0057C30B005DC30B0063C30B0048
:106CAC006AC30B0070C30B0076C30B007BC30B00D5
:106CBC0080C30B0085C30B009AC30B0095C30B005C
:106CCC0090C30B008AC30B0070B58CB004460D4604
:106CDC000022C11D08A801F04DF90A9A089928460E
:106CEC0004F018F904F05CF808A800F015FE237DF8
:106CFC00002B62D09F492846FDF76CFE04F050F83B
:106D0C009D492846FDF766FE94F9191004F06CF8BD
:106D1C009A492846FDF75EFE94F82330079394F8C1
:106D2C002230069394F82130059394F82030049384
:106D3C00E37F0393A37F0293637F0193237FA27E60
:106D4C008F4900930646E37E08A800F01FFF08A9B0
:106D5C003046FFF707FE08A800F0DEFD89492846FB
:106D6C00FDF738FE94F82930039394F828300293F9
:106D7C0094F82730019394F8263094F82420824913
:106D8C000093064694F8253008A800F0FFFE08A9E9
:106D9C003046FFF7E7FD08A800F0BEFD7B4928460A
:106DAC00FDF718FEB4F91610237E91FBF3F149B2EE
:106DBC0004F01AF8284603F0DDFF94F82A3073B378
:106DCC0073492846FDF706FE03F0EAFF7049284692
:106DDC00FDF700FE04F12A01064608A8FFF7CCFED9
:106DEC0008A93046FFF7BEFD08A800F095FD6249E2
:106DFC002846FDF7EFFD94F92F1003F0F5FF6349DA
:106E0C002846FDF7E7FDB4F92C1094F82E3091FBD1
:106E1C00F3F149B203F0E8FF284603F0ABFF94F816
:106E2C004430002B4CD05B492846FDF7D3FD03F0D2
:106E3C00B7FF59492846FDF7CDFDB4F846309FED14
:106E4C00577A07EE903AF8EEE77A0646C7EE877A5D
:106E5C0017EE900A04F078FD41EC100B304603F06D
:106E6C00E7FF4F492846FDF7B5FD94F84930DFEDB3
:106E7C004D6A07EE103A94F9483007EE903AB8EEA6
:106E8C00C77AF8EEE77A0646E7EE267A17EE900A0E
:106E9C0004F05AFD41EC100B304603F0C9FF424997
:106EAC002846FDF797FDE16C03F0B0FF3F492846FB
:106EBC00FDF790FD216D03F0A9FF284603F05AFF62
:106ECC0094F85430002B4ED039492846FDF782FDFA
:106EDC0003F066FF30492846FDF77CFDB4F85610E8
:106EEC0003F082FF2E492846FDF774FD94F95830C3
:106EFC0094F85920DFED2B6A07EE903A07EE102A32
:106F0C00F8EEE77AB8EEC77A002BC8BFE7EE267A20
:106F1C000646D8BFE7EE667A17EE900A04F014FD29
:106F2C0041EC100B304603F083FF94F86030BBB19A
:106F3C0020492846FDF74EFDB4F95A1003F054FFD2
:106F4C001D492846FDF746FDB4F95C1003F04CFFD3
:106F5C001A492846FDF73EFDB4F95E1003F044FFD4
:106F6C00284603F007FF28460CB0BDE8704003F03C
:106F7C0001BF00BFCAC20B00DAC20B009FC30B00DB
:106F8C00A9C30B00D2C30B00B0C20B006DC00B0029
:106F9C00DBC30B00DFC30B00E3C30B0000007A4420
:106FAC004CC00B000000803BE9C30B00F1C30B008D
:106FBC00F9C30B0058C00B005FC00B0066C00B0080
:106FCC002DE9F041424DCCB0064600274FF0640845
:106FDC006B68FCB29C420DDA296808FB041107317E
:106FEC0033A800F035FF314633A800F048FF0137D5
:106FFC000028EDD06B689C425CD1364B0193012389
:10700C008DF809300DF10B00042300248DF80A30A3
:10701C0000F049FF304B0193314601A8CDE90644FD
:10702C00CDE90B44ADF814408DF816408DF848406E
:10703C008DF858408DF86440FFF74CFD01A91AA853
:10704C008DF80840FFF7C8F91AA933A86E68FFF746
:10705C00C3F9D5E901739F4215DB0137A7420DDD5A
:10706C004FF0640808FB07F000F058FB0446F0B141
:10707C00D5E9001208FB0212FFF7E0F9286800F0CE
:10708C0055FB2C60AF602B686968642202FB0636E6
:10709C0006F1640002FB01323146FFF7CFF91EB155
:1070AC0033A93046FFF798F96B6801336B604CB02D
:1070BC00BDE8F08164235C432B681D1900276F71B8
:1070CC001B5931465B68284698472F71EFE700BF84
:1070DC0094E6032044C00B0008C40B00024B0022B2
:1070EC00C3E900229A60704794E6032008B5024B6E
:1070FC001B689B68019308BD6802030008B5024B2E
:10710C001B68DB68019308BD6802030008B5024BDD
:10711C001B689B68019308BD2C02030008B5024B49
:10712C001B68DB68019308BD2C02030008B5024BF9
:10713C001B681B69019308BD2C02030008B5024BA8
:10714C001B685B68019308BD1802030008B5024B6D
:10715C001B689B68019308BD1802030008B5024B1D
:10716C001B68DB68019308BD1802030008B5024BCD
:10717C001B685B69019308BD1802030008B5024B3C
:10718C001B689B6D019308BD1802030008B5024BE8
:10719C001B68DB6D019308BD1802030008B5024B98
:1071AC001B685B6E019308BD1802030008B5024B07
:1071BC001B689B68019308BD7802030008B5024B5D
:1071CC001B685B6F019308BD7802030008B5024B86
:1071DC001B689B6F019308BD7802030008B5024B36
:1071EC001B68DB6F019308BD7802030008B5034BE5
:1071FC001B68D3F88430019308BD000078020300AB
:10720C0008B5034B1B68D3F89830019308BD0000F8
:10721C007802030008B5034B1B68D3F8B430019314
:10722C0008BD00007802030008B5034B1B68D3F8B7
:10723C00BC30019308BD00007802030008B5034B75
:10724C001B68D3F8C430019308BD0000780203001A
:10725C0008B5034B1B68D3F8D830019308BD000068
:10726C007802030008B5034B1B68D3F8DC3001939C
:10727C0008BD00007802030008B5034B1B68D3F867
:10728C00E030019308BD00007802030008B5034B01
:10729C001B68D3F8E430019308BD000078020300AA
:1072AC0008B5034B1B68D3F8F030019308BD000000
:1072BC007802030008B5034B1B68D3F8F430019334
:1072CC0008BD00007802030008B5034B1B68D3F817
:1072DC000031019308BD00007802030008B5034B90
:1072EC001B68D3F80431019308BD00007802030039
:1072FC0008B5034B1B68D3F80C31019308BD000093
:10730C007802030008B5024B1B685B68019308BD4B
:10731C004802030008B5024B1B68DB68019308BDEB
:10732C004802030008B5024B1B68DB69019308BDDA
:10733C004802030008B5024B1B685B6C019308BD47
:10734C004802030008B5024B1B68DB6C019308BDB7
:10735C004802030008B5024B1B685B6D019308BD26
:10736C004802030008B5024B1B68DB6E019308BD95
:10737C004802030008B5024B1B685B69019308BD0A
:10738C006402030008B5024B1B68DB68019308BD5F
:10739C003C02030008B5024B1B681B69019308BD36
:1073AC003C02030008B5024B1B685B69019308BDE6
:1073BC003C02030008B5024B1B689B69019308BD96
:1073CC003C02030008B5024B1B68DB69019308BD46
:1073DC003C02030008B5024B1B681B6A019308BDF5
:1073EC003C02030008B5024B1B689B6A019308BD65
:1073FC003C02030008B5024B1B681B6C019308BDD3
:10740C003C02030008B5024B1B681B6A019308BDC4
:10741C002802030008B5024B1B685B6A019308BD88
:10742C002802030008B5024B1B689B6A019308BD38
:10743C002802030008B5024B1B68DB6A019308BDE8
:10744C002802030008B5024B1B681B6B019308BD97
:10745C002802030008B5024B1B685B6B019308BD47
:10746C002802030008B5024B1B681B6C019308BD76
:10747C002802030008B5024B1B68DB69019308BDA9
:10748C003002030008B5024B1B681B6A019308BD50
:10749C003002030008B5024B1B681B68019308BD42
:1074AC004C02030008B5024B1B685B68019308BDD6
:1074BC004C02030008B5024B1B681B69019308BD05
:1074CC004C02030008B5024B1B685B69019308BDB5
:1074DC004C02030008B5024B1B689B69019308BD65
:1074EC004C02030008B5024B1B68DB69019308BD15
:1074FC004C02030008B5024B1B681B6A019308BDC4
:10750C004C02030008B5024B1B689B6A019308BD33
:10751C004C02030008B5024B1B685B6B019308BD62
:10752C006002030008B5024B1B681B6D019308BD7C
:10753C006002030008B5024B1B685B6D019308BD2C
:10754C006002030008B5024B1B681B68019308BD61
:10755C002002030008B5024B1B685B68019308BD51
:10756C002002030008B5024B1B68DB6A019308BDBF
:10757C002002030008B5024B1B68DB6C019308BDAD
:10758C002002030008B5024B1B685B6D019308BD1C
:10759C002002030008B5024B1B689B6D019308BDCC
:1075AC002002030008B5034B1B68D3F88830019305
:1075BC0008BD00002002030008B5034B1B68D3F87C
:1075CC009430019308BD00002002030008B5024B63
:1075DC001B685B68019308BD4002030008B5024BB1
:1075EC001B689B68019308BD4002030008B5024B61
:1075FC001B68DB68019308BD4002030008B5024B11
:10760C001B681B69019308BD4002030008B5024BBF
:10761C001B685B69019308BD4002030008B5024B6F
:10762C001B689B69019308BD4002030008B5024B1F
:10763C001B68DB69019308BD4002030008B5024BCF
:10764C001B681B6A019308BD4002030008B5024B7E
:10765C001B681B6B019308BD4002030008B5024B6D
:10766C001B685B6B019308BD4002030008B5024B1D
:10767C001B681B6C019308BD4002030008B5024B4C
:10768C001B685B6C019308BD4002030008B5024BFC
:10769C001B681B68019308BD4402030008B5024B2C
:1076AC001B685B68019308BD4402030008B5024BDC
:1076BC001B689B68019308BD4402030008B5024B8C
:1076CC001B68DB68019308BD4402030008B5024B3C
:1076DC001B685B69019308BD4402030008B5024BAB
:1076EC001B68DB69019308BD4402030008B5024B1B
:1076FC001B681B6A019308BD4402030008B5024BCA
:10770C001B681B6B019308BD4402030008B5024BB8
:10771C001B68DB6B019308BD4402030008B5024BE8
:10772C001B681B68019308BD1C02030008B5024BC3
:10773C001B685B68019308BD1C02030008B5024B73
:10774C001B689B68019308BD1C02030008B5024B23
:10775C001B681B69019308BD1C02030008B5024B92
:10776C001B68DB69019308BD1C02030008B5024BC2
:10777C001B685B6A019308BD1C02030008B5024B31
:10778C001B68DB6A019308BD1C02030008B5024BA1
:10779C001B681B6B019308BD1C02030008B5024B50
:1077AC001B681B6C019308BD1C02030008B5024B3F
:1077BC001B685B6C019308BD1C02030008B5024BEF
:1077CC001B68DB6C019308BD1C020300002240689F
:1077DC001146FFF733BF002240681146FFF73EBF4A
:1077EC0040680022FFF732BF4068002281F001019F
:1077FC00FFF71CBF002340681A461946FFF70EBF5F
:10780C00002340681A461946FFF700BF0022406863
:10781C001146FFF7F3BE002240681146FFF7DEBEAB
:10782C00406800220221FFF7E1BE002340681A469F
:10783C00FFF7CCBE024B03225A60024A1A60704713
:10784C00A0E6032018C40B0010B5044608462170AE
:10785C00FFF710FE00236360204610BD054B02228B
:10786C001A60054B054A9A600020C3E90000FFF737
:10787C0071BE00BFB4E60320A8E603200000FFFFA2
:10788C0010B5044604F00BFB013823182046834244
:10789C0006D90278197800F8011B03F80129F6E7DC
:1078AC0010BD70B50C46911E22291DD8254630B945
:1078BC00234430229D4210D205F8012BFAE7B0FB8D
:1078CC00F2F602FB1600C1B2092894BF30315731D1
:1078DC00C9B205F8011B3046E9E7002320462B709E
:1078EC00FFF7CEFF204670BD0020FCE738B5031E25
:1078FC000C4615460EDAB3F1004F4FF02D0214BFB3
:10790C005842184601230A702A461944FFF7C9FF4A
:10791C00204638BD0123F9E710B504460068FFF78F
:10792C0005FF204610BD10B50446006808B1FFF7EE
:10793C00FDFE0023C4E90133236010BD38B50446B5
:10794C000D4600680131FFF7F9FE10B1C4E90005DE
:10795C00012038BD10B50368044623B143688B423F
:10796C0001D3012010BD2046FFF7E8FF0028F9D015
:10797C00A368002BF5D122681370F2E737B50D46DA
:10798C00114601920446FFF7E5FF019A28B92046FB
:10799C00FFF7C9FF204603B030BDA260294620681E
:1079AC0004F0F0F92268A3680021D154F2E7002317
:1079BC0013B5C0E9003304468360037341B1084634
:1079CC00019104F06CFA019902462046FFF7D6FFAC
:1079DC00204602B010BD38B5054600680C4668B1AB
:1079EC006A688B689A4207D3096804F033FAA36873
:1079FC00AB600023A36038BDFFF798FE23682B60B3
:107A0C0063686B60A368AB600023C4E90033F1E7E3
:107A1C0010B50023C0E90033044683600373FFF7FD
:107A2C00DAFF204610BD884210B5044605D00B681D
:107A3C002BB18A681946FFF7A1FF204610BDFFF74E
:107A4C0072FFFAE710B500230446C0E900338360E7
:107A5C000373FFF7E8FF204610BD13B5044659B178
:107A6C000846019104F01BFA019902462046FFF7E3
:107A7C0085FF204602B010BDFFF755FFF9E770B542
:107A8C0005460E4609B9002070BD6AB184681444DD
:107A9C002146FFF75FFF0028F5D02868AB68314618
:107AAC00184404F0D7F9AC600120EDE707B50023CA
:107ABC008DF80410012201A98DF80530FFF7DFFFC6
:107ACC0003B05DF804FB13B50A2204460846694668
:107ADC00FFF70CFF684604F0E2F9694602462046BF
:107AEC00FFF7CDFF02B010BD10B58A6809680446D7
:107AFC00FFF7C5FF10B92046FFF715FF204610BD54
:107B0C0013B5044629B92046FFF70DFF204602B0F5
:107B1C0010BD0846019104F0C2F9019902462046B5
:107B2C00FFF7ADFF0028EED0F0E710B50446FFF7E5
:107B3C00CAFF10B92046FFF7F6FE204610BD0268BA
:107B4C000B46096862B141B9806860B11078704722
:107B5C00986840B1097848427047104604F070B9F3
:107B6C000029F5D10846704708B582688B689A429F
:107B7C0005D1FFF7E4FFB0FA80F0400908BD002002
:107B8C00FCE708B5FFF7DBFFC00F08BD0EB470B5FE
:107B9C0087B00BAD044655F8042B01922B460521FA
:107BAC0004A80395FFF7E2FD0B4906462046FFF7B4
:107BBC00FEFE31462046FFF7CDFE206830B1019A1B
:107BCC0003952B46711CFFF7D1FDA060204607B032
:107BDC00BDE8704003B0704738C90B007047704760
:107BEC0070477047064B994210B500F10C0405D054
:107BFC00084603F033FC002808BF0024204610BDC3
:107C0C00BCC60B00064B994210B500F10C0405D014
:107C1C00084603F023FC002808BF0024204610BDB2
:107C2C00BCC60B00064B994210B500F10C0405D0F4
:107C3C00084603F013FC002808BF0024204610BDA2
:107C4C00BCC60B0010B568210446FCF720FA204690
:107C5C0010BD10B528210446FCF719FA204610BDBA
:107C6C0010B530210446FCF712FA204610BD6821ED
:107C7C00FCF70DBA2821FCF70ABA3021FCF707BA39
:107C8C00F0B50025EC1C8C420DD86E1C445D875D54
:107C9C00974205D12644B14205D31D60601CF0BD4E
:107CAC0001342544EEE70020F9E70000024A0349BD
:107CBC000A20FFF72FBC00BF69710B004CC40B00EE
:107CCC0030B40D4611461A46036809682868D3E992
:107CDC000043A44630BC6047012A38B5044602D1A3
:107CEC000B68236003E0022A03D0032A0DD0002086
:107CFC0038BD08200D68FCF7C6F903460028F0D003
:107D0C0095E8030083E80300EBE700680028EED059
:107D1C000821FCF7BCF9EAE710B5836804462BB1DF
:107D2C000322014698470023C4E9023310BD10B565
:107D3C00836804462BB10322014698470023C4E90B
:107D4C00023310BD10B500238AB02022CDE90223E6
:107D5C000446084A0092084902AA0120FFF7E2FBF8
:107D6C00206806490088002322460AB0BDE810406E
:107D7C00FFF75ABA6EC40B0063C40B0041980B009A
:107D8C0010B5013802EB410110F8013F1B0903F15A
:107D9C003004392C88BF03F1370402F8024B037806
:107DAC0003F00F0303F13004392C88BF03F13704BF
:107DBC00914202F8014CE7D110BD10B50446583081
:107DCC00FDF770F804F14800BDE81040FFF7A4BDC2
:107DDC0038B503688B4205460C4608D011B14B6888
:107DEC0001334B60286808B1FDF765F82C6038BD8D
:107DFC00A0F13003DAB2092A01D818467047A0F175
:107E0C006103052B01D857387047A0F14103052BAE
:107E1C0094BF37384FF0FF307047000010B5002387
:107E2C000370044B04461868FFF78CFA0123237087
:107E3C00204610BDBCE6032010B5037804461BB1E8
:107E4C00024B1868FFF786FA204610BDBCE60320EB
:107E5C000A6802604A68426070470A6802604A68B1
:107E6C004260704782B00346086849686A4603C29C
:107E7C006A4603CA18601846596002B0704708B5C4
:107E8C0082798B799A4206D1062203F06BFFB0FA05
:107E9C0080F0400908BD0020FCE74FF0FF33036081
:107EAC0083800020704708B50246002101604160C4
:107EBC00FFF7F3FF9171104608BD10B5431D013952
:107ECC001C7801F8014F834203F1FF33F8D110BD48
:107EDC0070B5144688B01A460D46002948D0A4B196
:107EEC0001A9FFF7EAFF9AB103AA062101A8661EB1
:107EFC00FFF746FF112E28BF1126324603A928464C
:107F0C0003F040FF0023AB55741C204608B070BD35
:107F1C0003AA012101A8FFF733FF3A260DF10F0246
:107F2C0001210DF105008DF80E60FFF729FF0DF111
:107F3C00120201210DF106008DF81160FFF720FFF0
:107F4C000DF1150201210DF107008DF81460FFF7FA
:107F5C0017FF06AA012102A88DF81760FFF710FF82
:107F6C008DF81A600DF11B0201210DF10900BEE71D
:107F7C000C46CAE710B586B00446134608461222D2
:107F8C0001A9FFF7A5FF01A92046FFF710FD204628
:107F9C0006B010BD10B501230361054B024603F179
:107FAC00100153F8044B42F8044B8B42F9D110BD2D
:107FBC00CAC60B000B7C13F0FD0330B50DD1036169
:107FCC000C4B024603F1100453F8045B42F8045BBB
:107FDC00A342F9D10B88838130BD0123036101F1E8
:107FEC001002034651F8044B43F8044B9142F9D16B
:107FFC00F2E700BFCAC60B0010B50B460446B1B180
:10800C00012A01F110020AD1014653F8040B41F880
:10801C00040B9342F9D101232361204610BD411E6C
:10802C0012F8010D01F8010F9A42F9D1F3E7102271
:10803C0003F0D0FEF1E738B504460D46FFF7AAFF72
:10804C0000232361A581204638BD08B502690B6960
:10805C009A4206D1102203F085FEB0FA80F0400956
:10806C0008BD0020FCE7000001232DE9F34103616A
:10807C00344B0C460646024603F1100153F8040B30
:10808C0042F8040B8B42F9D144B32421204603F06F
:10809C000EFF04284FF0000523D1ADF8045001AFBA
:1080AC00A51C063415F8020CFFF7A2FEB0F100086F
:1080BC0012DB15F8010CFFF79BFE00280CDB0235D8
:1080CC0040EA0810A54207F8010BEBD19DF80530EA
:1080DC0033739DF8043073730023336102B0BDE831
:1080EC00F0814FF010082421204603F0E0FEA84256
:1080FC0007D842460021304602B0BDE8F04103F0FB
:10810C0069BEB8F1000FE9D0605DFFF771FE0306A0
:10811C0015D4000108F1FF38C7B206F80870242105
:10812C00204603F0C4FE0135A84208D9605DFFF774
:10813C005FFE40B20028A4BF384306F808000135A2
:10814C00D1E700BFCAC60B0013B504460191FFF777
:10815C0021FF20460199FFF787FF204602B010BD92
:10816C0010B500F10F0301391C7801F8014F83425F
:10817C0003F1FF33F8D110BD2DE9F0411F468EB04D
:10818C000D4600295BD0DAB1D0F81080541EB8F13E
:10819C00000F19D18389CDF814805BBA05AA02218E
:1081AC0001A8ADF80430FFF7EBFD042C28BF042424
:1081BC00224605A9284603F0E5FD05F80480621C5B
:1081CC0010460EB0BDE8F08101A9FFF7C9FF05AA62
:1081DC007FB1102101A8FFF7D3FD242C28BF242444
:1081EC00224605A9284603F0CDFD00232B55621C21
:1081FC00E6E704210DEB0100FFF7C2FD2D260DF182
:10820C001D02022102A88DF81C60FFF7B9FD0DF1CB
:10821C00220202210DF10A008DF82160FFF7B0FD5A
:10822C000DF12702022103A88DF82660FFF7A8FDA7
:10823C008DF82B600BAA06210DF10E00CBE70A4638
:10824C00BEE710B58AB004460023252208466946CD
:10825C00FFF792FF69462046FFF7A9FB20460AB0BC
:10826C0010BD10B503464468084631B1944228BF8E
:10827C0014461968224603F085FD204610BDF7B55B
:10828C00054616461F460A4601ABD0E90001FFF72A
:10829C00F7FC30F002040CD0841EBC4228BF3C46D4
:1082AC003EB101992B68023122461944304603F045
:1082BC0069FD204603B0F0BD37B513460C4601925C
:1082CC000A4608210546FFF7DAFF40B9019B224612
:1082DC000921284603B0BDE83040FFF7D0BF03B0FA
:1082EC0030BD0000F0B50C4689B00C490546FFF7CF
:1082FC005EFB1F2269462046FFF7DEFF064650B1A3
:10830C006C46002714F8011B2846FFF7CFFB10B171
:10831C000137BE42F6D1284609B0F0BD38C90B0072
:10832C0013460A46FF21FFF7AABF07B5022301AA8D
:10833C001921FFF7A4FF08B1BDF8040003B05DF8E4
:10834C0004FB07B50A4601ABD0E90001FFF798FC26
:10835C00003818BF012003B05DF804FB38B54FF6A8
:10836C00FF730025044643800E22294605700571D3
:10837C00063003F02FFD04F11400FFF70BFE04F19F
:10838C002800FFF707FE044904F13C00FFF70FFB40
:10839C006565204638BD00BF38C90B0038B50D687F
:1083AC000446014605F12800FFF74FFE40B1AB89AA
:1083BC00A28A9A4205D8E08A984234BF0020012054
:1083CC0038BD0020FCE710B5D0E9063203EBC20241
:1083DC009342184606D0046824888C4203F10803A3
:1083EC00F6D110BD0020FCE7002370B503600546F4
:1083FC006820FBF748FE041E04F10C0607D001238D
:10840C00C4E90133044B23603046FFF7A7FFC5E9ED
:10841C000064284670BD00BF70C60B0070B50C68B8
:10842C001434064605460FCC0FC523682B60304626
:10843C0070BD0000F0B5064685B01F460D460029FC
:10844C0050D0002A4ED004682378F42A28BFF42296
:10845C0043B32379980709D5A08903920023FEF72B
:10846C00D9FE0028039A03DA05B0F0BD6FF077004F
:10847C0034682379D90609D5012F07D0A0890023A8
:10848C00294605B0BDE8F040FEF71EBF9B06EBD5B4
:10849C00022FE9D0A0890023294605B0BDE8F040A1
:1084AC00FEF71CBF60884FF6FF7188421CD0217903
:1084BC004E0701D5012F04D10B0709D46FF07700BB
:1084CC00D2E7A189009313462A46FEF7CBFECBE7F1
:1084DC00022FF3D00023A189009313462A46FEF7FE
:1084EC00B7FEC1E70248BFE76FF0D100BCE700BFA1
:1084FC00F2FEFFFF10B503681A7886B052BB5C8899
:10850C004FF6FF70844225D0188A30B3CDE9032290
:10851C000592134A0092134ACDE901235A88ADF80B
:10852C000C201A8AADF80E209A89ADF8102059B19A
:10853C001A79920644BF022205921B79DB0642BFD0
:10854C00059B43F00103059300216846FEF7B2FE3C
:10855C0006B010BD6FF0D100FAE76FF07700F7E7C7
:10856C000300180045870B00F8B500260660054689
:10857C002820FBF788FD041E04F10C070AD0012308
:10858C00C4E90133054B23603846FFF703FD26622F
:10859C0084F82460C5E900742846F8BD8CC60B002D
:1085AC0070B50025056006463020FBF76CFD0446CF
:1085BC0088B10123C0E90133094B03604FF6FF7307
:1085CC0083810E30FFF76FFCC4E90655C4E90855EA
:1085DC00C4E90A55A57574600C343460304670BD1E
:1085EC00A8C60B0013B5044601A8FFF717FC2368B7
:1085FC001C884FF6FF73E41A01A818BF0124FFF77B
:10860C001BFC204602B010BD37B505460C4601A830
:10861C00FFF704FC2A682368C2F802306368C2F8CA
:10862C00063001A8FFF708FC03B030BD37B50D4686
:10863C00044601A8FFF7F2FB2A68D2F80230236047
:10864C00D2F80630636001A8FFF7F6FB204603B0B2
:10865C0030BD30B5054687B00C4601A8FFF7DEFBF0
:10866C002A68236812881B889A420DD1294602A8D1
:10867C00FFF7DCFF214604A8FFF7D8FF04A902A8E6
:10868C00FFF7FDFB044600B9002401A8FFF7D4FB5B
:10869C00204607B030BD000010B504466420FBF73F
:1086AC00F2FC68B10023C0E90033C0E90233C0E931
:1086BC000433C0E906330362C362C363C364C36596
:1086CC00206020B90A4A0B490A20FEF723FF00203C
:1086DC00FEF76CFD20B1064A07490A20FEF71AFF87
:1086EC00216806480022FEF7DBFD204610BD00BFC6
:1086FC0069710B004CC40B008AC40B0031900B0049
:10870C0010B50A4C2378BFF35B8FDB070CD42046E3
:10871C00FBF7BFFC40B10648FFF7BEFF2046FBF756
:10872C00BDFC044803F010FB014810BDB8E6032063
:10873C00C0E603209D890B0030B50368093B012B73
:10874C008DB004460D4611D8FFF7DAFFA1880068FA
:10875C00FFF739FE034658B92022CDE904200B4A15
:10876C0000920B4904AA3220FEF7DCFE0DB030BD9E
:10877C006A6D002AFAD0D4E9032105F14C00CDE949
:10878C000312AC6D04AA03A9A047EFE7CCC40B00FD
:10879C0063C40B0008B50020FEF708FD00EAE0708A
:1087AC0008BD002247F67F71C0E90022C0E9022211
:1087BC00C0E90422C0E90E22C0E91022C0E912224D
:1087CC00C0E91422C0E91622C0E91822C0E91B2214
:1087DC0002620263A0F86810704708460021FEF799
:1087EC00EDBC08460021FEF7F1BC0B68002118888F
:1087FC00FEF77EBD70B5D0E90053044605EB0316B9
:10880C00AE4204D02846FFF787F81035F8E7206809
:10881C00FEF78CFF204670BD10B504460068FEF7CD
:10882C0085FF204610BD70B50446C06DFEF77EFF77
:10883C00206DFEF77BFF04F1380504F14400FFF7CF
:10884C00EBFF2846FFF7D6FF04F12800FCF72AFBC4
:10885C0004F11800FCF726FBD4E90053242606FB90
:10886C000356AE4204D02846FDF71BFD2435F8E72D
:10887C002068FEF75BFF204670BD38B5141E4368B8
:10888C00054602DB62189A4200DD5C1A2A68501811
:10889C0001191A44521A03F083FA6A68121B6A60AF
:1088AC0038BD000038B500230446836008200D460F
:1088BC00FBF7E9FB18B12B6803606B684360034B53
:1088CC00E360034B2060A360204638BDCD7C0B00D9
:1088DC00E57C0B0010B551F8043B044640F8043B12
:1088EC00FCF71AFC23680BB9FFF7E0F9204610BD22
:1088FC0010B551F8043B044640F8043BFCF70CFC63
:10890C00204610BD10B551F8043B044640F8043B1A
:10891C00FCF702FC204610BD10B504460430FCF7F1
:10892C00F3FB204610BD10B504460430FCF7ECFBFD
:10893C00204610BD70B5D0E90053044605EBC306C4
:10894C00AE4204D0281DFCF7DFFB0835F8E72068A1
:10895C00FEF7ECFE204670BD70B5D0E9005304461E
:10896C0005EBC306AE4204D0281DFCF7CDFB083541
:10897C00F8E72068FEF7DAFE204670BD10B5044615
:10898C002430FFF7E9FF04F11800FFF7D3FF10BD07
:10899C0070B5174B1C6854B304F15400FCF782FA01
:1089AC0004F14400FCF77EFA04F13400FCF77AFA87
:1089BC0004F12400FCF776FAD4E9065305EBC30660
:1089CC00AE4204D0281DFCF79FFB0835F8E7A069E0
:1089DC00FEF7ACFE04F10C00FFF7BEFF2046FFF7DC
:1089EC00A9FF20466421BDE87040FBF750BB70BD69
:1089FC00C0E60320826810B50AB902F02CFDBDE870
:108A0C001040C36818472DE9F0470023C0E9003334
:108A1C008360D1F80480984505460F464ADD4FEA3D
:108A2C000810FEF77BFE0646002843D0D5E900412E
:108A3C00A04204EB011A16D9504515D2AAF1100A1E
:108A4C00A4F11009AAEB04040444D1451DD01CB1B7
:108A5C0051462046FEF7DCFF5046FEF75DFFAAF1BB
:108A6C00100A103CF1E710D0B146A2450DD0B9F177
:108A7C00000F03D021464846FEF7CAFF2046FEF7FA
:108A8C004BFF103409F11009EFE72868FEF74EFE92
:108A9C00C5F808802E60D7E9004304EB0318A04505
:108AAC0006D021463046FEF7CDFF10341036F6E7DF
:108ABC007B686B602846BDE8F08730B58DB00C46FE
:108ACC0000F1380101A8FFF79EFF029B002B2FDD60
:108ADC0004F1140104A8FFF705FC04F1080108A82F
:108AEC00FFF700FC0A9A069B13431FD0DDE90145F2
:108AFC0004EB0515AC4219D004A92046FFF734F855
:108B0C0060B1012408A8FEF707FF04A8FEF704FFD4
:108B1C0001A8FFF76FFE20460DB030BD204608A916
:108B2C00FFF722F810340028E4D0EAE70024E9E744
:108B3C000124EDE7F8B50023C0E9003383604F68EA
:108B4C009F4205460E463EDDF800FEF7E7FD044663
:108B5C00C8B3D5E90003844200EBC30310D99C428F
:108B6C000FD2083B1A1AA0F1080C22449C4518D0CD
:108B7C001AB11968116059685160083B083AF5E759
:108B8C000FD0014622468B420BD03AB1D1F800C02F
:108B9C00C2F800C0D1F804C0C2F804C008310832D1
:108BAC00F1E7FEF7C3FD2C60AF60D6E9003103EBB3
:108BBC00C100984206D01A6822605A686260083375
:108BCC000834F6E769602846F8BD70B50446002005
:108BDC00C4E90000A0604E6886420D4612DD7100AB
:108BEC00FEF7ACFD70B12060A660D5E9003203EB56
:108BFC0042029A4204D033F8021B20F8021BF8E719
:108C0C006B686360204670BD10B50379044623B9C8
:108C1C000368186808B1FEF789FD204610BD10B531
:108C2C000379044623B90368186808B1FEF77EFD82
:108C3C00204610BD2DE9F043D0F86C808FB00F4664
:108C4C00B8F1000F72D0056F002D6FD001F114092F
:108C5C001F230022FF214846FFF711FB0837FF2393
:108C6C000446002219463846FFF709FBAC4206467B
:108C7C0006D0AE4230D0002420460FB0BDE8F083C1
:108C8C002046FEF74BFD03AB0493002304460390F0
:108C9C008DF8143070B92023CDE90630244B0093A5
:108CAC002449034606AA3220FEF73CFC04A8FFF731
:108CBC00ABFFE1E70246FF212B464846FFF7DFFA00
:108CCC0003982A46414603F04DF818B104A8FFF763
:108CDC009BFFCEE70124E9E72846FEF71FFD0024A1
:108CEC0003AB0646039004938DF8144078B9202307
:108CFC00CDE906300E4B00930E49034606AA3220EE
:108D0C00FEF710FC344604A8FFF789FFB4E70246CF
:108D1C00FF212B463846FFF7B2FA03982A46414604
:108D2C0003F020F80028EED10124ECE70124A3E79E
:108D3C00E4C40B0063C40B0038B50D1E0446006878
:108D4C0003DDFEF7FBFC18B938BDFEF7EFFC002085
:108D5C002060A5600120F7E708B583688B4202DA32
:108D6C00FFF7EAFF08BD0120FCE71FB5044601A888
:108D7C00FDF7C0FA019B029A206823606368626069
:108D8C00039A0293A368A26001900393FEF7CEFCB2
:108D9C0004B010BD2DE9F0410F4641681D46194441
:108DAC00836899420446904612DC266862683E4409
:108DBC00D21B3146701902F0F3FF2A464146304669
:108DCC0002F0E0FF63682B4463600120BDE8F08192
:108DDC00FFF7B2FF0028E8D1F8E713460A46002156
:108DEC0010B50446416002B10BB9002010BDFF2B39
:108DFC0028BFFF23FFF7CEFF0028F7D06068F5E708
:108E0C00F8B50D46D0E901139942044616460BDA23
:108E1C00276862687919521B481C02F0C1FF7E5505
:108E2C00636801336360F8BD0131FFF785FF0028EB
:108E3C00EED1F8E70A464168FFF7E2BF2DE9F743A8
:108E4C0004461D460F4601AB90460A46D0E9000188
:108E5C009DF82890FEF714FFAE1C63680246B9F12A
:108E6C00000F26D128B333441B1AFF2B09D80199C4
:108E7C002046FFF702FD616820463144FFF76CFF86
:108E8C0018B9606803B0BDE8F0836A1C0199D2B2CE
:108E9C002046FFF7B5FF01993A4601312046FFF70E
:108EAC00AFFF01992B46424602312046FFF772FF75
:108EBC00E7E7F118FF29E4D82046FFF74DFF00281B
:108ECC00DFD0691CC9B22046FFF7B4FF39462046F3
:108EDC00FFF7B0FF61682B464246E6E730B49DF8D9
:108EEC0008501AB1029530BCFFF7A8BF406830BCDF
:108EFC0070471FB50023C0E900338360062200933E
:108F0C0001238DF80F2019460DF10F020446FFF7CF
:108F1C00E5FF204604B010BD8842F8B504460D4666
:108F2C00164614D9904213D2A2F10806751AA1F173
:108F3C0008072C44B74218D01CB131462046FFF725
:108F4C00E1FC301DFCF7E0F8083E083CF2E70CD0E1
:108F5C00B5420AD01CB129462046FFF7D3FC281D88
:108F6C00FCF7D2F808350834F2E7F8BDF7B504463B
:108F7C0046686846FFF7C6FCD4E901739F4212DBD2
:108F8C000137002F29DDF800FEF7C8FB0546F0B1CC
:108F9C00D4E9001201EBC202FFF7BEFF2068FEF716
:108FAC00C5FB2560A7602368626803EBC60603EB6C
:108FBC00C202314606F10800FFF7AEFF1EB169464A
:108FCC003046FFF79FFC636801336360012501A8FD
:108FDC00FCF79AF8284603B0F0BD0025DEE7F8B59B
:108FEC00D0E9004305460F4604EBC306A64205D064
:108FFC0039462046FFF72DFB08B114B9F8BD0834EB
:10900C00F4E7201DFCF780F8D5E9003204F10801E3
:10901C0003EBC2022046FFF77FFF6B68013B6B60DE
:10902C00ECE700002DE9F04105468EB003A80C4694
:10903C00FEF7F4FE2E68F31E0D2B3CD8DFE813F080
:10904C000E0053003B00D1003B003B003B003B00BB
:10905C003B009B009B009B009B009B0004A8FFF720
:10906C009FFA049BAA891A80696804980831023017
:10907C00FEF7F8FE04A906A8FFF744FC06A904F1C4
:10908C001800FFF773FF054607A8FCF73DF82023EF
:10909C000693B5B95D4B5E49009332202B4606AA68
:1090AC000795FEF73FFA049B29461888FEF7A8F8A7
:1090BC0005A8FCF729F803A8FEF7BEFE0EB0BDE824
:1090CC00F081544A009200235149079306AA0120CB
:1090DC00FEF728FAE36A002BEAD004A904F1240075
:1090EC00FFF788FCE4E7A9892046FFF76CF90646F0
:1090FC000028E0D00568D5E906324FF6FF712980CB
:10910C0003EBC2029A4203D053F8080B4180F9E7F3
:10911C00D5E9037307EBC308B84504D0381DFBF73A
:10912C00F3FF0837F8E700232B61D5E9067307EB4B
:10913C00C308B84504D0381DFBF7E6FF0837F8E73D
:10914C000023EB61AB72E36B23B1314604F13400C5
:10915C00FFF750FC00232022CDE906232E4A009273
:10916C002B4906AA0120FEF7DDF9314604F118005F
:10917C00FFF735FF9FE7A9892046FFF724F9002860
:10918C0099D0E36C002B96D000230D2EADF8163041
:10919C0001D0102E17D1002369681A4606258DF8C8
:1091AC00153004918DF814200690DDE9040109AB0B
:1091BC008DF81C60089583E80300236D06A904F163
:1091CC004400984777E70F2E01BF2B7A696803F0AC
:1091DC00010208250FBFC3F340031A4619461D466A
:1091EC00DDE7A9892046FFF7EEF8014600283FF499
:1091FC0062AFE36D002B3FF45EAF6B68069306AA7B
:10920C00236E04F15400984755E700BFFFC40B00D0
:10921C0063C40B0025C50B0042C50B0013B50446F7
:10922C00FFF7E0F9D0B1236800211888FDF7E8FFBB
:10923C00002811DB01A8FEF7F1FDFFF761FA0068C9
:10924C0021461830FFF7CBFE23684FF6FF721A80C9
:10925C0001A8FEF7F1FD002002B010BD6FF0D100A7
:10926C00FAE738B50D1E0446006805DD1421694384
:10927C00FEF764FA18B938BDFEF758FA00202060E2
:10928C00A5600120F7E72DE9F8430024C0E900446C
:10929C00846088464968A14207461ADDFFF7E1FF62
:1092AC00B8B1D8E900934FF0140CD7F800E00CFBE0
:1092BC00039C09EB0405AC4508D01EEB04061FBF4C
:1092CC000FCD0FC62B6833601434F2E7D8F8043096
:1092DC007B603846BDE8F8832DE9F843D1E9008777
:1092EC0045688368E9199942044617DC14232668FB
:1092FC0062685D4303FB07F95A432E44521B314607
:10930C0006EB090002F04CFD4A464146304602F09D
:10931C0039FD63683B446360BDE8F883FFF7A1FF48
:10932C000028E3D1F8E782B070B50C4604A981E8B7
:10933C000C00D0E901139942054617DA142303FBFC
:10934C0004F16A682C685A430C44521AE0182146FE
:10935C0004AE02F025FD0FCE0FC4336823606B689A
:10936C0001336B60BDE8704002B070470131FFF70C
:10937C0078FF0028E2D1F5E72DE9F04F002493B0F7
:10938C00931EC0E90044DBB205460F46904684604C
:10939C00059379688C4272DA386807AB4246091B30
:1093AC002044FEF76DFC0646002868D0059B012B77
:1093BC002FD8A0F1020B4FEA5B0B4FF000090DF117
:1093CC003C0A079BCB45234455D03A6803EB490331
:1093DC00134408A8D9789B7843EA0121FEF72BFEA9
:1093EC000DF1200EBEE80F000DF1340CACE80F00AF
:1093FC00DEF80030CCF800309AE807008DE8070062
:10940C000DAB0CCB69682846FFF78DFF09F10109FC
:10941C00D7E7A8F10603012B2DD8A0F1020B4FEAD8
:10942C001B1B4FF000090DF13C0ACB45079B22D0CA
:10943C0002333968234403EB09130122194408A8A9
:10944C00FEF7DAFD0DF1200EBEE80F000DF1340C25
:10945C00ACE80F00DEF80030CCF800309AE80700DA
:10946C008DE80700DDE90D2369682846FFF75BFFEF
:10947C0009F10109D9E7079B1C44344489E72846C4
:10948C0013B0BDE8F08F30B5002385B0C0E90033D0
:10949C0083600446022201A80D46FFF76DFF01A967
:1094AC002046FFF719FF01A8FFF7B6F9022229465B
:1094BC0001A8FFF761FF01A92046FFF70DFF01A8E6
:1094CC00FFF7AAF90322294601A8FFF755FF01A9C6
:1094DC002046FFF701FF01A8FFF79EF90622294657
:1094EC0001A8FFF749FF01A92046FFF7F5FE01A8E7
:1094FC00FFF792F90722294601A8FFF73DFF01A9C2
:10950C002046FFF7E9FE01A8FFF786F9204605B0D3
:10951C0030BD2DE9F04F8BB00C4600F1440101A891
:10952C00FFF7B1FE029B002B4ADD04F1140104A8E5
:10953C00FFF7A9FF04F1080107A8FFF7A4FF059D99
:10954C00089E002D01DC002E38DD019A029FDDF80B
:10955C001080DDF81C90142303FB072703FB058503
:10956C0003FB06969246BA4528D0C346AB4515D0A8
:10957C0059465046FEF769FD0BF1140B04460028C2
:10958C00F4D007A8FFF748F904A8FFF745F901A89C
:10959C00FFF742F920460BB0BDE8F08FCB46B34540
:1095AC0009D059465046FEF750FD0BF1140B0446FA
:1095BC000028F4D0E5E70AF1140AD4E70024E0E728
:1095CC000124E4E738B505460C46FCF770F8AB68A7
:1095DC00A268AA60A360EB68E268EA60E36038BD49
:1095EC0030B585B0002302938B6805460C4633B129
:1095FC00022268469847E3680393A36802932946BE
:10960C006846FFF7DFFF6846FBF74CFC05B030BD42
:10961C0038B50D4601684B6D044623B128684C31B2
:10962C004C30FFF7DDFF20462B6840F8043B69689F
:10963C00FEF7CEFB204638BD2DE9F043044687B03B
:10964C0068460E461746FEF7E9FB2368D3E9064346
:10965C0004EBC3084445A14616D0214601A8FEF7E9
:10966C00DDFE394601A8FEF7F0FC0834054600285B
:10967C00F0D049463046FFF7CBFF6846FEF7DCFBDF
:10968C00284607B0BDE8F0830025F6E710B504685E
:10969C008AB04C34B9B1CDE9001202A86946FFF783
:1096AC0001F9002306A902A80893FFF78BFF2146B6
:1096BC0006A8FFF787FF06A8FBF7F4FB02A8FBF749
:1096CC00F1FB0AB010BD0491EBE78842F8B50446F3
:1096DC000D46164614D9904213D2A2F10806751AFB
:1096EC00A1F108072C44B74218D01CB131462046D2
:1096FC00FFF7FEF8301DFBF707FD083E083CF2E7CC
:10970C000CD0B5420AD01CB129462046FFF7F0F820
:10971C00281DFBF7F9FC08350834F2E7F8BD70B5E5
:10972C000E1E054611DDF000FDF7F8FF044658B19A
:10973C00D5E9001201EBC202FFF7C7FF2868FDF75D
:10974C00F5FF2C60AE60012070BD0024F6E72DE91A
:10975C00F0410023C0E9003383600D46496899420B
:10976C00044613DDFFF7DBFF80B1D5E90063276802
:10977C0006EBC308B04507D01FB131463846FFF79A
:10978C00B7F808360837F5E76B6863602046BDE824
:10979C00F08137B50D46044601A8FEF73FFB29685A
:1097AC0020460C31FFF7D3FF01A8FEF745FB2046FE
:1097BC0003B030BD38B50B689B7A05460C4633B9FF
:1097CC000846FEF7BFFA10B9236801229A722846A0
:1097DC002146FFF7DEFF284638BD73B504464568C1
:1097EC006846FFF785F8D4E90113994210DA23682B
:1097FC00626803EBC50503EBC202294605F10800BC
:10980C00FFF763FF8DB9636801336360012606E0DF
:10981C0001312046FFF783FF06460028E7D101A857
:10982C00FBF772FC304602B070BD69462846FFF764
:10983C005FF8E8E72DE9F04FDFF8B890DFF8B8A053
:10984C0093B00546884600272B68BB424ED903A827
:10985C00FEF78AFE1C266A68039C7E4332440DF197
:10986C00140C131DE346143218685968E646AEE82A
:10987C00030008339342F446F6D11868CEF8000082
:10988C0059460AA8FEF796FB0DF1280CBCE80F0010
:10989C000FC4DCF8003023606B68039A334403A9CF
:1098AC001B8B93826B6833445B8BD382D8F800009C
:1098BC0000F10C040AA8FFF71BF820460AA9FFF7D1
:1098CC008CFF04460BA8FBF71FFC54B92023CDE9F1
:1098DC000A34CDF8009023460AAA51463220FDF7EF
:1098EC0021FE04A8FBF710FC0137ADE713B0BDE86F
:1098FC00F08F00BF61C50B0063C40B008842F8B544
:10990C0004460D46164614D9904213D2A2F108060D
:10991C00751AA1F108072C44B74218D01CB1314676
:10992C002046FEF7D7FF301DFBF7EEFB083E083C48
:10993C00F2E70CD0B5420AD01CB129462046FEF7FE
:10994C00C9FF281DFBF7E0FB08350834F2E7F8BD2A
:10995C0070B50E1E054611DDF000FDF7DFFE044666
:10996C0058B1D5E9001201EBC202FFF7C7FF286816
:10997C00FDF7DCFE2C60AE60012070BD0024F6E724
:10998C002DE9F0410023C0E9003383600D4649689E
:10999C009942044613DDFFF7DBFF80B1D5E9006384
:1099AC00276806EBC308B04507D01FB131463846CF
:1099BC00FEF790FF08360837F5E76B6863602046C2
:1099CC00BDE8F08137B50D46044601A8FEF726FA2E
:1099DC00296820461831FFF7D3FF01A8FEF72CFAAF
:1099EC00204603B030BD73B5044645686846FEF7A3
:1099FC0071FFD4E90113994210DA2368626803EB12
:109A0C00C50503EBC202294605F10800FFF776FFF6
:109A1C008DB9636801336360012606E0013120468D
:109A2C00FFF796FF06460028E7D101A8FBF76CFB71
:109A3C00304602B070BD69462846FEF74BFFE8E79A
:109A4C00F0B585B0054601A80C461746FEF7E6F9B9
:109A5C000023C5E90033AB602368D3E9064604EB69
:109A6C00C606B44211D038682146FEF797FC50B1B7
:109A7C00214602A8FEF72EFF02A92846FFF7B3FFE6
:109A8C0003A8FBF741FB0834EBE701A8FEF7D4F978
:109A9C00284605B0F0BD00002DE9F0430B689B7A19
:109AAC0091B006460F46904633B9C0E90033836047
:109ABC00304611B0BDE8F08311680D7E002D58D1F1
:109ACC0020232A4603A8CDE90835FEF7BAFB039BF1
